{
	"contracts/Admin.sol": {
		"Admin": {
			"abi": [
				{
					"inputs": [],
					"stateMutability": "nonpayable",
					"type": "constructor"
				},
				{
					"anonymous": false,
					"inputs": [
						{
							"indexed": false,
							"internalType": "string",
							"name": "ActionType",
							"type": "string"
						}
					],
					"name": "Action",
					"type": "event"
				},
				{
					"inputs": [
						{
							"internalType": "string",
							"name": "name",
							"type": "string"
						},
						{
							"internalType": "string",
							"name": "description",
							"type": "string"
						},
						{
							"internalType": "uint256",
							"name": "distance",
							"type": "uint256"
						}
					],
					"name": "addRoute",
					"outputs": [],
					"stateMutability": "nonpayable",
					"type": "function"
				},
				{
					"inputs": [],
					"name": "balance",
					"outputs": [
						{
							"internalType": "uint256",
							"name": "",
							"type": "uint256"
						}
					],
					"stateMutability": "view",
					"type": "function"
				},
				{
					"inputs": [
						{
							"internalType": "address",
							"name": "_address",
							"type": "address"
						}
					],
					"name": "checkAdmin",
					"outputs": [
						{
							"internalType": "bool",
							"name": "",
							"type": "bool"
						}
					],
					"stateMutability": "view",
					"type": "function"
				},
				{
					"inputs": [
						{
							"internalType": "uint256",
							"name": "routeId",
							"type": "uint256"
						}
					],
					"name": "deleteRoute",
					"outputs": [],
					"stateMutability": "nonpayable",
					"type": "function"
				},
				{
					"inputs": [
						{
							"internalType": "uint256",
							"name": "routeId",
							"type": "uint256"
						},
						{
							"internalType": "uint256",
							"name": "slotId",
							"type": "uint256"
						}
					],
					"name": "getRouteTicketHolders",
					"outputs": [
						{
							"internalType": "address[]",
							"name": "",
							"type": "address[]"
						}
					],
					"stateMutability": "view",
					"type": "function"
				},
				{
					"inputs": [],
					"name": "getRoutes",
					"outputs": [
						{
							"components": [
								{
									"internalType": "uint256",
									"name": "id",
									"type": "uint256"
								},
								{
									"internalType": "string",
									"name": "name",
									"type": "string"
								},
								{
									"internalType": "uint256",
									"name": "distance",
									"type": "uint256"
								},
								{
									"internalType": "string",
									"name": "description",
									"type": "string"
								},
								{
									"internalType": "uint256",
									"name": "timestamp",
									"type": "uint256"
								},
								{
									"internalType": "bool",
									"name": "deleted",
									"type": "bool"
								}
							],
							"internalType": "struct Route[]",
							"name": "Routes",
							"type": "tuple[]"
						}
					],
					"stateMutability": "view",
					"type": "function"
				},
				{
					"inputs": [
						{
							"internalType": "uint256",
							"name": "",
							"type": "uint256"
						}
					],
					"name": "routeExists",
					"outputs": [
						{
							"internalType": "bool",
							"name": "",
							"type": "bool"
						}
					],
					"stateMutability": "view",
					"type": "function"
				},
				{
					"inputs": [
						{
							"internalType": "address",
							"name": "_address",
							"type": "address"
						},
						{
							"internalType": "bool",
							"name": "_status",
							"type": "bool"
						}
					],
					"name": "setAdmin",
					"outputs": [],
					"stateMutability": "nonpayable",
					"type": "function"
				},
				{
					"inputs": [
						{
							"internalType": "uint256",
							"name": "routeId",
							"type": "uint256"
						},
						{
							"internalType": "string",
							"name": "name",
							"type": "string"
						},
						{
							"internalType": "string",
							"name": "description",
							"type": "string"
						},
						{
							"internalType": "uint256",
							"name": "distance",
							"type": "uint256"
						}
					],
					"name": "updateRoute",
					"outputs": [],
					"stateMutability": "nonpayable",
					"type": "function"
				},
				{
					"inputs": [
						{
							"internalType": "address",
							"name": "reciever",
							"type": "address"
						},
						{
							"internalType": "uint256",
							"name": "amount",
							"type": "uint256"
						}
					],
					"name": "withdrawTo",
					"outputs": [],
					"stateMutability": "nonpayable",
					"type": "function"
				}
			],
			"devdoc": {
				"kind": "dev",
				"methods": {},
				"version": 1
			},
			"evm": {
				"assembly": "    /* \"contracts/Admin.sol\":141:4406  contract Admin {... */\n  mstore(0x40, 0x80)\n    /* \"contracts/Admin.sol\":573:632  constructor() {... */\n  callvalue\n  dup1\n  iszero\n  tag_1\n  jumpi\n  0x00\n  dup1\n  revert\ntag_1:\n  pop\n    /* \"contracts/Admin.sol\":620:624  true */\n  0x01\n    /* \"contracts/Admin.sol\":598:605  isAdmin */\n  0x03\n    /* \"contracts/Admin.sol\":598:617  isAdmin[msg.sender] */\n  0x00\n    /* \"contracts/Admin.sol\":606:616  msg.sender */\n  caller\n    /* \"contracts/Admin.sol\":598:617  isAdmin[msg.sender] */\n  0xffffffffffffffffffffffffffffffffffffffff\n  and\n  0xffffffffffffffffffffffffffffffffffffffff\n  and\n  dup2\n  mstore\n  0x20\n  add\n  swap1\n  dup2\n  mstore\n  0x20\n  add\n  0x00\n  keccak256\n  0x00\n    /* \"contracts/Admin.sol\":598:624  isAdmin[msg.sender] = true */\n  0x0100\n  exp\n  dup2\n  sload\n  dup2\n  0xff\n  mul\n  not\n  and\n  swap1\n  dup4\n  iszero\n  iszero\n  mul\n  or\n  swap1\n  sstore\n  pop\n    /* \"contracts/Admin.sol\":141:4406  contract Admin {... */\n  dataSize(sub_0)\n  dup1\n  dataOffset(sub_0)\n  0x00\n  codecopy\n  0x00\n  return\nstop\n\nsub_0: assembly {\n        /* \"contracts/Admin.sol\":141:4406  contract Admin {... */\n      mstore(0x40, 0x80)\n      callvalue\n      dup1\n      iszero\n      tag_1\n      jumpi\n      0x00\n      dup1\n      revert\n    tag_1:\n      pop\n      jumpi(tag_2, lt(calldatasize, 0x04))\n      shr(0xe0, calldataload(0x00))\n      dup1\n      0x7e928072\n      gt\n      tag_13\n      jumpi\n      dup1\n      0x7e928072\n      eq\n      tag_8\n      jumpi\n      dup1\n      0x9026dee8\n      eq\n      tag_9\n      jumpi\n      dup1\n      0x9693c4a4\n      eq\n      tag_10\n      jumpi\n      dup1\n      0xb69ef8a8\n      eq\n      tag_11\n      jumpi\n      dup1\n      0xe8579fd2\n      eq\n      tag_12\n      jumpi\n      jump(tag_2)\n    tag_13:\n      dup1\n      0x0c6081ca\n      eq\n      tag_3\n      jumpi\n      dup1\n      0x10601ee6\n      eq\n      tag_4\n      jumpi\n      dup1\n      0x205c2878\n      eq\n      tag_5\n      jumpi\n      dup1\n      0x444530ab\n      eq\n      tag_6\n      jumpi\n      dup1\n      0x4b0bddd2\n      eq\n      tag_7\n      jumpi\n    tag_2:\n      0x00\n      dup1\n      revert\n        /* \"contracts/Admin.sol\":3606:3790  function getRouteTicketHolders(... */\n    tag_3:\n      tag_14\n      0x04\n      dup1\n      calldatasize\n      sub\n      dup2\n      add\n      swap1\n      tag_15\n      swap2\n      swap1\n      tag_16\n      jump\t// in\n    tag_15:\n      tag_17\n      jump\t// in\n    tag_14:\n      mload(0x40)\n      tag_18\n      swap2\n      swap1\n      tag_19\n      jump\t// in\n    tag_18:\n      mload(0x40)\n      dup1\n      swap2\n      sub\n      swap1\n      return\n        /* \"contracts/Admin.sol\":2235:3108  function updateRoute(... */\n    tag_4:\n      tag_20\n      0x04\n      dup1\n      calldatasize\n      sub\n      dup2\n      add\n      swap1\n      tag_21\n      swap2\n      swap1\n      tag_22\n      jump\t// in\n    tag_21:\n      tag_23\n      jump\t// in\n    tag_20:\n      stop\n        /* \"contracts/Admin.sol\":3800:3999  function withdrawTo(address reciever, uint256 amount) public onlyAdmin {... */\n    tag_5:\n      tag_24\n      0x04\n      dup1\n      calldatasize\n      sub\n      dup2\n      add\n      swap1\n      tag_25\n      swap2\n      swap1\n      tag_26\n      jump\t// in\n    tag_25:\n      tag_27\n      jump\t// in\n    tag_24:\n      stop\n        /* \"contracts/Admin.sol\":409:453  mapping (uint256 => bool) public routeExists */\n    tag_6:\n      tag_28\n      0x04\n      dup1\n      calldatasize\n      sub\n      dup2\n      add\n      swap1\n      tag_29\n      swap2\n      swap1\n      tag_30\n      jump\t// in\n    tag_29:\n      tag_31\n      jump\t// in\n    tag_28:\n      mload(0x40)\n      tag_32\n      swap2\n      swap1\n      tag_33\n      jump\t// in\n    tag_32:\n      mload(0x40)\n      dup1\n      swap2\n      sub\n      swap1\n      return\n        /* \"contracts/Admin.sol\":754:869  function setAdmin(address _address, bool _status) external onlyAdmin {... */\n    tag_7:\n      tag_34\n      0x04\n      dup1\n      calldatasize\n      sub\n      dup2\n      add\n      swap1\n      tag_35\n      swap2\n      swap1\n      tag_36\n      jump\t// in\n    tag_35:\n      tag_37\n      jump\t// in\n    tag_34:\n      stop\n        /* \"contracts/Admin.sol\":3116:3598  function getRoutes() public view returns(Route[] memory Routes){... */\n    tag_8:\n      tag_38\n      tag_39\n      jump\t// in\n    tag_38:\n      mload(0x40)\n      tag_40\n      swap2\n      swap1\n      tag_41\n      jump\t// in\n    tag_40:\n      mload(0x40)\n      dup1\n      swap2\n      sub\n      swap1\n      return\n        /* \"contracts/Admin.sol\":877:987  function checkAdmin(address _address) external view returns (bool) {... */\n    tag_9:\n      tag_42\n      0x04\n      dup1\n      calldatasize\n      sub\n      dup2\n      add\n      swap1\n      tag_43\n      swap2\n      swap1\n      tag_44\n      jump\t// in\n    tag_43:\n      tag_45\n      jump\t// in\n    tag_42:\n      mload(0x40)\n      tag_46\n      swap2\n      swap1\n      tag_33\n      jump\t// in\n    tag_46:\n      mload(0x40)\n      dup1\n      swap2\n      sub\n      swap1\n      return\n        /* \"contracts/Admin.sol\":1671:2227  function deleteRoute(uint256 routeId) public onlyAdmin {... */\n    tag_10:\n      tag_47\n      0x04\n      dup1\n      calldatasize\n      sub\n      dup2\n      add\n      swap1\n      tag_48\n      swap2\n      swap1\n      tag_30\n      jump\t// in\n    tag_48:\n      tag_49\n      jump\t// in\n    tag_47:\n      stop\n        /* \"contracts/Admin.sol\":165:187  uint256 public balance */\n    tag_11:\n      tag_50\n      tag_51\n      jump\t// in\n    tag_50:\n      mload(0x40)\n      tag_52\n      swap2\n      swap1\n      tag_53\n      jump\t// in\n    tag_52:\n      mload(0x40)\n      dup1\n      swap2\n      sub\n      swap1\n      return\n        /* \"contracts/Admin.sol\":999:1663  function addRoute(... */\n    tag_12:\n      tag_54\n      0x04\n      dup1\n      calldatasize\n      sub\n      dup2\n      add\n      swap1\n      tag_55\n      swap2\n      swap1\n      tag_56\n      jump\t// in\n    tag_55:\n      tag_57\n      jump\t// in\n    tag_54:\n      stop\n        /* \"contracts/Admin.sol\":3606:3790  function getRouteTicketHolders(... */\n    tag_17:\n        /* \"contracts/Admin.sol\":3716:3732  address[] memory */\n      0x60\n        /* \"contracts/Admin.sol\":3752:3765  ticketHolders */\n      0x06\n        /* \"contracts/Admin.sol\":3752:3774  ticketHolders[routeId] */\n      0x00\n        /* \"contracts/Admin.sol\":3766:3773  routeId */\n      dup5\n        /* \"contracts/Admin.sol\":3752:3774  ticketHolders[routeId] */\n      dup2\n      mstore\n      0x20\n      add\n      swap1\n      dup2\n      mstore\n      0x20\n      add\n      0x00\n      keccak256\n        /* \"contracts/Admin.sol\":3752:3782  ticketHolders[routeId][slotId] */\n      0x00\n        /* \"contracts/Admin.sol\":3775:3781  slotId */\n      dup4\n        /* \"contracts/Admin.sol\":3752:3782  ticketHolders[routeId][slotId] */\n      dup2\n      mstore\n      0x20\n      add\n      swap1\n      dup2\n      mstore\n      0x20\n      add\n      0x00\n      keccak256\n        /* \"contracts/Admin.sol\":3745:3782  return ticketHolders[routeId][slotId] */\n      dup1\n      sload\n      dup1\n      0x20\n      mul\n      0x20\n      add\n      mload(0x40)\n      swap1\n      dup2\n      add\n      0x40\n      mstore\n      dup1\n      swap3\n      swap2\n      swap1\n      dup2\n      dup2\n      mstore\n      0x20\n      add\n      dup3\n      dup1\n      sload\n      dup1\n      iszero\n      tag_59\n      jumpi\n      0x20\n      mul\n      dup3\n      add\n      swap2\n      swap1\n      0x00\n      mstore\n      keccak256(0x00, 0x20)\n      swap1\n    tag_60:\n      dup2\n      0x00\n      swap1\n      sload\n      swap1\n      0x0100\n      exp\n      swap1\n      div\n      0xffffffffffffffffffffffffffffffffffffffff\n      and\n      0xffffffffffffffffffffffffffffffffffffffff\n      and\n      dup2\n      mstore\n      0x20\n      add\n      swap1\n      0x01\n      add\n      swap1\n      dup1\n      dup4\n      gt\n      tag_60\n      jumpi\n    tag_59:\n      pop\n      pop\n      pop\n      pop\n      pop\n      swap1\n      pop\n        /* \"contracts/Admin.sol\":3606:3790  function getRouteTicketHolders(... */\n      swap3\n      swap2\n      pop\n      pop\n      jump\t// out\n        /* \"contracts/Admin.sol\":2235:3108  function updateRoute(... */\n    tag_23:\n        /* \"contracts/Admin.sol\":680:687  isAdmin */\n      0x03\n        /* \"contracts/Admin.sol\":680:699  isAdmin[msg.sender] */\n      0x00\n        /* \"contracts/Admin.sol\":688:698  msg.sender */\n      caller\n        /* \"contracts/Admin.sol\":680:699  isAdmin[msg.sender] */\n      0xffffffffffffffffffffffffffffffffffffffff\n      and\n      0xffffffffffffffffffffffffffffffffffffffff\n      and\n      dup2\n      mstore\n      0x20\n      add\n      swap1\n      dup2\n      mstore\n      0x20\n      add\n      0x00\n      keccak256\n      0x00\n      swap1\n      sload\n      swap1\n      0x0100\n      exp\n      swap1\n      div\n      0xff\n      and\n        /* \"contracts/Admin.sol\":672:726  require(isAdmin[msg.sender], \"Caller is not an admin\") */\n      tag_62\n      jumpi\n      mload(0x40)\n      0x08c379a000000000000000000000000000000000000000000000000000000000\n      dup2\n      mstore\n      0x04\n      add\n      tag_63\n      swap1\n      tag_64\n      jump\t// in\n    tag_63:\n      mload(0x40)\n      dup1\n      swap2\n      sub\n      swap1\n      revert\n    tag_62:\n        /* \"contracts/Admin.sol\":2417:2428  routeExists */\n      0x04\n        /* \"contracts/Admin.sol\":2417:2437  routeExists[routeId] */\n      0x00\n        /* \"contracts/Admin.sol\":2429:2436  routeId */\n      dup6\n        /* \"contracts/Admin.sol\":2417:2437  routeExists[routeId] */\n      dup2\n      mstore\n      0x20\n      add\n      swap1\n      dup2\n      mstore\n      0x20\n      add\n      0x00\n      keccak256\n      0x00\n      swap1\n      sload\n      swap1\n      0x0100\n      exp\n      swap1\n      div\n      0xff\n      and\n        /* \"contracts/Admin.sol\":2409:2461  require(routeExists[routeId], \"Route doesn't exist\") */\n      tag_66\n      jumpi\n      mload(0x40)\n      0x08c379a000000000000000000000000000000000000000000000000000000000\n      dup2\n      mstore\n      0x04\n      add\n      tag_67\n      swap1\n      tag_68\n      jump\t// in\n    tag_67:\n      mload(0x40)\n      dup1\n      swap2\n      sub\n      swap1\n      revert\n    tag_66:\n        /* \"contracts/Admin.sol\":2502:2503  0 */\n      0x00\n        /* \"contracts/Admin.sol\":2487:2491  name */\n      dup4\n        /* \"contracts/Admin.sol\":2481:2499  bytes(name).length */\n      mload\n        /* \"contracts/Admin.sol\":2481:2503  bytes(name).length > 0 */\n      gt\n        /* \"contracts/Admin.sol\":2472:2531  require((bytes(name).length > 0), \"Name must not be empty\") */\n      tag_69\n      jumpi\n      mload(0x40)\n      0x08c379a000000000000000000000000000000000000000000000000000000000\n      dup2\n      mstore\n      0x04\n      add\n      tag_70\n      swap1\n      tag_71\n      jump\t// in\n    tag_70:\n      mload(0x40)\n      dup1\n      swap2\n      sub\n      swap1\n      revert\n    tag_69:\n        /* \"contracts/Admin.sol\":2562:2563  0 */\n      0x00\n        /* \"contracts/Admin.sol\":2550:2558  distance */\n      dup2\n        /* \"contracts/Admin.sol\":2550:2563  distance == 0 */\n      eq\n        /* \"contracts/Admin.sol\":2542:2594  require(distance == 0, \"Distance must not be empty\") */\n      tag_72\n      jumpi\n      mload(0x40)\n      0x08c379a000000000000000000000000000000000000000000000000000000000\n      dup2\n      mstore\n      0x04\n      add\n      tag_73\n      swap1\n      tag_74\n      jump\t// in\n    tag_73:\n      mload(0x40)\n      dup1\n      swap2\n      sub\n      swap1\n      revert\n    tag_72:\n        /* \"contracts/Admin.sol\":2620:2634  uint256 slotId */\n      0x00\n        /* \"contracts/Admin.sol\":2637:2638  1 */\n      0x01\n        /* \"contracts/Admin.sol\":2620:2638  uint256 slotId = 1 */\n      swap1\n      pop\n        /* \"contracts/Admin.sol\":2615:2907  for (uint256 slotId = 1; slotId <= _totalRoutes.current(); slotId++){... */\n    tag_75:\n        /* \"contracts/Admin.sol\":2650:2672  _totalRoutes.current() */\n      tag_78\n        /* \"contracts/Admin.sol\":2650:2662  _totalRoutes */\n      0x01\n        /* \"contracts/Admin.sol\":2650:2670  _totalRoutes.current */\n      tag_79\n        /* \"contracts/Admin.sol\":2650:2672  _totalRoutes.current() */\n      jump\t// in\n    tag_78:\n        /* \"contracts/Admin.sol\":2640:2646  slotId */\n      dup2\n        /* \"contracts/Admin.sol\":2640:2672  slotId <= _totalRoutes.current() */\n      gt\n        /* \"contracts/Admin.sol\":2615:2907  for (uint256 slotId = 1; slotId <= _totalRoutes.current(); slotId++){... */\n      tag_76\n      jumpi\n        /* \"contracts/Admin.sol\":2698:2724  address [] storage holders */\n      0x00\n        /* \"contracts/Admin.sol\":2727:2740  ticketHolders */\n      0x06\n        /* \"contracts/Admin.sol\":2727:2749  ticketHolders[routeId] */\n      0x00\n        /* \"contracts/Admin.sol\":2741:2748  routeId */\n      dup8\n        /* \"contracts/Admin.sol\":2727:2749  ticketHolders[routeId] */\n      dup2\n      mstore\n      0x20\n      add\n      swap1\n      dup2\n      mstore\n      0x20\n      add\n      0x00\n      keccak256\n        /* \"contracts/Admin.sol\":2727:2757  ticketHolders[routeId][slotId] */\n      0x00\n        /* \"contracts/Admin.sol\":2750:2756  slotId */\n      dup4\n        /* \"contracts/Admin.sol\":2727:2757  ticketHolders[routeId][slotId] */\n      dup2\n      mstore\n      0x20\n      add\n      swap1\n      dup2\n      mstore\n      0x20\n      add\n      0x00\n      keccak256\n        /* \"contracts/Admin.sol\":2698:2757  address [] storage holders = ticketHolders[routeId][slotId] */\n      swap1\n      pop\n        /* \"contracts/Admin.sol\":2816:2817  0 */\n      0x00\n        /* \"contracts/Admin.sol\":2798:2805  holders */\n      dup2\n        /* \"contracts/Admin.sol\":2798:2812  holders.length */\n      dup1\n      sload\n      swap1\n      pop\n        /* \"contracts/Admin.sol\":2798:2817  holders.length == 0 */\n      eq\n        /* \"contracts/Admin.sol\":2772:2895  require(... */\n      tag_80\n      jumpi\n      mload(0x40)\n      0x08c379a000000000000000000000000000000000000000000000000000000000\n      dup2\n      mstore\n      0x04\n      add\n      tag_81\n      swap1\n      tag_82\n      jump\t// in\n    tag_81:\n      mload(0x40)\n      dup1\n      swap2\n      sub\n      swap1\n      revert\n    tag_80:\n        /* \"contracts/Admin.sol\":2683:2907  {... */\n      pop\n        /* \"contracts/Admin.sol\":2674:2682  slotId++ */\n      dup1\n      dup1\n      tag_83\n      swap1\n      tag_84\n      jump\t// in\n    tag_83:\n      swap2\n      pop\n      pop\n        /* \"contracts/Admin.sol\":2615:2907  for (uint256 slotId = 1; slotId <= _totalRoutes.current(); slotId++){... */\n      jump(tag_75)\n    tag_76:\n      pop\n        /* \"contracts/Admin.sol\":2940:2944  name */\n      dup3\n        /* \"contracts/Admin.sol\":2917:2923  routes */\n      0x05\n        /* \"contracts/Admin.sol\":2917:2932  routes[routeId] */\n      0x00\n        /* \"contracts/Admin.sol\":2924:2931  routeId */\n      dup7\n        /* \"contracts/Admin.sol\":2917:2932  routes[routeId] */\n      dup2\n      mstore\n      0x20\n      add\n      swap1\n      dup2\n      mstore\n      0x20\n      add\n      0x00\n      keccak256\n        /* \"contracts/Admin.sol\":2917:2937  routes[routeId].name */\n      0x01\n      add\n        /* \"contracts/Admin.sol\":2917:2944  routes[routeId].name = name */\n      swap1\n      dup2\n      tag_85\n      swap2\n      swap1\n      tag_86\n      jump\t// in\n    tag_85:\n      pop\n        /* \"contracts/Admin.sol\":2985:2996  description */\n      dup2\n        /* \"contracts/Admin.sol\":2955:2961  routes */\n      0x05\n        /* \"contracts/Admin.sol\":2955:2970  routes[routeId] */\n      0x00\n        /* \"contracts/Admin.sol\":2962:2969  routeId */\n      dup7\n        /* \"contracts/Admin.sol\":2955:2970  routes[routeId] */\n      dup2\n      mstore\n      0x20\n      add\n      swap1\n      dup2\n      mstore\n      0x20\n      add\n      0x00\n      keccak256\n        /* \"contracts/Admin.sol\":2955:2982  routes[routeId].description */\n      0x03\n      add\n        /* \"contracts/Admin.sol\":2955:2996  routes[routeId].description = description */\n      swap1\n      dup2\n      tag_87\n      swap2\n      swap1\n      tag_86\n      jump\t// in\n    tag_87:\n      pop\n        /* \"contracts/Admin.sol\":3034:3042  distance */\n      dup1\n        /* \"contracts/Admin.sol\":3007:3013  routes */\n      0x05\n        /* \"contracts/Admin.sol\":3007:3022  routes[routeId] */\n      0x00\n        /* \"contracts/Admin.sol\":3014:3021  routeId */\n      dup7\n        /* \"contracts/Admin.sol\":3007:3022  routes[routeId] */\n      dup2\n      mstore\n      0x20\n      add\n      swap1\n      dup2\n      mstore\n      0x20\n      add\n      0x00\n      keccak256\n        /* \"contracts/Admin.sol\":3007:3031  routes[routeId].distance */\n      0x02\n      add\n        /* \"contracts/Admin.sol\":3007:3042  routes[routeId].distance = distance */\n      dup2\n      swap1\n      sstore\n      pop\n        /* \"contracts/Admin.sol\":3073:3098  Action(\"Updated a route\") */\n      0x8b2c14fe955d044ef95ba32b88d2ceb87c6f73fcefdcebe906063a6d75690f27\n      mload(0x40)\n      tag_88\n      swap1\n      tag_89\n      jump\t// in\n    tag_88:\n      mload(0x40)\n      dup1\n      swap2\n      sub\n      swap1\n      log1\n        /* \"contracts/Admin.sol\":2235:3108  function updateRoute(... */\n      pop\n      pop\n      pop\n      pop\n      jump\t// out\n        /* \"contracts/Admin.sol\":3800:3999  function withdrawTo(address reciever, uint256 amount) public onlyAdmin {... */\n    tag_27:\n        /* \"contracts/Admin.sol\":680:687  isAdmin */\n      0x03\n        /* \"contracts/Admin.sol\":680:699  isAdmin[msg.sender] */\n      0x00\n        /* \"contracts/Admin.sol\":688:698  msg.sender */\n      caller\n        /* \"contracts/Admin.sol\":680:699  isAdmin[msg.sender] */\n      0xffffffffffffffffffffffffffffffffffffffff\n      and\n      0xffffffffffffffffffffffffffffffffffffffff\n      and\n      dup2\n      mstore\n      0x20\n      add\n      swap1\n      dup2\n      mstore\n      0x20\n      add\n      0x00\n      keccak256\n      0x00\n      swap1\n      sload\n      swap1\n      0x0100\n      exp\n      swap1\n      div\n      0xff\n      and\n        /* \"contracts/Admin.sol\":672:726  require(isAdmin[msg.sender], \"Caller is not an admin\") */\n      tag_91\n      jumpi\n      mload(0x40)\n      0x08c379a000000000000000000000000000000000000000000000000000000000\n      dup2\n      mstore\n      0x04\n      add\n      tag_92\n      swap1\n      tag_64\n      jump\t// in\n    tag_92:\n      mload(0x40)\n      dup1\n      swap2\n      sub\n      swap1\n      revert\n    tag_91:\n        /* \"contracts/Admin.sol\":3901:3907  amount */\n      dup1\n        /* \"contracts/Admin.sol\":3890:3897  balance */\n      sload(0x00)\n        /* \"contracts/Admin.sol\":3890:3907  balance >= amount */\n      lt\n      iszero\n        /* \"contracts/Admin.sol\":3882:3929  require(balance >= amount, \"Insufficient fund\") */\n      tag_94\n      jumpi\n      mload(0x40)\n      0x08c379a000000000000000000000000000000000000000000000000000000000\n      dup2\n      mstore\n      0x04\n      add\n      tag_95\n      swap1\n      tag_96\n      jump\t// in\n    tag_95:\n      mload(0x40)\n      dup1\n      swap2\n      sub\n      swap1\n      revert\n    tag_94:\n        /* \"contracts/Admin.sol\":3951:3957  amount */\n      dup1\n        /* \"contracts/Admin.sol\":3940:3947  balance */\n      0x00\n      dup1\n        /* \"contracts/Admin.sol\":3940:3957  balance -= amount */\n      dup3\n      dup3\n      sload\n      tag_97\n      swap2\n      swap1\n      tag_98\n      jump\t// in\n    tag_97:\n      swap3\n      pop\n      pop\n      dup2\n      swap1\n      sstore\n      pop\n        /* \"contracts/Admin.sol\":3968:3991  payTo(reciever, amount) */\n      tag_99\n        /* \"contracts/Admin.sol\":3974:3982  reciever */\n      dup3\n        /* \"contracts/Admin.sol\":3984:3990  amount */\n      dup3\n        /* \"contracts/Admin.sol\":3968:3973  payTo */\n      tag_100\n        /* \"contracts/Admin.sol\":3968:3991  payTo(reciever, amount) */\n      jump\t// in\n    tag_99:\n        /* \"contracts/Admin.sol\":3800:3999  function withdrawTo(address reciever, uint256 amount) public onlyAdmin {... */\n      pop\n      pop\n      jump\t// out\n        /* \"contracts/Admin.sol\":409:453  mapping (uint256 => bool) public routeExists */\n    tag_31:\n      mstore(0x20, 0x04)\n      dup1\n      0x00\n      mstore\n      keccak256(0x00, 0x40)\n      0x00\n      swap2\n      pop\n      sload\n      swap1\n      0x0100\n      exp\n      swap1\n      div\n      0xff\n      and\n      dup2\n      jump\t// out\n        /* \"contracts/Admin.sol\":754:869  function setAdmin(address _address, bool _status) external onlyAdmin {... */\n    tag_37:\n        /* \"contracts/Admin.sol\":680:687  isAdmin */\n      0x03\n        /* \"contracts/Admin.sol\":680:699  isAdmin[msg.sender] */\n      0x00\n        /* \"contracts/Admin.sol\":688:698  msg.sender */\n      caller\n        /* \"contracts/Admin.sol\":680:699  isAdmin[msg.sender] */\n      0xffffffffffffffffffffffffffffffffffffffff\n      and\n      0xffffffffffffffffffffffffffffffffffffffff\n      and\n      dup2\n      mstore\n      0x20\n      add\n      swap1\n      dup2\n      mstore\n      0x20\n      add\n      0x00\n      keccak256\n      0x00\n      swap1\n      sload\n      swap1\n      0x0100\n      exp\n      swap1\n      div\n      0xff\n      and\n        /* \"contracts/Admin.sol\":672:726  require(isAdmin[msg.sender], \"Caller is not an admin\") */\n      tag_102\n      jumpi\n      mload(0x40)\n      0x08c379a000000000000000000000000000000000000000000000000000000000\n      dup2\n      mstore\n      0x04\n      add\n      tag_103\n      swap1\n      tag_64\n      jump\t// in\n    tag_103:\n      mload(0x40)\n      dup1\n      swap2\n      sub\n      swap1\n      revert\n    tag_102:\n        /* \"contracts/Admin.sol\":854:861  _status */\n      dup1\n        /* \"contracts/Admin.sol\":834:841  isAdmin */\n      0x03\n        /* \"contracts/Admin.sol\":834:851  isAdmin[_address] */\n      0x00\n        /* \"contracts/Admin.sol\":842:850  _address */\n      dup5\n        /* \"contracts/Admin.sol\":834:851  isAdmin[_address] */\n      0xffffffffffffffffffffffffffffffffffffffff\n      and\n      0xffffffffffffffffffffffffffffffffffffffff\n      and\n      dup2\n      mstore\n      0x20\n      add\n      swap1\n      dup2\n      mstore\n      0x20\n      add\n      0x00\n      keccak256\n      0x00\n        /* \"contracts/Admin.sol\":834:861  isAdmin[_address] = _status */\n      0x0100\n      exp\n      dup2\n      sload\n      dup2\n      0xff\n      mul\n      not\n      and\n      swap1\n      dup4\n      iszero\n      iszero\n      mul\n      or\n      swap1\n      sstore\n      pop\n        /* \"contracts/Admin.sol\":754:869  function setAdmin(address _address, bool _status) external onlyAdmin {... */\n      pop\n      pop\n      jump\t// out\n        /* \"contracts/Admin.sol\":3116:3598  function getRoutes() public view returns(Route[] memory Routes){... */\n    tag_39:\n        /* \"contracts/Admin.sol\":3157:3178  Route[] memory Routes */\n      0x60\n        /* \"contracts/Admin.sol\":3190:3209  uint256 totalRoutes */\n      0x00\n        /* \"contracts/Admin.sol\":3224:3233  uint256 i */\n      dup1\n        /* \"contracts/Admin.sol\":3236:3237  1 */\n      0x01\n        /* \"contracts/Admin.sol\":3224:3237  uint256 i = 1 */\n      swap1\n      pop\n        /* \"contracts/Admin.sol\":3220:3333  for(uint256 i = 1; i<= _totalRoutes.current();i++){... */\n    tag_106:\n        /* \"contracts/Admin.sol\":3243:3265  _totalRoutes.current() */\n      tag_109\n        /* \"contracts/Admin.sol\":3243:3255  _totalRoutes */\n      0x01\n        /* \"contracts/Admin.sol\":3243:3263  _totalRoutes.current */\n      tag_79\n        /* \"contracts/Admin.sol\":3243:3265  _totalRoutes.current() */\n      jump\t// in\n    tag_109:\n        /* \"contracts/Admin.sol\":3239:3240  i */\n      dup2\n        /* \"contracts/Admin.sol\":3239:3265  i<= _totalRoutes.current() */\n      gt\n        /* \"contracts/Admin.sol\":3220:3333  for(uint256 i = 1; i<= _totalRoutes.current();i++){... */\n      tag_107\n      jumpi\n        /* \"contracts/Admin.sol\":3289:3295  routes */\n      0x05\n        /* \"contracts/Admin.sol\":3289:3298  routes[i] */\n      0x00\n        /* \"contracts/Admin.sol\":3296:3297  i */\n      dup3\n        /* \"contracts/Admin.sol\":3289:3298  routes[i] */\n      dup2\n      mstore\n      0x20\n      add\n      swap1\n      dup2\n      mstore\n      0x20\n      add\n      0x00\n      keccak256\n        /* \"contracts/Admin.sol\":3289:3306  routes[i].deleted */\n      0x05\n      add\n      0x00\n      swap1\n      sload\n      swap1\n      0x0100\n      exp\n      swap1\n      div\n      0xff\n      and\n        /* \"contracts/Admin.sol\":3285:3321  if(!routes[i].deleted) totalRoutes++ */\n      tag_110\n      jumpi\n        /* \"contracts/Admin.sol\":3308:3321  totalRoutes++ */\n      dup2\n      dup1\n      tag_111\n      swap1\n      tag_84\n      jump\t// in\n    tag_111:\n      swap3\n      pop\n      pop\n        /* \"contracts/Admin.sol\":3285:3321  if(!routes[i].deleted) totalRoutes++ */\n    tag_110:\n        /* \"contracts/Admin.sol\":3266:3269  i++ */\n      dup1\n      dup1\n      tag_112\n      swap1\n      tag_84\n      jump\t// in\n    tag_112:\n      swap2\n      pop\n      pop\n        /* \"contracts/Admin.sol\":3220:3333  for(uint256 i = 1; i<= _totalRoutes.current();i++){... */\n      jump(tag_106)\n    tag_107:\n      pop\n        /* \"contracts/Admin.sol\":3366:3377  totalRoutes */\n      dup1\n        /* \"contracts/Admin.sol\":3354:3378  new Route[](totalRoutes) */\n      0xffffffffffffffff\n      dup2\n      gt\n      iszero\n      tag_113\n      jumpi\n      tag_114\n      tag_115\n      jump\t// in\n    tag_114:\n    tag_113:\n      mload(0x40)\n      swap1\n      dup1\n      dup3\n      mstore\n      dup1\n      0x20\n      mul\n      0x20\n      add\n      dup3\n      add\n      0x40\n      mstore\n      dup1\n      iszero\n      tag_116\n      jumpi\n      dup2\n      0x20\n      add\n    tag_117:\n      tag_118\n      tag_119\n      jump\t// in\n    tag_118:\n      dup2\n      mstore\n      0x20\n      add\n      swap1\n      0x01\n      swap1\n      sub\n      swap1\n      dup2\n      tag_117\n      jumpi\n      swap1\n      pop\n    tag_116:\n      pop\n        /* \"contracts/Admin.sol\":3345:3378  Routes = new Route[](totalRoutes) */\n      swap2\n      pop\n        /* \"contracts/Admin.sol\":3391:3400  uint256 j */\n      0x00\n        /* \"contracts/Admin.sol\":3419:3428  uint256 i */\n      dup1\n        /* \"contracts/Admin.sol\":3431:3432  1 */\n      0x01\n        /* \"contracts/Admin.sol\":3419:3432  uint256 i = 1 */\n      swap1\n      pop\n        /* \"contracts/Admin.sol\":3415:3591  for(uint256 i = 1;i <= _totalRoutes.current();i++){... */\n    tag_120:\n        /* \"contracts/Admin.sol\":3438:3460  _totalRoutes.current() */\n      tag_123\n        /* \"contracts/Admin.sol\":3438:3450  _totalRoutes */\n      0x01\n        /* \"contracts/Admin.sol\":3438:3458  _totalRoutes.current */\n      tag_79\n        /* \"contracts/Admin.sol\":3438:3460  _totalRoutes.current() */\n      jump\t// in\n    tag_123:\n        /* \"contracts/Admin.sol\":3433:3434  i */\n      dup2\n        /* \"contracts/Admin.sol\":3433:3460  i <= _totalRoutes.current() */\n      gt\n        /* \"contracts/Admin.sol\":3415:3591  for(uint256 i = 1;i <= _totalRoutes.current();i++){... */\n      tag_121\n      jumpi\n        /* \"contracts/Admin.sol\":3484:3490  routes */\n      0x05\n        /* \"contracts/Admin.sol\":3484:3493  routes[i] */\n      0x00\n        /* \"contracts/Admin.sol\":3491:3492  i */\n      dup3\n        /* \"contracts/Admin.sol\":3484:3493  routes[i] */\n      dup2\n      mstore\n      0x20\n      add\n      swap1\n      dup2\n      mstore\n      0x20\n      add\n      0x00\n      keccak256\n        /* \"contracts/Admin.sol\":3484:3501  routes[i].deleted */\n      0x05\n      add\n      0x00\n      swap1\n      sload\n      swap1\n      0x0100\n      exp\n      swap1\n      div\n      0xff\n      and\n        /* \"contracts/Admin.sol\":3480:3580  if(!routes[i].deleted){... */\n      tag_124\n      jumpi\n        /* \"contracts/Admin.sol\":3533:3539  routes */\n      0x05\n        /* \"contracts/Admin.sol\":3533:3542  routes[i] */\n      0x00\n        /* \"contracts/Admin.sol\":3540:3541  i */\n      dup3\n        /* \"contracts/Admin.sol\":3533:3542  routes[i] */\n      dup2\n      mstore\n      0x20\n      add\n      swap1\n      dup2\n      mstore\n      0x20\n      add\n      0x00\n      keccak256\n        /* \"contracts/Admin.sol\":3521:3542  Routes[j] = routes[i] */\n      mload(0x40)\n      dup1\n      0xc0\n      add\n      0x40\n      mstore\n      swap1\n      dup2\n      0x00\n      dup3\n      add\n      sload\n      dup2\n      mstore\n      0x20\n      add\n      0x01\n      dup3\n      add\n      dup1\n      sload\n      tag_125\n      swap1\n      tag_126\n      jump\t// in\n    tag_125:\n      dup1\n      0x1f\n      add\n      0x20\n      dup1\n      swap2\n      div\n      mul\n      0x20\n      add\n      mload(0x40)\n      swap1\n      dup2\n      add\n      0x40\n      mstore\n      dup1\n      swap3\n      swap2\n      swap1\n      dup2\n      dup2\n      mstore\n      0x20\n      add\n      dup3\n      dup1\n      sload\n      tag_127\n      swap1\n      tag_126\n      jump\t// in\n    tag_127:\n      dup1\n      iszero\n      tag_128\n      jumpi\n      dup1\n      0x1f\n      lt\n      tag_129\n      jumpi\n      0x0100\n      dup1\n      dup4\n      sload\n      div\n      mul\n      dup4\n      mstore\n      swap2\n      0x20\n      add\n      swap2\n      jump(tag_128)\n    tag_129:\n      dup3\n      add\n      swap2\n      swap1\n      0x00\n      mstore\n      keccak256(0x00, 0x20)\n      swap1\n    tag_130:\n      dup2\n      sload\n      dup2\n      mstore\n      swap1\n      0x01\n      add\n      swap1\n      0x20\n      add\n      dup1\n      dup4\n      gt\n      tag_130\n      jumpi\n      dup3\n      swap1\n      sub\n      0x1f\n      and\n      dup3\n      add\n      swap2\n    tag_128:\n      pop\n      pop\n      pop\n      pop\n      pop\n      dup2\n      mstore\n      0x20\n      add\n      0x02\n      dup3\n      add\n      sload\n      dup2\n      mstore\n      0x20\n      add\n      0x03\n      dup3\n      add\n      dup1\n      sload\n      tag_131\n      swap1\n      tag_126\n      jump\t// in\n    tag_131:\n      dup1\n      0x1f\n      add\n      0x20\n      dup1\n      swap2\n      div\n      mul\n      0x20\n      add\n      mload(0x40)\n      swap1\n      dup2\n      add\n      0x40\n      mstore\n      dup1\n      swap3\n      swap2\n      swap1\n      dup2\n      dup2\n      mstore\n      0x20\n      add\n      dup3\n      dup1\n      sload\n      tag_132\n      swap1\n      tag_126\n      jump\t// in\n    tag_132:\n      dup1\n      iszero\n      tag_133\n      jumpi\n      dup1\n      0x1f\n      lt\n      tag_134\n      jumpi\n      0x0100\n      dup1\n      dup4\n      sload\n      div\n      mul\n      dup4\n      mstore\n      swap2\n      0x20\n      add\n      swap2\n      jump(tag_133)\n    tag_134:\n      dup3\n      add\n      swap2\n      swap1\n      0x00\n      mstore\n      keccak256(0x00, 0x20)\n      swap1\n    tag_135:\n      dup2\n      sload\n      dup2\n      mstore\n      swap1\n      0x01\n      add\n      swap1\n      0x20\n      add\n      dup1\n      dup4\n      gt\n      tag_135\n      jumpi\n      dup3\n      swap1\n      sub\n      0x1f\n      and\n      dup3\n      add\n      swap2\n    tag_133:\n      pop\n      pop\n      pop\n      pop\n      pop\n      dup2\n      mstore\n      0x20\n      add\n      0x04\n      dup3\n      add\n      sload\n      dup2\n      mstore\n      0x20\n      add\n      0x05\n      dup3\n      add\n      0x00\n      swap1\n      sload\n      swap1\n      0x0100\n      exp\n      swap1\n      div\n      0xff\n      and\n      iszero\n      iszero\n      iszero\n      iszero\n      dup2\n      mstore\n      pop\n      pop\n        /* \"contracts/Admin.sol\":3521:3527  Routes */\n      dup5\n        /* \"contracts/Admin.sol\":3528:3529  j */\n      dup4\n        /* \"contracts/Admin.sol\":3521:3530  Routes[j] */\n      dup2\n      mload\n      dup2\n      lt\n      tag_136\n      jumpi\n      tag_137\n      tag_138\n      jump\t// in\n    tag_137:\n    tag_136:\n      0x20\n      mul\n      0x20\n      add\n      add\n        /* \"contracts/Admin.sol\":3521:3542  Routes[j] = routes[i] */\n      dup2\n      swap1\n      mstore\n      pop\n        /* \"contracts/Admin.sol\":3561:3564  j++ */\n      dup2\n      dup1\n      tag_139\n      swap1\n      tag_84\n      jump\t// in\n    tag_139:\n      swap3\n      pop\n      pop\n        /* \"contracts/Admin.sol\":3480:3580  if(!routes[i].deleted){... */\n    tag_124:\n        /* \"contracts/Admin.sol\":3461:3464  i++ */\n      dup1\n      dup1\n      tag_140\n      swap1\n      tag_84\n      jump\t// in\n    tag_140:\n      swap2\n      pop\n      pop\n        /* \"contracts/Admin.sol\":3415:3591  for(uint256 i = 1;i <= _totalRoutes.current();i++){... */\n      jump(tag_120)\n    tag_121:\n      pop\n        /* \"contracts/Admin.sol\":3179:3598  {... */\n      pop\n      pop\n        /* \"contracts/Admin.sol\":3116:3598  function getRoutes() public view returns(Route[] memory Routes){... */\n      swap1\n      jump\t// out\n        /* \"contracts/Admin.sol\":877:987  function checkAdmin(address _address) external view returns (bool) {... */\n    tag_45:\n        /* \"contracts/Admin.sol\":938:942  bool */\n      0x00\n        /* \"contracts/Admin.sol\":962:969  isAdmin */\n      0x03\n        /* \"contracts/Admin.sol\":962:979  isAdmin[_address] */\n      0x00\n        /* \"contracts/Admin.sol\":970:978  _address */\n      dup4\n        /* \"contracts/Admin.sol\":962:979  isAdmin[_address] */\n      0xffffffffffffffffffffffffffffffffffffffff\n      and\n      0xffffffffffffffffffffffffffffffffffffffff\n      and\n      dup2\n      mstore\n      0x20\n      add\n      swap1\n      dup2\n      mstore\n      0x20\n      add\n      0x00\n      keccak256\n      0x00\n      swap1\n      sload\n      swap1\n      0x0100\n      exp\n      swap1\n      div\n      0xff\n      and\n        /* \"contracts/Admin.sol\":955:979  return isAdmin[_address] */\n      swap1\n      pop\n        /* \"contracts/Admin.sol\":877:987  function checkAdmin(address _address) external view returns (bool) {... */\n      swap2\n      swap1\n      pop\n      jump\t// out\n        /* \"contracts/Admin.sol\":1671:2227  function deleteRoute(uint256 routeId) public onlyAdmin {... */\n    tag_49:\n        /* \"contracts/Admin.sol\":680:687  isAdmin */\n      0x03\n        /* \"contracts/Admin.sol\":680:699  isAdmin[msg.sender] */\n      0x00\n        /* \"contracts/Admin.sol\":688:698  msg.sender */\n      caller\n        /* \"contracts/Admin.sol\":680:699  isAdmin[msg.sender] */\n      0xffffffffffffffffffffffffffffffffffffffff\n      and\n      0xffffffffffffffffffffffffffffffffffffffff\n      and\n      dup2\n      mstore\n      0x20\n      add\n      swap1\n      dup2\n      mstore\n      0x20\n      add\n      0x00\n      keccak256\n      0x00\n      swap1\n      sload\n      swap1\n      0x0100\n      exp\n      swap1\n      div\n      0xff\n      and\n        /* \"contracts/Admin.sol\":672:726  require(isAdmin[msg.sender], \"Caller is not an admin\") */\n      tag_143\n      jumpi\n      mload(0x40)\n      0x08c379a000000000000000000000000000000000000000000000000000000000\n      dup2\n      mstore\n      0x04\n      add\n      tag_144\n      swap1\n      tag_64\n      jump\t// in\n    tag_144:\n      mload(0x40)\n      dup1\n      swap2\n      sub\n      swap1\n      revert\n    tag_143:\n        /* \"contracts/Admin.sol\":1745:1756  routeExists */\n      0x04\n        /* \"contracts/Admin.sol\":1745:1765  routeExists[routeId] */\n      0x00\n        /* \"contracts/Admin.sol\":1757:1764  routeId */\n      dup3\n        /* \"contracts/Admin.sol\":1745:1765  routeExists[routeId] */\n      dup2\n      mstore\n      0x20\n      add\n      swap1\n      dup2\n      mstore\n      0x20\n      add\n      0x00\n      keccak256\n      0x00\n      swap1\n      sload\n      swap1\n      0x0100\n      exp\n      swap1\n      div\n      0xff\n      and\n        /* \"contracts/Admin.sol\":1737:1789  require(routeExists[routeId], \"Route doesn't exist\") */\n      tag_146\n      jumpi\n      mload(0x40)\n      0x08c379a000000000000000000000000000000000000000000000000000000000\n      dup2\n      mstore\n      0x04\n      add\n      tag_147\n      swap1\n      tag_68\n      jump\t// in\n    tag_147:\n      mload(0x40)\n      dup1\n      swap2\n      sub\n      swap1\n      revert\n    tag_146:\n        /* \"contracts/Admin.sol\":1804:1818  uint256 slotId */\n      0x00\n        /* \"contracts/Admin.sol\":1821:1822  1 */\n      0x01\n        /* \"contracts/Admin.sol\":1804:1822  uint256 slotId = 1 */\n      swap1\n      pop\n        /* \"contracts/Admin.sol\":1800:2087  for(uint256 slotId = 1; slotId <= _totalRoutes.current();slotId++){... */\n    tag_148:\n        /* \"contracts/Admin.sol\":1834:1856  _totalRoutes.current() */\n      tag_151\n        /* \"contracts/Admin.sol\":1834:1846  _totalRoutes */\n      0x01\n        /* \"contracts/Admin.sol\":1834:1854  _totalRoutes.current */\n      tag_79\n        /* \"contracts/Admin.sol\":1834:1856  _totalRoutes.current() */\n      jump\t// in\n    tag_151:\n        /* \"contracts/Admin.sol\":1824:1830  slotId */\n      dup2\n        /* \"contracts/Admin.sol\":1824:1856  slotId <= _totalRoutes.current() */\n      gt\n        /* \"contracts/Admin.sol\":1800:2087  for(uint256 slotId = 1; slotId <= _totalRoutes.current();slotId++){... */\n      tag_149\n      jumpi\n        /* \"contracts/Admin.sol\":1881:1906  address [] memory holders */\n      0x00\n        /* \"contracts/Admin.sol\":1909:1922  ticketHolders */\n      0x06\n        /* \"contracts/Admin.sol\":1909:1931  ticketHolders[routeId] */\n      0x00\n        /* \"contracts/Admin.sol\":1923:1930  routeId */\n      dup5\n        /* \"contracts/Admin.sol\":1909:1931  ticketHolders[routeId] */\n      dup2\n      mstore\n      0x20\n      add\n      swap1\n      dup2\n      mstore\n      0x20\n      add\n      0x00\n      keccak256\n        /* \"contracts/Admin.sol\":1909:1939  ticketHolders[routeId][slotId] */\n      0x00\n        /* \"contracts/Admin.sol\":1932:1938  slotId */\n      dup4\n        /* \"contracts/Admin.sol\":1909:1939  ticketHolders[routeId][slotId] */\n      dup2\n      mstore\n      0x20\n      add\n      swap1\n      dup2\n      mstore\n      0x20\n      add\n      0x00\n      keccak256\n        /* \"contracts/Admin.sol\":1881:1939  address [] memory holders = ticketHolders[routeId][slotId] */\n      dup1\n      sload\n      dup1\n      0x20\n      mul\n      0x20\n      add\n      mload(0x40)\n      swap1\n      dup2\n      add\n      0x40\n      mstore\n      dup1\n      swap3\n      swap2\n      swap1\n      dup2\n      dup2\n      mstore\n      0x20\n      add\n      dup3\n      dup1\n      sload\n      dup1\n      iszero\n      tag_152\n      jumpi\n      0x20\n      mul\n      dup3\n      add\n      swap2\n      swap1\n      0x00\n      mstore\n      keccak256(0x00, 0x20)\n      swap1\n    tag_153:\n      dup2\n      0x00\n      swap1\n      sload\n      swap1\n      0x0100\n      exp\n      swap1\n      div\n      0xffffffffffffffffffffffffffffffffffffffff\n      and\n      0xffffffffffffffffffffffffffffffffffffffff\n      and\n      dup2\n      mstore\n      0x20\n      add\n      swap1\n      0x01\n      add\n      swap1\n      dup1\n      dup4\n      gt\n      tag_153\n      jumpi\n    tag_152:\n      pop\n      pop\n      pop\n      pop\n      pop\n      swap1\n      pop\n        /* \"contracts/Admin.sol\":1998:1999  0 */\n      0x00\n        /* \"contracts/Admin.sol\":1980:1987  holders */\n      dup2\n        /* \"contracts/Admin.sol\":1980:1994  holders.length */\n      mload\n        /* \"contracts/Admin.sol\":1980:1999  holders.length == 0 */\n      eq\n        /* \"contracts/Admin.sol\":1954:2075  require(... */\n      tag_154\n      jumpi\n      mload(0x40)\n      0x08c379a000000000000000000000000000000000000000000000000000000000\n      dup2\n      mstore\n      0x04\n      add\n      tag_155\n      swap1\n      tag_156\n      jump\t// in\n    tag_155:\n      mload(0x40)\n      dup1\n      swap2\n      sub\n      swap1\n      revert\n    tag_154:\n        /* \"contracts/Admin.sol\":1866:2087  {... */\n      pop\n        /* \"contracts/Admin.sol\":1857:1865  slotId++ */\n      dup1\n      dup1\n      tag_157\n      swap1\n      tag_84\n      jump\t// in\n    tag_157:\n      swap2\n      pop\n      pop\n        /* \"contracts/Admin.sol\":1800:2087  for(uint256 slotId = 1; slotId <= _totalRoutes.current();slotId++){... */\n      jump(tag_148)\n    tag_149:\n      pop\n        /* \"contracts/Admin.sol\":2125:2129  true */\n      0x01\n        /* \"contracts/Admin.sol\":2099:2105  routes */\n      0x05\n        /* \"contracts/Admin.sol\":2099:2114  routes[routeId] */\n      0x00\n        /* \"contracts/Admin.sol\":2106:2113  routeId */\n      dup4\n        /* \"contracts/Admin.sol\":2099:2114  routes[routeId] */\n      dup2\n      mstore\n      0x20\n      add\n      swap1\n      dup2\n      mstore\n      0x20\n      add\n      0x00\n      keccak256\n        /* \"contracts/Admin.sol\":2099:2122  routes[routeId].deleted */\n      0x05\n      add\n      0x00\n        /* \"contracts/Admin.sol\":2099:2129  routes[routeId].deleted = true */\n      0x0100\n      exp\n      dup2\n      sload\n      dup2\n      0xff\n      mul\n      not\n      and\n      swap1\n      dup4\n      iszero\n      iszero\n      mul\n      or\n      swap1\n      sstore\n      pop\n        /* \"contracts/Admin.sol\":2163:2168  false */\n      0x00\n        /* \"contracts/Admin.sol\":2140:2151  routeExists */\n      0x04\n        /* \"contracts/Admin.sol\":2140:2160  routeExists[routeId] */\n      0x00\n        /* \"contracts/Admin.sol\":2152:2159  routeId */\n      dup4\n        /* \"contracts/Admin.sol\":2140:2160  routeExists[routeId] */\n      dup2\n      mstore\n      0x20\n      add\n      swap1\n      dup2\n      mstore\n      0x20\n      add\n      0x00\n      keccak256\n      0x00\n        /* \"contracts/Admin.sol\":2140:2168  routeExists[routeId] = false */\n      0x0100\n      exp\n      dup2\n      sload\n      dup2\n      0xff\n      mul\n      not\n      and\n      swap1\n      dup4\n      iszero\n      iszero\n      mul\n      or\n      swap1\n      sstore\n      pop\n        /* \"contracts/Admin.sol\":2186:2211  Action(\"Deleted a route\") */\n      0x8b2c14fe955d044ef95ba32b88d2ceb87c6f73fcefdcebe906063a6d75690f27\n      mload(0x40)\n      tag_158\n      swap1\n      tag_159\n      jump\t// in\n    tag_158:\n      mload(0x40)\n      dup1\n      swap2\n      sub\n      swap1\n      log1\n        /* \"contracts/Admin.sol\":1671:2227  function deleteRoute(uint256 routeId) public onlyAdmin {... */\n      pop\n      jump\t// out\n        /* \"contracts/Admin.sol\":165:187  uint256 public balance */\n    tag_51:\n      sload(0x00)\n      dup2\n      jump\t// out\n        /* \"contracts/Admin.sol\":999:1663  function addRoute(... */\n    tag_57:\n        /* \"contracts/Admin.sol\":680:687  isAdmin */\n      0x03\n        /* \"contracts/Admin.sol\":680:699  isAdmin[msg.sender] */\n      0x00\n        /* \"contracts/Admin.sol\":688:698  msg.sender */\n      caller\n        /* \"contracts/Admin.sol\":680:699  isAdmin[msg.sender] */\n      0xffffffffffffffffffffffffffffffffffffffff\n      and\n      0xffffffffffffffffffffffffffffffffffffffff\n      and\n      dup2\n      mstore\n      0x20\n      add\n      swap1\n      dup2\n      mstore\n      0x20\n      add\n      0x00\n      keccak256\n      0x00\n      swap1\n      sload\n      swap1\n      0x0100\n      exp\n      swap1\n      div\n      0xff\n      and\n        /* \"contracts/Admin.sol\":672:726  require(isAdmin[msg.sender], \"Caller is not an admin\") */\n      tag_161\n      jumpi\n      mload(0x40)\n      0x08c379a000000000000000000000000000000000000000000000000000000000\n      dup2\n      mstore\n      0x04\n      add\n      tag_162\n      swap1\n      tag_64\n      jump\t// in\n    tag_162:\n      mload(0x40)\n      dup1\n      swap2\n      sub\n      swap1\n      revert\n    tag_161:\n        /* \"contracts/Admin.sol\":1175:1176  0 */\n      0x00\n        /* \"contracts/Admin.sol\":1160:1164  name */\n      dup4\n        /* \"contracts/Admin.sol\":1154:1172  bytes(name).length */\n      mload\n        /* \"contracts/Admin.sol\":1154:1176  bytes(name).length > 0 */\n      gt\n        /* \"contracts/Admin.sol\":1146:1203  require(bytes(name).length > 0, \"Name must not be empty\") */\n      tag_164\n      jumpi\n      mload(0x40)\n      0x08c379a000000000000000000000000000000000000000000000000000000000\n      dup2\n      mstore\n      0x04\n      add\n      tag_165\n      swap1\n      tag_71\n      jump\t// in\n    tag_165:\n      mload(0x40)\n      dup1\n      swap2\n      sub\n      swap1\n      revert\n    tag_164:\n        /* \"contracts/Admin.sol\":1234:1235  0 */\n      0x00\n        /* \"contracts/Admin.sol\":1222:1230  distance */\n      dup2\n        /* \"contracts/Admin.sol\":1222:1235  distance == 0 */\n      eq\n        /* \"contracts/Admin.sol\":1214:1266  require(distance == 0, \"Distance must not be empty\") */\n      tag_166\n      jumpi\n      mload(0x40)\n      0x08c379a000000000000000000000000000000000000000000000000000000000\n      dup2\n      mstore\n      0x04\n      add\n      tag_167\n      swap1\n      tag_74\n      jump\t// in\n    tag_167:\n      mload(0x40)\n      dup1\n      swap2\n      sub\n      swap1\n      revert\n    tag_166:\n        /* \"contracts/Admin.sol\":1277:1301  _totalRoutes.increment() */\n      tag_168\n        /* \"contracts/Admin.sol\":1277:1289  _totalRoutes */\n      0x01\n        /* \"contracts/Admin.sol\":1277:1299  _totalRoutes.increment */\n      tag_169\n        /* \"contracts/Admin.sol\":1277:1301  _totalRoutes.increment() */\n      jump\t// in\n    tag_168:\n        /* \"contracts/Admin.sol\":1314:1332  Route memory route */\n      tag_170\n      tag_119\n      jump\t// in\n    tag_170:\n        /* \"contracts/Admin.sol\":1354:1376  _totalRoutes.current() */\n      tag_171\n        /* \"contracts/Admin.sol\":1354:1366  _totalRoutes */\n      0x01\n        /* \"contracts/Admin.sol\":1354:1374  _totalRoutes.current */\n      tag_79\n        /* \"contracts/Admin.sol\":1354:1376  _totalRoutes.current() */\n      jump\t// in\n    tag_171:\n        /* \"contracts/Admin.sol\":1343:1348  route */\n      dup2\n        /* \"contracts/Admin.sol\":1343:1351  route.id */\n      0x00\n      add\n        /* \"contracts/Admin.sol\":1343:1376  route.id = _totalRoutes.current() */\n      dup2\n      dup2\n      mstore\n      pop\n      pop\n        /* \"contracts/Admin.sol\":1400:1404  name */\n      dup4\n        /* \"contracts/Admin.sol\":1387:1392  route */\n      dup2\n        /* \"contracts/Admin.sol\":1387:1397  route.name */\n      0x20\n      add\n        /* \"contracts/Admin.sol\":1387:1404  route.name = name */\n      dup2\n      swap1\n      mstore\n      pop\n        /* \"contracts/Admin.sol\":1435:1446  description */\n      dup3\n        /* \"contracts/Admin.sol\":1415:1420  route */\n      dup2\n        /* \"contracts/Admin.sol\":1415:1432  route.description */\n      0x60\n      add\n        /* \"contracts/Admin.sol\":1415:1446  route.description = description */\n      dup2\n      swap1\n      mstore\n      pop\n        /* \"contracts/Admin.sol\":1474:1482  distance */\n      dup2\n        /* \"contracts/Admin.sol\":1457:1462  route */\n      dup2\n        /* \"contracts/Admin.sol\":1457:1471  route.distance */\n      0x40\n      add\n        /* \"contracts/Admin.sol\":1457:1482  route.distance = distance */\n      dup2\n      dup2\n      mstore\n      pop\n      pop\n        /* \"contracts/Admin.sol\":1511:1524  currentTime() */\n      tag_172\n        /* \"contracts/Admin.sol\":1511:1522  currentTime */\n      tag_173\n        /* \"contracts/Admin.sol\":1511:1524  currentTime() */\n      jump\t// in\n    tag_172:\n        /* \"contracts/Admin.sol\":1493:1498  route */\n      dup2\n        /* \"contracts/Admin.sol\":1493:1508  route.timestamp */\n      0x80\n      add\n        /* \"contracts/Admin.sol\":1493:1524  route.timestamp = currentTime() */\n      dup2\n      dup2\n      mstore\n      pop\n      pop\n        /* \"contracts/Admin.sol\":1564:1569  route */\n      dup1\n        /* \"contracts/Admin.sol\":1545:1551  routes */\n      0x05\n        /* \"contracts/Admin.sol\":1545:1561  routes[route.id] */\n      0x00\n        /* \"contracts/Admin.sol\":1552:1557  route */\n      dup4\n        /* \"contracts/Admin.sol\":1552:1560  route.id */\n      0x00\n      add\n      mload\n        /* \"contracts/Admin.sol\":1545:1561  routes[route.id] */\n      dup2\n      mstore\n      0x20\n      add\n      swap1\n      dup2\n      mstore\n      0x20\n      add\n      0x00\n      keccak256\n        /* \"contracts/Admin.sol\":1545:1569  routes[route.id] = route */\n      0x00\n      dup3\n      add\n      mload\n      dup2\n      0x00\n      add\n      sstore\n      0x20\n      dup3\n      add\n      mload\n      dup2\n      0x01\n      add\n      swap1\n      dup2\n      tag_174\n      swap2\n      swap1\n      tag_86\n      jump\t// in\n    tag_174:\n      pop\n      0x40\n      dup3\n      add\n      mload\n      dup2\n      0x02\n      add\n      sstore\n      0x60\n      dup3\n      add\n      mload\n      dup2\n      0x03\n      add\n      swap1\n      dup2\n      tag_175\n      swap2\n      swap1\n      tag_86\n      jump\t// in\n    tag_175:\n      pop\n      0x80\n      dup3\n      add\n      mload\n      dup2\n      0x04\n      add\n      sstore\n      0xa0\n      dup3\n      add\n      mload\n      dup2\n      0x05\n      add\n      exp(0x0100, 0x00)\n      dup2\n      sload\n      dup2\n      0xff\n      mul\n      not\n      and\n      swap1\n      dup4\n      iszero\n      iszero\n      mul\n      or\n      swap1\n      sstore\n      pop\n      swap1\n      pop\n      pop\n        /* \"contracts/Admin.sol\":1604:1608  true */\n      0x01\n        /* \"contracts/Admin.sol\":1580:1591  routeExists */\n      0x04\n        /* \"contracts/Admin.sol\":1580:1601  routeExists[route.id] */\n      0x00\n        /* \"contracts/Admin.sol\":1592:1597  route */\n      dup4\n        /* \"contracts/Admin.sol\":1592:1600  route.id */\n      0x00\n      add\n      mload\n        /* \"contracts/Admin.sol\":1580:1601  routeExists[route.id] */\n      dup2\n      mstore\n      0x20\n      add\n      swap1\n      dup2\n      mstore\n      0x20\n      add\n      0x00\n      keccak256\n      0x00\n        /* \"contracts/Admin.sol\":1580:1608  routeExists[route.id] = true */\n      0x0100\n      exp\n      dup2\n      sload\n      dup2\n      0xff\n      mul\n      not\n      and\n      swap1\n      dup4\n      iszero\n      iszero\n      mul\n      or\n      swap1\n      sstore\n      pop\n        /* \"contracts/Admin.sol\":1624:1653  Action(\"Created a new Route\") */\n      0x8b2c14fe955d044ef95ba32b88d2ceb87c6f73fcefdcebe906063a6d75690f27\n      mload(0x40)\n      tag_176\n      swap1\n      tag_177\n      jump\t// in\n    tag_176:\n      mload(0x40)\n      dup1\n      swap2\n      sub\n      swap1\n      log1\n        /* \"contracts/Admin.sol\":1135:1663  {... */\n      pop\n        /* \"contracts/Admin.sol\":999:1663  function addRoute(... */\n      pop\n      pop\n      pop\n      jump\t// out\n        /* \"@openzeppelin/contracts/utils/Counters.sol\":827:939  function current(Counter storage counter) internal view returns (uint256) {... */\n    tag_79:\n        /* \"@openzeppelin/contracts/utils/Counters.sol\":892:899  uint256 */\n      0x00\n        /* \"@openzeppelin/contracts/utils/Counters.sol\":918:925  counter */\n      dup2\n        /* \"@openzeppelin/contracts/utils/Counters.sol\":918:932  counter._value */\n      0x00\n      add\n      sload\n        /* \"@openzeppelin/contracts/utils/Counters.sol\":911:932  return counter._value */\n      swap1\n      pop\n        /* \"@openzeppelin/contracts/utils/Counters.sol\":827:939  function current(Counter storage counter) internal view returns (uint256) {... */\n      swap2\n      swap1\n      pop\n      jump\t// out\n        /* \"contracts/Admin.sol\":4007:4249  function payTo(address reciever, uint256 amount) internal { ... */\n    tag_100:\n        /* \"contracts/Admin.sol\":4105:4106  0 */\n      0x00\n        /* \"contracts/Admin.sol\":4085:4107  reciever != address(0) */\n      0xffffffffffffffffffffffffffffffffffffffff\n      and\n        /* \"contracts/Admin.sol\":4085:4093  reciever */\n      dup3\n        /* \"contracts/Admin.sol\":4085:4107  reciever != address(0) */\n      0xffffffffffffffffffffffffffffffffffffffff\n      and\n      sub\n        /* \"contracts/Admin.sol\":4077:4143  require(reciever != address(0), \"Reciver must be a valid address\") */\n      tag_180\n      jumpi\n      mload(0x40)\n      0x08c379a000000000000000000000000000000000000000000000000000000000\n      dup2\n      mstore\n      0x04\n      add\n      tag_181\n      swap1\n      tag_182\n      jump\t// in\n    tag_181:\n      mload(0x40)\n      dup1\n      swap2\n      sub\n      swap1\n      revert\n    tag_180:\n        /* \"contracts/Admin.sol\":4155:4167  bool success */\n      0x00\n        /* \"contracts/Admin.sol\":4181:4189  reciever */\n      dup3\n        /* \"contracts/Admin.sol\":4173:4195  payable(reciever).call */\n      0xffffffffffffffffffffffffffffffffffffffff\n      and\n        /* \"contracts/Admin.sol\":4203:4209  amount */\n      dup3\n        /* \"contracts/Admin.sol\":4173:4214  payable(reciever).call{value: amount}(\"\") */\n      mload(0x40)\n      tag_183\n      swap1\n      tag_184\n      jump\t// in\n    tag_183:\n      0x00\n      mload(0x40)\n      dup1\n      dup4\n      sub\n      dup2\n      dup6\n      dup8\n      gas\n      call\n      swap3\n      pop\n      pop\n      pop\n      returndatasize\n      dup1\n      0x00\n      dup2\n      eq\n      tag_187\n      jumpi\n      mload(0x40)\n      swap2\n      pop\n      and(add(returndatasize, 0x3f), not(0x1f))\n      dup3\n      add\n      0x40\n      mstore\n      returndatasize\n      dup3\n      mstore\n      returndatasize\n      0x00\n      0x20\n      dup5\n      add\n      returndatacopy\n      jump(tag_186)\n    tag_187:\n      0x60\n      swap2\n      pop\n    tag_186:\n      pop\n        /* \"contracts/Admin.sol\":4154:4214  (bool success, ) = payable(reciever).call{value: amount}(\"\") */\n      pop\n      swap1\n      pop\n        /* \"contracts/Admin.sol\":4233:4240  success */\n      dup1\n        /* \"contracts/Admin.sol\":4225:4241  require(success) */\n      tag_188\n      jumpi\n      0x00\n      dup1\n      revert\n    tag_188:\n        /* \"contracts/Admin.sol\":4065:4249  { ... */\n      pop\n        /* \"contracts/Admin.sol\":4007:4249  function payTo(address reciever, uint256 amount) internal { ... */\n      pop\n      pop\n      jump\t// out\n        /* \"@openzeppelin/contracts/utils/Counters.sol\":945:1068  function increment(Counter storage counter) internal {... */\n    tag_169:\n        /* \"@openzeppelin/contracts/utils/Counters.sol\":1050:1051  1 */\n      0x01\n        /* \"@openzeppelin/contracts/utils/Counters.sol\":1032:1039  counter */\n      dup2\n        /* \"@openzeppelin/contracts/utils/Counters.sol\":1032:1046  counter._value */\n      0x00\n      add\n      0x00\n        /* \"@openzeppelin/contracts/utils/Counters.sol\":1032:1051  counter._value += 1 */\n      dup3\n      dup3\n      sload\n      add\n      swap3\n      pop\n      pop\n      dup2\n      swap1\n      sstore\n      pop\n        /* \"@openzeppelin/contracts/utils/Counters.sol\":945:1068  function increment(Counter storage counter) internal {... */\n      pop\n      jump\t// out\n        /* \"contracts/Admin.sol\":4257:4403  function currentTime() internal view returns (uint256) {... */\n    tag_173:\n        /* \"contracts/Admin.sol\":4303:4310  uint256 */\n      0x00\n        /* \"contracts/Admin.sol\":4323:4337  uint256 newNum */\n      dup1\n        /* \"contracts/Admin.sol\":4367:4371  1000 */\n      0x03e8\n        /* \"contracts/Admin.sol\":4359:4363  1000 */\n      dup1\n        /* \"contracts/Admin.sol\":4341:4356  block.timestamp */\n      timestamp\n        /* \"contracts/Admin.sol\":4341:4363  block.timestamp * 1000 */\n      tag_191\n      swap2\n      swap1\n      tag_192\n      jump\t// in\n    tag_191:\n        /* \"contracts/Admin.sol\":4340:4371  (block.timestamp * 1000) + 1000 */\n      tag_193\n      swap2\n      swap1\n      tag_194\n      jump\t// in\n    tag_193:\n        /* \"contracts/Admin.sol\":4323:4371  uint256 newNum = (block.timestamp * 1000) + 1000 */\n      swap1\n      pop\n        /* \"contracts/Admin.sol\":4389:4395  newNum */\n      dup1\n        /* \"contracts/Admin.sol\":4382:4395  return newNum */\n      swap2\n      pop\n      pop\n        /* \"contracts/Admin.sol\":4257:4403  function currentTime() internal view returns (uint256) {... */\n      swap1\n      jump\t// out\n    tag_119:\n      mload(0x40)\n      dup1\n      0xc0\n      add\n      0x40\n      mstore\n      dup1\n      0x00\n      dup2\n      mstore\n      0x20\n      add\n      0x60\n      dup2\n      mstore\n      0x20\n      add\n      0x00\n      dup2\n      mstore\n      0x20\n      add\n      0x60\n      dup2\n      mstore\n      0x20\n      add\n      0x00\n      dup2\n      mstore\n      0x20\n      add\n      iszero(iszero(0x00))\n      dup2\n      mstore\n      pop\n      swap1\n      jump\t// out\n        /* \"#utility.yul\":7:82   */\n    tag_195:\n        /* \"#utility.yul\":40:46   */\n      0x00\n        /* \"#utility.yul\":73:75   */\n      0x40\n        /* \"#utility.yul\":67:76   */\n      mload\n        /* \"#utility.yul\":57:76   */\n      swap1\n      pop\n        /* \"#utility.yul\":7:82   */\n      swap1\n      jump\t// out\n        /* \"#utility.yul\":88:205   */\n    tag_196:\n        /* \"#utility.yul\":197:198   */\n      0x00\n        /* \"#utility.yul\":194:195   */\n      dup1\n        /* \"#utility.yul\":187:199   */\n      revert\n        /* \"#utility.yul\":211:328   */\n    tag_197:\n        /* \"#utility.yul\":320:321   */\n      0x00\n        /* \"#utility.yul\":317:318   */\n      dup1\n        /* \"#utility.yul\":310:322   */\n      revert\n        /* \"#utility.yul\":334:411   */\n    tag_198:\n        /* \"#utility.yul\":371:378   */\n      0x00\n        /* \"#utility.yul\":400:405   */\n      dup2\n        /* \"#utility.yul\":389:405   */\n      swap1\n      pop\n        /* \"#utility.yul\":334:411   */\n      swap2\n      swap1\n      pop\n      jump\t// out\n        /* \"#utility.yul\":417:539   */\n    tag_199:\n        /* \"#utility.yul\":490:514   */\n      tag_288\n        /* \"#utility.yul\":508:513   */\n      dup2\n        /* \"#utility.yul\":490:514   */\n      tag_198\n      jump\t// in\n    tag_288:\n        /* \"#utility.yul\":483:488   */\n      dup2\n        /* \"#utility.yul\":480:515   */\n      eq\n        /* \"#utility.yul\":470:533   */\n      tag_289\n      jumpi\n        /* \"#utility.yul\":529:530   */\n      0x00\n        /* \"#utility.yul\":526:527   */\n      dup1\n        /* \"#utility.yul\":519:531   */\n      revert\n        /* \"#utility.yul\":470:533   */\n    tag_289:\n        /* \"#utility.yul\":417:539   */\n      pop\n      jump\t// out\n        /* \"#utility.yul\":545:684   */\n    tag_200:\n        /* \"#utility.yul\":591:596   */\n      0x00\n        /* \"#utility.yul\":629:635   */\n      dup2\n        /* \"#utility.yul\":616:636   */\n      calldataload\n        /* \"#utility.yul\":607:636   */\n      swap1\n      pop\n        /* \"#utility.yul\":645:678   */\n      tag_291\n        /* \"#utility.yul\":672:677   */\n      dup2\n        /* \"#utility.yul\":645:678   */\n      tag_199\n      jump\t// in\n    tag_291:\n        /* \"#utility.yul\":545:684   */\n      swap3\n      swap2\n      pop\n      pop\n      jump\t// out\n        /* \"#utility.yul\":690:1164   */\n    tag_16:\n        /* \"#utility.yul\":758:764   */\n      0x00\n        /* \"#utility.yul\":766:772   */\n      dup1\n        /* \"#utility.yul\":815:817   */\n      0x40\n        /* \"#utility.yul\":803:812   */\n      dup4\n        /* \"#utility.yul\":794:801   */\n      dup6\n        /* \"#utility.yul\":790:813   */\n      sub\n        /* \"#utility.yul\":786:818   */\n      slt\n        /* \"#utility.yul\":783:902   */\n      iszero\n      tag_293\n      jumpi\n        /* \"#utility.yul\":821:900   */\n      tag_294\n      tag_196\n      jump\t// in\n    tag_294:\n        /* \"#utility.yul\":783:902   */\n    tag_293:\n        /* \"#utility.yul\":941:942   */\n      0x00\n        /* \"#utility.yul\":966:1019   */\n      tag_295\n        /* \"#utility.yul\":1011:1018   */\n      dup6\n        /* \"#utility.yul\":1002:1008   */\n      dup3\n        /* \"#utility.yul\":991:1000   */\n      dup7\n        /* \"#utility.yul\":987:1009   */\n      add\n        /* \"#utility.yul\":966:1019   */\n      tag_200\n      jump\t// in\n    tag_295:\n        /* \"#utility.yul\":956:1019   */\n      swap3\n      pop\n        /* \"#utility.yul\":912:1029   */\n      pop\n        /* \"#utility.yul\":1068:1070   */\n      0x20\n        /* \"#utility.yul\":1094:1147   */\n      tag_296\n        /* \"#utility.yul\":1139:1146   */\n      dup6\n        /* \"#utility.yul\":1130:1136   */\n      dup3\n        /* \"#utility.yul\":1119:1128   */\n      dup7\n        /* \"#utility.yul\":1115:1137   */\n      add\n        /* \"#utility.yul\":1094:1147   */\n      tag_200\n      jump\t// in\n    tag_296:\n        /* \"#utility.yul\":1084:1147   */\n      swap2\n      pop\n        /* \"#utility.yul\":1039:1157   */\n      pop\n        /* \"#utility.yul\":690:1164   */\n      swap3\n      pop\n      swap3\n      swap1\n      pop\n      jump\t// out\n        /* \"#utility.yul\":1170:1284   */\n    tag_201:\n        /* \"#utility.yul\":1237:1243   */\n      0x00\n        /* \"#utility.yul\":1271:1276   */\n      dup2\n        /* \"#utility.yul\":1265:1277   */\n      mload\n        /* \"#utility.yul\":1255:1277   */\n      swap1\n      pop\n        /* \"#utility.yul\":1170:1284   */\n      swap2\n      swap1\n      pop\n      jump\t// out\n        /* \"#utility.yul\":1290:1474   */\n    tag_202:\n        /* \"#utility.yul\":1389:1400   */\n      0x00\n        /* \"#utility.yul\":1423:1429   */\n      dup3\n        /* \"#utility.yul\":1418:1421   */\n      dup3\n        /* \"#utility.yul\":1411:1430   */\n      mstore\n        /* \"#utility.yul\":1463:1467   */\n      0x20\n        /* \"#utility.yul\":1458:1461   */\n      dup3\n        /* \"#utility.yul\":1454:1468   */\n      add\n        /* \"#utility.yul\":1439:1468   */\n      swap1\n      pop\n        /* \"#utility.yul\":1290:1474   */\n      swap3\n      swap2\n      pop\n      pop\n      jump\t// out\n        /* \"#utility.yul\":1480:1612   */\n    tag_203:\n        /* \"#utility.yul\":1547:1551   */\n      0x00\n        /* \"#utility.yul\":1570:1573   */\n      dup2\n        /* \"#utility.yul\":1562:1573   */\n      swap1\n      pop\n        /* \"#utility.yul\":1600:1604   */\n      0x20\n        /* \"#utility.yul\":1595:1598   */\n      dup3\n        /* \"#utility.yul\":1591:1605   */\n      add\n        /* \"#utility.yul\":1583:1605   */\n      swap1\n      pop\n        /* \"#utility.yul\":1480:1612   */\n      swap2\n      swap1\n      pop\n      jump\t// out\n        /* \"#utility.yul\":1618:1744   */\n    tag_204:\n        /* \"#utility.yul\":1655:1662   */\n      0x00\n        /* \"#utility.yul\":1695:1737   */\n      0xffffffffffffffffffffffffffffffffffffffff\n        /* \"#utility.yul\":1688:1693   */\n      dup3\n        /* \"#utility.yul\":1684:1738   */\n      and\n        /* \"#utility.yul\":1673:1738   */\n      swap1\n      pop\n        /* \"#utility.yul\":1618:1744   */\n      swap2\n      swap1\n      pop\n      jump\t// out\n        /* \"#utility.yul\":1750:1846   */\n    tag_205:\n        /* \"#utility.yul\":1787:1794   */\n      0x00\n        /* \"#utility.yul\":1816:1840   */\n      tag_302\n        /* \"#utility.yul\":1834:1839   */\n      dup3\n        /* \"#utility.yul\":1816:1840   */\n      tag_204\n      jump\t// in\n    tag_302:\n        /* \"#utility.yul\":1805:1840   */\n      swap1\n      pop\n        /* \"#utility.yul\":1750:1846   */\n      swap2\n      swap1\n      pop\n      jump\t// out\n        /* \"#utility.yul\":1852:1960   */\n    tag_206:\n        /* \"#utility.yul\":1929:1953   */\n      tag_304\n        /* \"#utility.yul\":1947:1952   */\n      dup2\n        /* \"#utility.yul\":1929:1953   */\n      tag_205\n      jump\t// in\n    tag_304:\n        /* \"#utility.yul\":1924:1927   */\n      dup3\n        /* \"#utility.yul\":1917:1954   */\n      mstore\n        /* \"#utility.yul\":1852:1960   */\n      pop\n      pop\n      jump\t// out\n        /* \"#utility.yul\":1966:2145   */\n    tag_207:\n        /* \"#utility.yul\":2035:2045   */\n      0x00\n        /* \"#utility.yul\":2056:2102   */\n      tag_306\n        /* \"#utility.yul\":2098:2101   */\n      dup4\n        /* \"#utility.yul\":2090:2096   */\n      dup4\n        /* \"#utility.yul\":2056:2102   */\n      tag_206\n      jump\t// in\n    tag_306:\n        /* \"#utility.yul\":2134:2138   */\n      0x20\n        /* \"#utility.yul\":2129:2132   */\n      dup4\n        /* \"#utility.yul\":2125:2139   */\n      add\n        /* \"#utility.yul\":2111:2139   */\n      swap1\n      pop\n        /* \"#utility.yul\":1966:2145   */\n      swap3\n      swap2\n      pop\n      pop\n      jump\t// out\n        /* \"#utility.yul\":2151:2264   */\n    tag_208:\n        /* \"#utility.yul\":2221:2225   */\n      0x00\n        /* \"#utility.yul\":2253:2257   */\n      0x20\n        /* \"#utility.yul\":2248:2251   */\n      dup3\n        /* \"#utility.yul\":2244:2258   */\n      add\n        /* \"#utility.yul\":2236:2258   */\n      swap1\n      pop\n        /* \"#utility.yul\":2151:2264   */\n      swap2\n      swap1\n      pop\n      jump\t// out\n        /* \"#utility.yul\":2300:3032   */\n    tag_209:\n        /* \"#utility.yul\":2419:2422   */\n      0x00\n        /* \"#utility.yul\":2448:2502   */\n      tag_309\n        /* \"#utility.yul\":2496:2501   */\n      dup3\n        /* \"#utility.yul\":2448:2502   */\n      tag_201\n      jump\t// in\n    tag_309:\n        /* \"#utility.yul\":2518:2604   */\n      tag_310\n        /* \"#utility.yul\":2597:2603   */\n      dup2\n        /* \"#utility.yul\":2592:2595   */\n      dup6\n        /* \"#utility.yul\":2518:2604   */\n      tag_202\n      jump\t// in\n    tag_310:\n        /* \"#utility.yul\":2511:2604   */\n      swap4\n      pop\n        /* \"#utility.yul\":2628:2684   */\n      tag_311\n        /* \"#utility.yul\":2678:2683   */\n      dup4\n        /* \"#utility.yul\":2628:2684   */\n      tag_203\n      jump\t// in\n    tag_311:\n        /* \"#utility.yul\":2707:2714   */\n      dup1\n        /* \"#utility.yul\":2738:2739   */\n      0x00\n        /* \"#utility.yul\":2723:3007   */\n    tag_312:\n        /* \"#utility.yul\":2748:2754   */\n      dup4\n        /* \"#utility.yul\":2745:2746   */\n      dup2\n        /* \"#utility.yul\":2742:2755   */\n      lt\n        /* \"#utility.yul\":2723:3007   */\n      iszero\n      tag_314\n      jumpi\n        /* \"#utility.yul\":2824:2830   */\n      dup2\n        /* \"#utility.yul\":2818:2831   */\n      mload\n        /* \"#utility.yul\":2851:2914   */\n      tag_315\n        /* \"#utility.yul\":2910:2913   */\n      dup9\n        /* \"#utility.yul\":2895:2908   */\n      dup3\n        /* \"#utility.yul\":2851:2914   */\n      tag_207\n      jump\t// in\n    tag_315:\n        /* \"#utility.yul\":2844:2914   */\n      swap8\n      pop\n        /* \"#utility.yul\":2937:2997   */\n      tag_316\n        /* \"#utility.yul\":2990:2996   */\n      dup4\n        /* \"#utility.yul\":2937:2997   */\n      tag_208\n      jump\t// in\n    tag_316:\n        /* \"#utility.yul\":2927:2997   */\n      swap3\n      pop\n        /* \"#utility.yul\":2783:3007   */\n      pop\n        /* \"#utility.yul\":2770:2771   */\n      0x01\n        /* \"#utility.yul\":2767:2768   */\n      dup2\n        /* \"#utility.yul\":2763:2772   */\n      add\n        /* \"#utility.yul\":2758:2772   */\n      swap1\n      pop\n        /* \"#utility.yul\":2723:3007   */\n      jump(tag_312)\n    tag_314:\n        /* \"#utility.yul\":2727:2741   */\n      pop\n        /* \"#utility.yul\":3023:3026   */\n      dup6\n        /* \"#utility.yul\":3016:3026   */\n      swap4\n      pop\n        /* \"#utility.yul\":2424:3032   */\n      pop\n      pop\n      pop\n        /* \"#utility.yul\":2300:3032   */\n      swap3\n      swap2\n      pop\n      pop\n      jump\t// out\n        /* \"#utility.yul\":3038:3411   */\n    tag_19:\n        /* \"#utility.yul\":3181:3185   */\n      0x00\n        /* \"#utility.yul\":3219:3221   */\n      0x20\n        /* \"#utility.yul\":3208:3217   */\n      dup3\n        /* \"#utility.yul\":3204:3222   */\n      add\n        /* \"#utility.yul\":3196:3222   */\n      swap1\n      pop\n        /* \"#utility.yul\":3268:3277   */\n      dup2\n        /* \"#utility.yul\":3262:3266   */\n      dup2\n        /* \"#utility.yul\":3258:3278   */\n      sub\n        /* \"#utility.yul\":3254:3255   */\n      0x00\n        /* \"#utility.yul\":3243:3252   */\n      dup4\n        /* \"#utility.yul\":3239:3256   */\n      add\n        /* \"#utility.yul\":3232:3279   */\n      mstore\n        /* \"#utility.yul\":3296:3404   */\n      tag_318\n        /* \"#utility.yul\":3399:3403   */\n      dup2\n        /* \"#utility.yul\":3390:3396   */\n      dup5\n        /* \"#utility.yul\":3296:3404   */\n      tag_209\n      jump\t// in\n    tag_318:\n        /* \"#utility.yul\":3288:3404   */\n      swap1\n      pop\n        /* \"#utility.yul\":3038:3411   */\n      swap3\n      swap2\n      pop\n      pop\n      jump\t// out\n        /* \"#utility.yul\":3417:3534   */\n    tag_210:\n        /* \"#utility.yul\":3526:3527   */\n      0x00\n        /* \"#utility.yul\":3523:3524   */\n      dup1\n        /* \"#utility.yul\":3516:3528   */\n      revert\n        /* \"#utility.yul\":3540:3657   */\n    tag_211:\n        /* \"#utility.yul\":3649:3650   */\n      0x00\n        /* \"#utility.yul\":3646:3647   */\n      dup1\n        /* \"#utility.yul\":3639:3651   */\n      revert\n        /* \"#utility.yul\":3663:3765   */\n    tag_212:\n        /* \"#utility.yul\":3704:3710   */\n      0x00\n        /* \"#utility.yul\":3755:3757   */\n      0x1f\n        /* \"#utility.yul\":3751:3758   */\n      not\n        /* \"#utility.yul\":3746:3748   */\n      0x1f\n        /* \"#utility.yul\":3739:3744   */\n      dup4\n        /* \"#utility.yul\":3735:3749   */\n      add\n        /* \"#utility.yul\":3731:3759   */\n      and\n        /* \"#utility.yul\":3721:3759   */\n      swap1\n      pop\n        /* \"#utility.yul\":3663:3765   */\n      swap2\n      swap1\n      pop\n      jump\t// out\n        /* \"#utility.yul\":3771:3951   */\n    tag_115:\n        /* \"#utility.yul\":3819:3896   */\n      0x4e487b7100000000000000000000000000000000000000000000000000000000\n        /* \"#utility.yul\":3816:3817   */\n      0x00\n        /* \"#utility.yul\":3809:3897   */\n      mstore\n        /* \"#utility.yul\":3916:3920   */\n      0x41\n        /* \"#utility.yul\":3913:3914   */\n      0x04\n        /* \"#utility.yul\":3906:3921   */\n      mstore\n        /* \"#utility.yul\":3940:3944   */\n      0x24\n        /* \"#utility.yul\":3937:3938   */\n      0x00\n        /* \"#utility.yul\":3930:3945   */\n      revert\n        /* \"#utility.yul\":3957:4238   */\n    tag_213:\n        /* \"#utility.yul\":4040:4067   */\n      tag_324\n        /* \"#utility.yul\":4062:4066   */\n      dup3\n        /* \"#utility.yul\":4040:4067   */\n      tag_212\n      jump\t// in\n    tag_324:\n        /* \"#utility.yul\":4032:4038   */\n      dup2\n        /* \"#utility.yul\":4028:4068   */\n      add\n        /* \"#utility.yul\":4170:4176   */\n      dup2\n        /* \"#utility.yul\":4158:4168   */\n      dup2\n        /* \"#utility.yul\":4155:4177   */\n      lt\n        /* \"#utility.yul\":4134:4152   */\n      0xffffffffffffffff\n        /* \"#utility.yul\":4122:4132   */\n      dup3\n        /* \"#utility.yul\":4119:4153   */\n      gt\n        /* \"#utility.yul\":4116:4178   */\n      or\n        /* \"#utility.yul\":4113:4201   */\n      iszero\n      tag_325\n      jumpi\n        /* \"#utility.yul\":4181:4199   */\n      tag_326\n      tag_115\n      jump\t// in\n    tag_326:\n        /* \"#utility.yul\":4113:4201   */\n    tag_325:\n        /* \"#utility.yul\":4221:4231   */\n      dup1\n        /* \"#utility.yul\":4217:4219   */\n      0x40\n        /* \"#utility.yul\":4210:4232   */\n      mstore\n        /* \"#utility.yul\":4000:4238   */\n      pop\n        /* \"#utility.yul\":3957:4238   */\n      pop\n      pop\n      jump\t// out\n        /* \"#utility.yul\":4244:4373   */\n    tag_214:\n        /* \"#utility.yul\":4278:4284   */\n      0x00\n        /* \"#utility.yul\":4305:4325   */\n      tag_328\n      tag_195\n      jump\t// in\n    tag_328:\n        /* \"#utility.yul\":4295:4325   */\n      swap1\n      pop\n        /* \"#utility.yul\":4334:4367   */\n      tag_329\n        /* \"#utility.yul\":4362:4366   */\n      dup3\n        /* \"#utility.yul\":4354:4360   */\n      dup3\n        /* \"#utility.yul\":4334:4367   */\n      tag_213\n      jump\t// in\n    tag_329:\n        /* \"#utility.yul\":4244:4373   */\n      swap2\n      swap1\n      pop\n      jump\t// out\n        /* \"#utility.yul\":4379:4687   */\n    tag_215:\n        /* \"#utility.yul\":4441:4445   */\n      0x00\n        /* \"#utility.yul\":4531:4549   */\n      0xffffffffffffffff\n        /* \"#utility.yul\":4523:4529   */\n      dup3\n        /* \"#utility.yul\":4520:4550   */\n      gt\n        /* \"#utility.yul\":4517:4573   */\n      iszero\n      tag_331\n      jumpi\n        /* \"#utility.yul\":4553:4571   */\n      tag_332\n      tag_115\n      jump\t// in\n    tag_332:\n        /* \"#utility.yul\":4517:4573   */\n    tag_331:\n        /* \"#utility.yul\":4591:4620   */\n      tag_333\n        /* \"#utility.yul\":4613:4619   */\n      dup3\n        /* \"#utility.yul\":4591:4620   */\n      tag_212\n      jump\t// in\n    tag_333:\n        /* \"#utility.yul\":4583:4620   */\n      swap1\n      pop\n        /* \"#utility.yul\":4675:4679   */\n      0x20\n        /* \"#utility.yul\":4669:4673   */\n      dup2\n        /* \"#utility.yul\":4665:4680   */\n      add\n        /* \"#utility.yul\":4657:4680   */\n      swap1\n      pop\n        /* \"#utility.yul\":4379:4687   */\n      swap2\n      swap1\n      pop\n      jump\t// out\n        /* \"#utility.yul\":4693:4841   */\n    tag_216:\n        /* \"#utility.yul\":4791:4797   */\n      dup3\n        /* \"#utility.yul\":4786:4789   */\n      dup2\n        /* \"#utility.yul\":4781:4784   */\n      dup4\n        /* \"#utility.yul\":4768:4798   */\n      calldatacopy\n        /* \"#utility.yul\":4832:4833   */\n      0x00\n        /* \"#utility.yul\":4823:4829   */\n      dup4\n        /* \"#utility.yul\":4818:4821   */\n      dup4\n        /* \"#utility.yul\":4814:4830   */\n      add\n        /* \"#utility.yul\":4807:4834   */\n      mstore\n        /* \"#utility.yul\":4693:4841   */\n      pop\n      pop\n      pop\n      jump\t// out\n        /* \"#utility.yul\":4847:5272   */\n    tag_217:\n        /* \"#utility.yul\":4925:4930   */\n      0x00\n        /* \"#utility.yul\":4950:5016   */\n      tag_336\n        /* \"#utility.yul\":4966:5015   */\n      tag_337\n        /* \"#utility.yul\":5008:5014   */\n      dup5\n        /* \"#utility.yul\":4966:5015   */\n      tag_215\n      jump\t// in\n    tag_337:\n        /* \"#utility.yul\":4950:5016   */\n      tag_214\n      jump\t// in\n    tag_336:\n        /* \"#utility.yul\":4941:5016   */\n      swap1\n      pop\n        /* \"#utility.yul\":5039:5045   */\n      dup3\n        /* \"#utility.yul\":5032:5037   */\n      dup2\n        /* \"#utility.yul\":5025:5046   */\n      mstore\n        /* \"#utility.yul\":5077:5081   */\n      0x20\n        /* \"#utility.yul\":5070:5075   */\n      dup2\n        /* \"#utility.yul\":5066:5082   */\n      add\n        /* \"#utility.yul\":5115:5118   */\n      dup5\n        /* \"#utility.yul\":5106:5112   */\n      dup5\n        /* \"#utility.yul\":5101:5104   */\n      dup5\n        /* \"#utility.yul\":5097:5113   */\n      add\n        /* \"#utility.yul\":5094:5119   */\n      gt\n        /* \"#utility.yul\":5091:5203   */\n      iszero\n      tag_338\n      jumpi\n        /* \"#utility.yul\":5122:5201   */\n      tag_339\n      tag_211\n      jump\t// in\n    tag_339:\n        /* \"#utility.yul\":5091:5203   */\n    tag_338:\n        /* \"#utility.yul\":5212:5266   */\n      tag_340\n        /* \"#utility.yul\":5259:5265   */\n      dup5\n        /* \"#utility.yul\":5254:5257   */\n      dup3\n        /* \"#utility.yul\":5249:5252   */\n      dup6\n        /* \"#utility.yul\":5212:5266   */\n      tag_216\n      jump\t// in\n    tag_340:\n        /* \"#utility.yul\":4931:5272   */\n      pop\n        /* \"#utility.yul\":4847:5272   */\n      swap4\n      swap3\n      pop\n      pop\n      pop\n      jump\t// out\n        /* \"#utility.yul\":5292:5632   */\n    tag_218:\n        /* \"#utility.yul\":5348:5353   */\n      0x00\n        /* \"#utility.yul\":5397:5400   */\n      dup3\n        /* \"#utility.yul\":5390:5394   */\n      0x1f\n        /* \"#utility.yul\":5382:5388   */\n      dup4\n        /* \"#utility.yul\":5378:5395   */\n      add\n        /* \"#utility.yul\":5374:5401   */\n      slt\n        /* \"#utility.yul\":5364:5486   */\n      tag_342\n      jumpi\n        /* \"#utility.yul\":5405:5484   */\n      tag_343\n      tag_210\n      jump\t// in\n    tag_343:\n        /* \"#utility.yul\":5364:5486   */\n    tag_342:\n        /* \"#utility.yul\":5522:5528   */\n      dup2\n        /* \"#utility.yul\":5509:5529   */\n      calldataload\n        /* \"#utility.yul\":5547:5626   */\n      tag_344\n        /* \"#utility.yul\":5622:5625   */\n      dup5\n        /* \"#utility.yul\":5614:5620   */\n      dup3\n        /* \"#utility.yul\":5607:5611   */\n      0x20\n        /* \"#utility.yul\":5599:5605   */\n      dup7\n        /* \"#utility.yul\":5595:5612   */\n      add\n        /* \"#utility.yul\":5547:5626   */\n      tag_217\n      jump\t// in\n    tag_344:\n        /* \"#utility.yul\":5538:5626   */\n      swap2\n      pop\n        /* \"#utility.yul\":5354:5632   */\n      pop\n        /* \"#utility.yul\":5292:5632   */\n      swap3\n      swap2\n      pop\n      pop\n      jump\t// out\n        /* \"#utility.yul\":5638:6763   */\n    tag_22:\n        /* \"#utility.yul\":5744:5750   */\n      0x00\n        /* \"#utility.yul\":5752:5758   */\n      dup1\n        /* \"#utility.yul\":5760:5766   */\n      0x00\n        /* \"#utility.yul\":5768:5774   */\n      dup1\n        /* \"#utility.yul\":5817:5820   */\n      0x80\n        /* \"#utility.yul\":5805:5814   */\n      dup6\n        /* \"#utility.yul\":5796:5803   */\n      dup8\n        /* \"#utility.yul\":5792:5815   */\n      sub\n        /* \"#utility.yul\":5788:5821   */\n      slt\n        /* \"#utility.yul\":5785:5905   */\n      iszero\n      tag_346\n      jumpi\n        /* \"#utility.yul\":5824:5903   */\n      tag_347\n      tag_196\n      jump\t// in\n    tag_347:\n        /* \"#utility.yul\":5785:5905   */\n    tag_346:\n        /* \"#utility.yul\":5944:5945   */\n      0x00\n        /* \"#utility.yul\":5969:6022   */\n      tag_348\n        /* \"#utility.yul\":6014:6021   */\n      dup8\n        /* \"#utility.yul\":6005:6011   */\n      dup3\n        /* \"#utility.yul\":5994:6003   */\n      dup9\n        /* \"#utility.yul\":5990:6012   */\n      add\n        /* \"#utility.yul\":5969:6022   */\n      tag_200\n      jump\t// in\n    tag_348:\n        /* \"#utility.yul\":5959:6022   */\n      swap5\n      pop\n        /* \"#utility.yul\":5915:6032   */\n      pop\n        /* \"#utility.yul\":6099:6101   */\n      0x20\n        /* \"#utility.yul\":6088:6097   */\n      dup6\n        /* \"#utility.yul\":6084:6102   */\n      add\n        /* \"#utility.yul\":6071:6103   */\n      calldataload\n        /* \"#utility.yul\":6130:6148   */\n      0xffffffffffffffff\n        /* \"#utility.yul\":6122:6128   */\n      dup2\n        /* \"#utility.yul\":6119:6149   */\n      gt\n        /* \"#utility.yul\":6116:6233   */\n      iszero\n      tag_349\n      jumpi\n        /* \"#utility.yul\":6152:6231   */\n      tag_350\n      tag_197\n      jump\t// in\n    tag_350:\n        /* \"#utility.yul\":6116:6233   */\n    tag_349:\n        /* \"#utility.yul\":6257:6320   */\n      tag_351\n        /* \"#utility.yul\":6312:6319   */\n      dup8\n        /* \"#utility.yul\":6303:6309   */\n      dup3\n        /* \"#utility.yul\":6292:6301   */\n      dup9\n        /* \"#utility.yul\":6288:6310   */\n      add\n        /* \"#utility.yul\":6257:6320   */\n      tag_218\n      jump\t// in\n    tag_351:\n        /* \"#utility.yul\":6247:6320   */\n      swap4\n      pop\n        /* \"#utility.yul\":6042:6330   */\n      pop\n        /* \"#utility.yul\":6397:6399   */\n      0x40\n        /* \"#utility.yul\":6386:6395   */\n      dup6\n        /* \"#utility.yul\":6382:6400   */\n      add\n        /* \"#utility.yul\":6369:6401   */\n      calldataload\n        /* \"#utility.yul\":6428:6446   */\n      0xffffffffffffffff\n        /* \"#utility.yul\":6420:6426   */\n      dup2\n        /* \"#utility.yul\":6417:6447   */\n      gt\n        /* \"#utility.yul\":6414:6531   */\n      iszero\n      tag_352\n      jumpi\n        /* \"#utility.yul\":6450:6529   */\n      tag_353\n      tag_197\n      jump\t// in\n    tag_353:\n        /* \"#utility.yul\":6414:6531   */\n    tag_352:\n        /* \"#utility.yul\":6555:6618   */\n      tag_354\n        /* \"#utility.yul\":6610:6617   */\n      dup8\n        /* \"#utility.yul\":6601:6607   */\n      dup3\n        /* \"#utility.yul\":6590:6599   */\n      dup9\n        /* \"#utility.yul\":6586:6608   */\n      add\n        /* \"#utility.yul\":6555:6618   */\n      tag_218\n      jump\t// in\n    tag_354:\n        /* \"#utility.yul\":6545:6618   */\n      swap3\n      pop\n        /* \"#utility.yul\":6340:6628   */\n      pop\n        /* \"#utility.yul\":6667:6669   */\n      0x60\n        /* \"#utility.yul\":6693:6746   */\n      tag_355\n        /* \"#utility.yul\":6738:6745   */\n      dup8\n        /* \"#utility.yul\":6729:6735   */\n      dup3\n        /* \"#utility.yul\":6718:6727   */\n      dup9\n        /* \"#utility.yul\":6714:6736   */\n      add\n        /* \"#utility.yul\":6693:6746   */\n      tag_200\n      jump\t// in\n    tag_355:\n        /* \"#utility.yul\":6683:6746   */\n      swap2\n      pop\n        /* \"#utility.yul\":6638:6756   */\n      pop\n        /* \"#utility.yul\":5638:6763   */\n      swap3\n      swap6\n      swap2\n      swap5\n      pop\n      swap3\n      pop\n      jump\t// out\n        /* \"#utility.yul\":6769:6891   */\n    tag_219:\n        /* \"#utility.yul\":6842:6866   */\n      tag_357\n        /* \"#utility.yul\":6860:6865   */\n      dup2\n        /* \"#utility.yul\":6842:6866   */\n      tag_205\n      jump\t// in\n    tag_357:\n        /* \"#utility.yul\":6835:6840   */\n      dup2\n        /* \"#utility.yul\":6832:6867   */\n      eq\n        /* \"#utility.yul\":6822:6885   */\n      tag_358\n      jumpi\n        /* \"#utility.yul\":6881:6882   */\n      0x00\n        /* \"#utility.yul\":6878:6879   */\n      dup1\n        /* \"#utility.yul\":6871:6883   */\n      revert\n        /* \"#utility.yul\":6822:6885   */\n    tag_358:\n        /* \"#utility.yul\":6769:6891   */\n      pop\n      jump\t// out\n        /* \"#utility.yul\":6897:7036   */\n    tag_220:\n        /* \"#utility.yul\":6943:6948   */\n      0x00\n        /* \"#utility.yul\":6981:6987   */\n      dup2\n        /* \"#utility.yul\":6968:6988   */\n      calldataload\n        /* \"#utility.yul\":6959:6988   */\n      swap1\n      pop\n        /* \"#utility.yul\":6997:7030   */\n      tag_360\n        /* \"#utility.yul\":7024:7029   */\n      dup2\n        /* \"#utility.yul\":6997:7030   */\n      tag_219\n      jump\t// in\n    tag_360:\n        /* \"#utility.yul\":6897:7036   */\n      swap3\n      swap2\n      pop\n      pop\n      jump\t// out\n        /* \"#utility.yul\":7042:7516   */\n    tag_26:\n        /* \"#utility.yul\":7110:7116   */\n      0x00\n        /* \"#utility.yul\":7118:7124   */\n      dup1\n        /* \"#utility.yul\":7167:7169   */\n      0x40\n        /* \"#utility.yul\":7155:7164   */\n      dup4\n        /* \"#utility.yul\":7146:7153   */\n      dup6\n        /* \"#utility.yul\":7142:7165   */\n      sub\n        /* \"#utility.yul\":7138:7170   */\n      slt\n        /* \"#utility.yul\":7135:7254   */\n      iszero\n      tag_362\n      jumpi\n        /* \"#utility.yul\":7173:7252   */\n      tag_363\n      tag_196\n      jump\t// in\n    tag_363:\n        /* \"#utility.yul\":7135:7254   */\n    tag_362:\n        /* \"#utility.yul\":7293:7294   */\n      0x00\n        /* \"#utility.yul\":7318:7371   */\n      tag_364\n        /* \"#utility.yul\":7363:7370   */\n      dup6\n        /* \"#utility.yul\":7354:7360   */\n      dup3\n        /* \"#utility.yul\":7343:7352   */\n      dup7\n        /* \"#utility.yul\":7339:7361   */\n      add\n        /* \"#utility.yul\":7318:7371   */\n      tag_220\n      jump\t// in\n    tag_364:\n        /* \"#utility.yul\":7308:7371   */\n      swap3\n      pop\n        /* \"#utility.yul\":7264:7381   */\n      pop\n        /* \"#utility.yul\":7420:7422   */\n      0x20\n        /* \"#utility.yul\":7446:7499   */\n      tag_365\n        /* \"#utility.yul\":7491:7498   */\n      dup6\n        /* \"#utility.yul\":7482:7488   */\n      dup3\n        /* \"#utility.yul\":7471:7480   */\n      dup7\n        /* \"#utility.yul\":7467:7489   */\n      add\n        /* \"#utility.yul\":7446:7499   */\n      tag_200\n      jump\t// in\n    tag_365:\n        /* \"#utility.yul\":7436:7499   */\n      swap2\n      pop\n        /* \"#utility.yul\":7391:7509   */\n      pop\n        /* \"#utility.yul\":7042:7516   */\n      swap3\n      pop\n      swap3\n      swap1\n      pop\n      jump\t// out\n        /* \"#utility.yul\":7522:7851   */\n    tag_30:\n        /* \"#utility.yul\":7581:7587   */\n      0x00\n        /* \"#utility.yul\":7630:7632   */\n      0x20\n        /* \"#utility.yul\":7618:7627   */\n      dup3\n        /* \"#utility.yul\":7609:7616   */\n      dup5\n        /* \"#utility.yul\":7605:7628   */\n      sub\n        /* \"#utility.yul\":7601:7633   */\n      slt\n        /* \"#utility.yul\":7598:7717   */\n      iszero\n      tag_367\n      jumpi\n        /* \"#utility.yul\":7636:7715   */\n      tag_368\n      tag_196\n      jump\t// in\n    tag_368:\n        /* \"#utility.yul\":7598:7717   */\n    tag_367:\n        /* \"#utility.yul\":7756:7757   */\n      0x00\n        /* \"#utility.yul\":7781:7834   */\n      tag_369\n        /* \"#utility.yul\":7826:7833   */\n      dup5\n        /* \"#utility.yul\":7817:7823   */\n      dup3\n        /* \"#utility.yul\":7806:7815   */\n      dup6\n        /* \"#utility.yul\":7802:7824   */\n      add\n        /* \"#utility.yul\":7781:7834   */\n      tag_200\n      jump\t// in\n    tag_369:\n        /* \"#utility.yul\":7771:7834   */\n      swap2\n      pop\n        /* \"#utility.yul\":7727:7844   */\n      pop\n        /* \"#utility.yul\":7522:7851   */\n      swap3\n      swap2\n      pop\n      pop\n      jump\t// out\n        /* \"#utility.yul\":7857:7947   */\n    tag_221:\n        /* \"#utility.yul\":7891:7898   */\n      0x00\n        /* \"#utility.yul\":7934:7939   */\n      dup2\n        /* \"#utility.yul\":7927:7940   */\n      iszero\n        /* \"#utility.yul\":7920:7941   */\n      iszero\n        /* \"#utility.yul\":7909:7941   */\n      swap1\n      pop\n        /* \"#utility.yul\":7857:7947   */\n      swap2\n      swap1\n      pop\n      jump\t// out\n        /* \"#utility.yul\":7953:8062   */\n    tag_222:\n        /* \"#utility.yul\":8034:8055   */\n      tag_372\n        /* \"#utility.yul\":8049:8054   */\n      dup2\n        /* \"#utility.yul\":8034:8055   */\n      tag_221\n      jump\t// in\n    tag_372:\n        /* \"#utility.yul\":8029:8032   */\n      dup3\n        /* \"#utility.yul\":8022:8056   */\n      mstore\n        /* \"#utility.yul\":7953:8062   */\n      pop\n      pop\n      jump\t// out\n        /* \"#utility.yul\":8068:8278   */\n    tag_33:\n        /* \"#utility.yul\":8155:8159   */\n      0x00\n        /* \"#utility.yul\":8193:8195   */\n      0x20\n        /* \"#utility.yul\":8182:8191   */\n      dup3\n        /* \"#utility.yul\":8178:8196   */\n      add\n        /* \"#utility.yul\":8170:8196   */\n      swap1\n      pop\n        /* \"#utility.yul\":8206:8271   */\n      tag_374\n        /* \"#utility.yul\":8268:8269   */\n      0x00\n        /* \"#utility.yul\":8257:8266   */\n      dup4\n        /* \"#utility.yul\":8253:8270   */\n      add\n        /* \"#utility.yul\":8244:8250   */\n      dup5\n        /* \"#utility.yul\":8206:8271   */\n      tag_222\n      jump\t// in\n    tag_374:\n        /* \"#utility.yul\":8068:8278   */\n      swap3\n      swap2\n      pop\n      pop\n      jump\t// out\n        /* \"#utility.yul\":8284:8400   */\n    tag_223:\n        /* \"#utility.yul\":8354:8375   */\n      tag_376\n        /* \"#utility.yul\":8369:8374   */\n      dup2\n        /* \"#utility.yul\":8354:8375   */\n      tag_221\n      jump\t// in\n    tag_376:\n        /* \"#utility.yul\":8347:8352   */\n      dup2\n        /* \"#utility.yul\":8344:8376   */\n      eq\n        /* \"#utility.yul\":8334:8394   */\n      tag_377\n      jumpi\n        /* \"#utility.yul\":8390:8391   */\n      0x00\n        /* \"#utility.yul\":8387:8388   */\n      dup1\n        /* \"#utility.yul\":8380:8392   */\n      revert\n        /* \"#utility.yul\":8334:8394   */\n    tag_377:\n        /* \"#utility.yul\":8284:8400   */\n      pop\n      jump\t// out\n        /* \"#utility.yul\":8406:8539   */\n    tag_224:\n        /* \"#utility.yul\":8449:8454   */\n      0x00\n        /* \"#utility.yul\":8487:8493   */\n      dup2\n        /* \"#utility.yul\":8474:8494   */\n      calldataload\n        /* \"#utility.yul\":8465:8494   */\n      swap1\n      pop\n        /* \"#utility.yul\":8503:8533   */\n      tag_379\n        /* \"#utility.yul\":8527:8532   */\n      dup2\n        /* \"#utility.yul\":8503:8533   */\n      tag_223\n      jump\t// in\n    tag_379:\n        /* \"#utility.yul\":8406:8539   */\n      swap3\n      swap2\n      pop\n      pop\n      jump\t// out\n        /* \"#utility.yul\":8545:9013   */\n    tag_36:\n        /* \"#utility.yul\":8610:8616   */\n      0x00\n        /* \"#utility.yul\":8618:8624   */\n      dup1\n        /* \"#utility.yul\":8667:8669   */\n      0x40\n        /* \"#utility.yul\":8655:8664   */\n      dup4\n        /* \"#utility.yul\":8646:8653   */\n      dup6\n        /* \"#utility.yul\":8642:8665   */\n      sub\n        /* \"#utility.yul\":8638:8670   */\n      slt\n        /* \"#utility.yul\":8635:8754   */\n      iszero\n      tag_381\n      jumpi\n        /* \"#utility.yul\":8673:8752   */\n      tag_382\n      tag_196\n      jump\t// in\n    tag_382:\n        /* \"#utility.yul\":8635:8754   */\n    tag_381:\n        /* \"#utility.yul\":8793:8794   */\n      0x00\n        /* \"#utility.yul\":8818:8871   */\n      tag_383\n        /* \"#utility.yul\":8863:8870   */\n      dup6\n        /* \"#utility.yul\":8854:8860   */\n      dup3\n        /* \"#utility.yul\":8843:8852   */\n      dup7\n        /* \"#utility.yul\":8839:8861   */\n      add\n        /* \"#utility.yul\":8818:8871   */\n      tag_220\n      jump\t// in\n    tag_383:\n        /* \"#utility.yul\":8808:8871   */\n      swap3\n      pop\n        /* \"#utility.yul\":8764:8881   */\n      pop\n        /* \"#utility.yul\":8920:8922   */\n      0x20\n        /* \"#utility.yul\":8946:8996   */\n      tag_384\n        /* \"#utility.yul\":8988:8995   */\n      dup6\n        /* \"#utility.yul\":8979:8985   */\n      dup3\n        /* \"#utility.yul\":8968:8977   */\n      dup7\n        /* \"#utility.yul\":8964:8986   */\n      add\n        /* \"#utility.yul\":8946:8996   */\n      tag_224\n      jump\t// in\n    tag_384:\n        /* \"#utility.yul\":8936:8996   */\n      swap2\n      pop\n        /* \"#utility.yul\":8891:9006   */\n      pop\n        /* \"#utility.yul\":8545:9013   */\n      swap3\n      pop\n      swap3\n      swap1\n      pop\n      jump\t// out\n        /* \"#utility.yul\":9019:9155   */\n    tag_225:\n        /* \"#utility.yul\":9108:9114   */\n      0x00\n        /* \"#utility.yul\":9142:9147   */\n      dup2\n        /* \"#utility.yul\":9136:9148   */\n      mload\n        /* \"#utility.yul\":9126:9148   */\n      swap1\n      pop\n        /* \"#utility.yul\":9019:9155   */\n      swap2\n      swap1\n      pop\n      jump\t// out\n        /* \"#utility.yul\":9161:9367   */\n    tag_226:\n        /* \"#utility.yul\":9282:9293   */\n      0x00\n        /* \"#utility.yul\":9316:9322   */\n      dup3\n        /* \"#utility.yul\":9311:9314   */\n      dup3\n        /* \"#utility.yul\":9304:9323   */\n      mstore\n        /* \"#utility.yul\":9356:9360   */\n      0x20\n        /* \"#utility.yul\":9351:9354   */\n      dup3\n        /* \"#utility.yul\":9347:9361   */\n      add\n        /* \"#utility.yul\":9332:9361   */\n      swap1\n      pop\n        /* \"#utility.yul\":9161:9367   */\n      swap3\n      swap2\n      pop\n      pop\n      jump\t// out\n        /* \"#utility.yul\":9373:9527   */\n    tag_227:\n        /* \"#utility.yul\":9462:9466   */\n      0x00\n        /* \"#utility.yul\":9485:9488   */\n      dup2\n        /* \"#utility.yul\":9477:9488   */\n      swap1\n      pop\n        /* \"#utility.yul\":9515:9519   */\n      0x20\n        /* \"#utility.yul\":9510:9513   */\n      dup3\n        /* \"#utility.yul\":9506:9520   */\n      add\n        /* \"#utility.yul\":9498:9520   */\n      swap1\n      pop\n        /* \"#utility.yul\":9373:9527   */\n      swap2\n      swap1\n      pop\n      jump\t// out\n        /* \"#utility.yul\":9533:9641   */\n    tag_228:\n        /* \"#utility.yul\":9610:9634   */\n      tag_389\n        /* \"#utility.yul\":9628:9633   */\n      dup2\n        /* \"#utility.yul\":9610:9634   */\n      tag_198\n      jump\t// in\n    tag_389:\n        /* \"#utility.yul\":9605:9608   */\n      dup3\n        /* \"#utility.yul\":9598:9635   */\n      mstore\n        /* \"#utility.yul\":9533:9641   */\n      pop\n      pop\n      jump\t// out\n        /* \"#utility.yul\":9647:9746   */\n    tag_229:\n        /* \"#utility.yul\":9699:9705   */\n      0x00\n        /* \"#utility.yul\":9733:9738   */\n      dup2\n        /* \"#utility.yul\":9727:9739   */\n      mload\n        /* \"#utility.yul\":9717:9739   */\n      swap1\n      pop\n        /* \"#utility.yul\":9647:9746   */\n      swap2\n      swap1\n      pop\n      jump\t// out\n        /* \"#utility.yul\":9752:9911   */\n    tag_230:\n        /* \"#utility.yul\":9826:9837   */\n      0x00\n        /* \"#utility.yul\":9860:9866   */\n      dup3\n        /* \"#utility.yul\":9855:9858   */\n      dup3\n        /* \"#utility.yul\":9848:9867   */\n      mstore\n        /* \"#utility.yul\":9900:9904   */\n      0x20\n        /* \"#utility.yul\":9895:9898   */\n      dup3\n        /* \"#utility.yul\":9891:9905   */\n      add\n        /* \"#utility.yul\":9876:9905   */\n      swap1\n      pop\n        /* \"#utility.yul\":9752:9911   */\n      swap3\n      swap2\n      pop\n      pop\n      jump\t// out\n        /* \"#utility.yul\":9917:10056   */\n    tag_231:\n        /* \"#utility.yul\":10006:10012   */\n      dup3\n        /* \"#utility.yul\":10001:10004   */\n      dup2\n        /* \"#utility.yul\":9996:9999   */\n      dup4\n        /* \"#utility.yul\":9990:10013   */\n      mcopy\n        /* \"#utility.yul\":10047:10048   */\n      0x00\n        /* \"#utility.yul\":10038:10044   */\n      dup4\n        /* \"#utility.yul\":10033:10036   */\n      dup4\n        /* \"#utility.yul\":10029:10045   */\n      add\n        /* \"#utility.yul\":10022:10049   */\n      mstore\n        /* \"#utility.yul\":9917:10056   */\n      pop\n      pop\n      pop\n      jump\t// out\n        /* \"#utility.yul\":10062:10419   */\n    tag_232:\n        /* \"#utility.yul\":10140:10143   */\n      0x00\n        /* \"#utility.yul\":10168:10207   */\n      tag_394\n        /* \"#utility.yul\":10201:10206   */\n      dup3\n        /* \"#utility.yul\":10168:10207   */\n      tag_229\n      jump\t// in\n    tag_394:\n        /* \"#utility.yul\":10223:10284   */\n      tag_395\n        /* \"#utility.yul\":10277:10283   */\n      dup2\n        /* \"#utility.yul\":10272:10275   */\n      dup6\n        /* \"#utility.yul\":10223:10284   */\n      tag_230\n      jump\t// in\n    tag_395:\n        /* \"#utility.yul\":10216:10284   */\n      swap4\n      pop\n        /* \"#utility.yul\":10293:10358   */\n      tag_396\n        /* \"#utility.yul\":10351:10357   */\n      dup2\n        /* \"#utility.yul\":10346:10349   */\n      dup6\n        /* \"#utility.yul\":10339:10343   */\n      0x20\n        /* \"#utility.yul\":10332:10337   */\n      dup7\n        /* \"#utility.yul\":10328:10344   */\n      add\n        /* \"#utility.yul\":10293:10358   */\n      tag_231\n      jump\t// in\n    tag_396:\n        /* \"#utility.yul\":10383:10412   */\n      tag_397\n        /* \"#utility.yul\":10405:10411   */\n      dup2\n        /* \"#utility.yul\":10383:10412   */\n      tag_212\n      jump\t// in\n    tag_397:\n        /* \"#utility.yul\":10378:10381   */\n      dup5\n        /* \"#utility.yul\":10374:10413   */\n      add\n        /* \"#utility.yul\":10367:10413   */\n      swap2\n      pop\n        /* \"#utility.yul\":10144:10419   */\n      pop\n        /* \"#utility.yul\":10062:10419   */\n      swap3\n      swap2\n      pop\n      pop\n      jump\t// out\n        /* \"#utility.yul\":10425:10524   */\n    tag_233:\n        /* \"#utility.yul\":10496:10517   */\n      tag_399\n        /* \"#utility.yul\":10511:10516   */\n      dup2\n        /* \"#utility.yul\":10496:10517   */\n      tag_221\n      jump\t// in\n    tag_399:\n        /* \"#utility.yul\":10491:10494   */\n      dup3\n        /* \"#utility.yul\":10484:10518   */\n      mstore\n        /* \"#utility.yul\":10425:10524   */\n      pop\n      pop\n      jump\t// out\n        /* \"#utility.yul\":10566:11934   */\n    tag_234:\n        /* \"#utility.yul\":10669:10672   */\n      0x00\n        /* \"#utility.yul\":10705:10709   */\n      0xc0\n        /* \"#utility.yul\":10700:10703   */\n      dup4\n        /* \"#utility.yul\":10696:10710   */\n      add\n        /* \"#utility.yul\":10790:10794   */\n      0x00\n        /* \"#utility.yul\":10783:10788   */\n      dup4\n        /* \"#utility.yul\":10779:10795   */\n      add\n        /* \"#utility.yul\":10773:10796   */\n      mload\n        /* \"#utility.yul\":10809:10872   */\n      tag_401\n        /* \"#utility.yul\":10866:10870   */\n      0x00\n        /* \"#utility.yul\":10861:10864   */\n      dup7\n        /* \"#utility.yul\":10857:10871   */\n      add\n        /* \"#utility.yul\":10843:10855   */\n      dup3\n        /* \"#utility.yul\":10809:10872   */\n      tag_228\n      jump\t// in\n    tag_401:\n        /* \"#utility.yul\":10720:10882   */\n      pop\n        /* \"#utility.yul\":10964:10968   */\n      0x20\n        /* \"#utility.yul\":10957:10962   */\n      dup4\n        /* \"#utility.yul\":10953:10969   */\n      add\n        /* \"#utility.yul\":10947:10970   */\n      mload\n        /* \"#utility.yul\":11017:11020   */\n      dup5\n        /* \"#utility.yul\":11011:11015   */\n      dup3\n        /* \"#utility.yul\":11007:11021   */\n      sub\n        /* \"#utility.yul\":11000:11004   */\n      0x20\n        /* \"#utility.yul\":10995:10998   */\n      dup7\n        /* \"#utility.yul\":10991:11005   */\n      add\n        /* \"#utility.yul\":10984:11022   */\n      mstore\n        /* \"#utility.yul\":11043:11116   */\n      tag_402\n        /* \"#utility.yul\":11111:11115   */\n      dup3\n        /* \"#utility.yul\":11097:11109   */\n      dup3\n        /* \"#utility.yul\":11043:11116   */\n      tag_232\n      jump\t// in\n    tag_402:\n        /* \"#utility.yul\":11035:11116   */\n      swap2\n      pop\n        /* \"#utility.yul\":10892:11127   */\n      pop\n        /* \"#utility.yul\":11213:11217   */\n      0x40\n        /* \"#utility.yul\":11206:11211   */\n      dup4\n        /* \"#utility.yul\":11202:11218   */\n      add\n        /* \"#utility.yul\":11196:11219   */\n      mload\n        /* \"#utility.yul\":11232:11295   */\n      tag_403\n        /* \"#utility.yul\":11289:11293   */\n      0x40\n        /* \"#utility.yul\":11284:11287   */\n      dup7\n        /* \"#utility.yul\":11280:11294   */\n      add\n        /* \"#utility.yul\":11266:11278   */\n      dup3\n        /* \"#utility.yul\":11232:11295   */\n      tag_228\n      jump\t// in\n    tag_403:\n        /* \"#utility.yul\":11137:11305   */\n      pop\n        /* \"#utility.yul\":11394:11398   */\n      0x60\n        /* \"#utility.yul\":11387:11392   */\n      dup4\n        /* \"#utility.yul\":11383:11399   */\n      add\n        /* \"#utility.yul\":11377:11400   */\n      mload\n        /* \"#utility.yul\":11447:11450   */\n      dup5\n        /* \"#utility.yul\":11441:11445   */\n      dup3\n        /* \"#utility.yul\":11437:11451   */\n      sub\n        /* \"#utility.yul\":11430:11434   */\n      0x60\n        /* \"#utility.yul\":11425:11428   */\n      dup7\n        /* \"#utility.yul\":11421:11435   */\n      add\n        /* \"#utility.yul\":11414:11452   */\n      mstore\n        /* \"#utility.yul\":11473:11546   */\n      tag_404\n        /* \"#utility.yul\":11541:11545   */\n      dup3\n        /* \"#utility.yul\":11527:11539   */\n      dup3\n        /* \"#utility.yul\":11473:11546   */\n      tag_232\n      jump\t// in\n    tag_404:\n        /* \"#utility.yul\":11465:11546   */\n      swap2\n      pop\n        /* \"#utility.yul\":11315:11557   */\n      pop\n        /* \"#utility.yul\":11644:11648   */\n      0x80\n        /* \"#utility.yul\":11637:11642   */\n      dup4\n        /* \"#utility.yul\":11633:11649   */\n      add\n        /* \"#utility.yul\":11627:11650   */\n      mload\n        /* \"#utility.yul\":11663:11726   */\n      tag_405\n        /* \"#utility.yul\":11720:11724   */\n      0x80\n        /* \"#utility.yul\":11715:11718   */\n      dup7\n        /* \"#utility.yul\":11711:11725   */\n      add\n        /* \"#utility.yul\":11697:11709   */\n      dup3\n        /* \"#utility.yul\":11663:11726   */\n      tag_228\n      jump\t// in\n    tag_405:\n        /* \"#utility.yul\":11567:11736   */\n      pop\n        /* \"#utility.yul\":11821:11825   */\n      0xa0\n        /* \"#utility.yul\":11814:11819   */\n      dup4\n        /* \"#utility.yul\":11810:11826   */\n      add\n        /* \"#utility.yul\":11804:11827   */\n      mload\n        /* \"#utility.yul\":11840:11897   */\n      tag_406\n        /* \"#utility.yul\":11891:11895   */\n      0xa0\n        /* \"#utility.yul\":11886:11889   */\n      dup7\n        /* \"#utility.yul\":11882:11896   */\n      add\n        /* \"#utility.yul\":11868:11880   */\n      dup3\n        /* \"#utility.yul\":11840:11897   */\n      tag_233\n      jump\t// in\n    tag_406:\n        /* \"#utility.yul\":11746:11907   */\n      pop\n        /* \"#utility.yul\":11924:11928   */\n      dup1\n        /* \"#utility.yul\":11917:11928   */\n      swap2\n      pop\n        /* \"#utility.yul\":10674:11934   */\n      pop\n        /* \"#utility.yul\":10566:11934   */\n      swap3\n      swap2\n      pop\n      pop\n      jump\t// out\n        /* \"#utility.yul\":11940:12184   */\n    tag_235:\n        /* \"#utility.yul\":12053:12063   */\n      0x00\n        /* \"#utility.yul\":12088:12178   */\n      tag_408\n        /* \"#utility.yul\":12174:12177   */\n      dup4\n        /* \"#utility.yul\":12166:12172   */\n      dup4\n        /* \"#utility.yul\":12088:12178   */\n      tag_234\n      jump\t// in\n    tag_408:\n        /* \"#utility.yul\":12074:12178   */\n      swap1\n      pop\n        /* \"#utility.yul\":11940:12184   */\n      swap3\n      swap2\n      pop\n      pop\n      jump\t// out\n        /* \"#utility.yul\":12190:12325   */\n    tag_236:\n        /* \"#utility.yul\":12282:12286   */\n      0x00\n        /* \"#utility.yul\":12314:12318   */\n      0x20\n        /* \"#utility.yul\":12309:12312   */\n      dup3\n        /* \"#utility.yul\":12305:12319   */\n      add\n        /* \"#utility.yul\":12297:12319   */\n      swap1\n      pop\n        /* \"#utility.yul\":12190:12325   */\n      swap2\n      swap1\n      pop\n      jump\t// out\n        /* \"#utility.yul\":12371:13458   */\n    tag_237:\n        /* \"#utility.yul\":12534:12537   */\n      0x00\n        /* \"#utility.yul\":12563:12639   */\n      tag_411\n        /* \"#utility.yul\":12633:12638   */\n      dup3\n        /* \"#utility.yul\":12563:12639   */\n      tag_225\n      jump\t// in\n    tag_411:\n        /* \"#utility.yul\":12655:12763   */\n      tag_412\n        /* \"#utility.yul\":12756:12762   */\n      dup2\n        /* \"#utility.yul\":12751:12754   */\n      dup6\n        /* \"#utility.yul\":12655:12763   */\n      tag_226\n      jump\t// in\n    tag_412:\n        /* \"#utility.yul\":12648:12763   */\n      swap4\n      pop\n        /* \"#utility.yul\":12789:12792   */\n      dup4\n        /* \"#utility.yul\":12834:12838   */\n      0x20\n        /* \"#utility.yul\":12826:12832   */\n      dup3\n        /* \"#utility.yul\":12822:12839   */\n      mul\n        /* \"#utility.yul\":12817:12820   */\n      dup6\n        /* \"#utility.yul\":12813:12840   */\n      add\n        /* \"#utility.yul\":12864:12942   */\n      tag_413\n        /* \"#utility.yul\":12936:12941   */\n      dup6\n        /* \"#utility.yul\":12864:12942   */\n      tag_227\n      jump\t// in\n    tag_413:\n        /* \"#utility.yul\":12965:12972   */\n      dup1\n        /* \"#utility.yul\":12996:12997   */\n      0x00\n        /* \"#utility.yul\":12981:13413   */\n    tag_414:\n        /* \"#utility.yul\":13006:13012   */\n      dup6\n        /* \"#utility.yul\":13003:13004   */\n      dup2\n        /* \"#utility.yul\":13000:13013   */\n      lt\n        /* \"#utility.yul\":12981:13413   */\n      iszero\n      tag_416\n      jumpi\n        /* \"#utility.yul\":13077:13086   */\n      dup5\n        /* \"#utility.yul\":13071:13075   */\n      dup5\n        /* \"#utility.yul\":13067:13087   */\n      sub\n        /* \"#utility.yul\":13062:13065   */\n      dup10\n        /* \"#utility.yul\":13055:13088   */\n      mstore\n        /* \"#utility.yul\":13128:13134   */\n      dup2\n        /* \"#utility.yul\":13122:13135   */\n      mload\n        /* \"#utility.yul\":13156:13264   */\n      tag_417\n        /* \"#utility.yul\":13259:13263   */\n      dup6\n        /* \"#utility.yul\":13244:13257   */\n      dup3\n        /* \"#utility.yul\":13156:13264   */\n      tag_235\n      jump\t// in\n    tag_417:\n        /* \"#utility.yul\":13148:13264   */\n      swap5\n      pop\n        /* \"#utility.yul\":13287:13369   */\n      tag_418\n        /* \"#utility.yul\":13362:13368   */\n      dup4\n        /* \"#utility.yul\":13287:13369   */\n      tag_236\n      jump\t// in\n    tag_418:\n        /* \"#utility.yul\":13277:13369   */\n      swap3\n      pop\n        /* \"#utility.yul\":13398:13402   */\n      0x20\n        /* \"#utility.yul\":13393:13396   */\n      dup11\n        /* \"#utility.yul\":13389:13403   */\n      add\n        /* \"#utility.yul\":13382:13403   */\n      swap10\n      pop\n        /* \"#utility.yul\":13041:13413   */\n      pop\n        /* \"#utility.yul\":13028:13029   */\n      0x01\n        /* \"#utility.yul\":13025:13026   */\n      dup2\n        /* \"#utility.yul\":13021:13030   */\n      add\n        /* \"#utility.yul\":13016:13030   */\n      swap1\n      pop\n        /* \"#utility.yul\":12981:13413   */\n      jump(tag_414)\n    tag_416:\n        /* \"#utility.yul\":12985:12999   */\n      pop\n        /* \"#utility.yul\":13429:13433   */\n      dup3\n        /* \"#utility.yul\":13422:13433   */\n      swap8\n      pop\n        /* \"#utility.yul\":13449:13452   */\n      dup8\n        /* \"#utility.yul\":13442:13452   */\n      swap6\n      pop\n        /* \"#utility.yul\":12539:13458   */\n      pop\n      pop\n      pop\n      pop\n      pop\n        /* \"#utility.yul\":12371:13458   */\n      swap3\n      swap2\n      pop\n      pop\n      jump\t// out\n        /* \"#utility.yul\":13464:13925   */\n    tag_41:\n        /* \"#utility.yul\":13651:13655   */\n      0x00\n        /* \"#utility.yul\":13689:13691   */\n      0x20\n        /* \"#utility.yul\":13678:13687   */\n      dup3\n        /* \"#utility.yul\":13674:13692   */\n      add\n        /* \"#utility.yul\":13666:13692   */\n      swap1\n      pop\n        /* \"#utility.yul\":13738:13747   */\n      dup2\n        /* \"#utility.yul\":13732:13736   */\n      dup2\n        /* \"#utility.yul\":13728:13748   */\n      sub\n        /* \"#utility.yul\":13724:13725   */\n      0x00\n        /* \"#utility.yul\":13713:13722   */\n      dup4\n        /* \"#utility.yul\":13709:13726   */\n      add\n        /* \"#utility.yul\":13702:13749   */\n      mstore\n        /* \"#utility.yul\":13766:13918   */\n      tag_420\n        /* \"#utility.yul\":13913:13917   */\n      dup2\n        /* \"#utility.yul\":13904:13910   */\n      dup5\n        /* \"#utility.yul\":13766:13918   */\n      tag_237\n      jump\t// in\n    tag_420:\n        /* \"#utility.yul\":13758:13918   */\n      swap1\n      pop\n        /* \"#utility.yul\":13464:13925   */\n      swap3\n      swap2\n      pop\n      pop\n      jump\t// out\n        /* \"#utility.yul\":13931:14260   */\n    tag_44:\n        /* \"#utility.yul\":13990:13996   */\n      0x00\n        /* \"#utility.yul\":14039:14041   */\n      0x20\n        /* \"#utility.yul\":14027:14036   */\n      dup3\n        /* \"#utility.yul\":14018:14025   */\n      dup5\n        /* \"#utility.yul\":14014:14037   */\n      sub\n        /* \"#utility.yul\":14010:14042   */\n      slt\n        /* \"#utility.yul\":14007:14126   */\n      iszero\n      tag_422\n      jumpi\n        /* \"#utility.yul\":14045:14124   */\n      tag_423\n      tag_196\n      jump\t// in\n    tag_423:\n        /* \"#utility.yul\":14007:14126   */\n    tag_422:\n        /* \"#utility.yul\":14165:14166   */\n      0x00\n        /* \"#utility.yul\":14190:14243   */\n      tag_424\n        /* \"#utility.yul\":14235:14242   */\n      dup5\n        /* \"#utility.yul\":14226:14232   */\n      dup3\n        /* \"#utility.yul\":14215:14224   */\n      dup6\n        /* \"#utility.yul\":14211:14233   */\n      add\n        /* \"#utility.yul\":14190:14243   */\n      tag_220\n      jump\t// in\n    tag_424:\n        /* \"#utility.yul\":14180:14243   */\n      swap2\n      pop\n        /* \"#utility.yul\":14136:14253   */\n      pop\n        /* \"#utility.yul\":13931:14260   */\n      swap3\n      swap2\n      pop\n      pop\n      jump\t// out\n        /* \"#utility.yul\":14266:14384   */\n    tag_238:\n        /* \"#utility.yul\":14353:14377   */\n      tag_426\n        /* \"#utility.yul\":14371:14376   */\n      dup2\n        /* \"#utility.yul\":14353:14377   */\n      tag_198\n      jump\t// in\n    tag_426:\n        /* \"#utility.yul\":14348:14351   */\n      dup3\n        /* \"#utility.yul\":14341:14378   */\n      mstore\n        /* \"#utility.yul\":14266:14384   */\n      pop\n      pop\n      jump\t// out\n        /* \"#utility.yul\":14390:14612   */\n    tag_53:\n        /* \"#utility.yul\":14483:14487   */\n      0x00\n        /* \"#utility.yul\":14521:14523   */\n      0x20\n        /* \"#utility.yul\":14510:14519   */\n      dup3\n        /* \"#utility.yul\":14506:14524   */\n      add\n        /* \"#utility.yul\":14498:14524   */\n      swap1\n      pop\n        /* \"#utility.yul\":14534:14605   */\n      tag_428\n        /* \"#utility.yul\":14602:14603   */\n      0x00\n        /* \"#utility.yul\":14591:14600   */\n      dup4\n        /* \"#utility.yul\":14587:14604   */\n      add\n        /* \"#utility.yul\":14578:14584   */\n      dup5\n        /* \"#utility.yul\":14534:14605   */\n      tag_238\n      jump\t// in\n    tag_428:\n        /* \"#utility.yul\":14390:14612   */\n      swap3\n      swap2\n      pop\n      pop\n      jump\t// out\n        /* \"#utility.yul\":14618:15597   */\n    tag_56:\n        /* \"#utility.yul\":14715:14721   */\n      0x00\n        /* \"#utility.yul\":14723:14729   */\n      dup1\n        /* \"#utility.yul\":14731:14737   */\n      0x00\n        /* \"#utility.yul\":14780:14782   */\n      0x60\n        /* \"#utility.yul\":14768:14777   */\n      dup5\n        /* \"#utility.yul\":14759:14766   */\n      dup7\n        /* \"#utility.yul\":14755:14778   */\n      sub\n        /* \"#utility.yul\":14751:14783   */\n      slt\n        /* \"#utility.yul\":14748:14867   */\n      iszero\n      tag_430\n      jumpi\n        /* \"#utility.yul\":14786:14865   */\n      tag_431\n      tag_196\n      jump\t// in\n    tag_431:\n        /* \"#utility.yul\":14748:14867   */\n    tag_430:\n        /* \"#utility.yul\":14934:14935   */\n      0x00\n        /* \"#utility.yul\":14923:14932   */\n      dup5\n        /* \"#utility.yul\":14919:14936   */\n      add\n        /* \"#utility.yul\":14906:14937   */\n      calldataload\n        /* \"#utility.yul\":14964:14982   */\n      0xffffffffffffffff\n        /* \"#utility.yul\":14956:14962   */\n      dup2\n        /* \"#utility.yul\":14953:14983   */\n      gt\n        /* \"#utility.yul\":14950:15067   */\n      iszero\n      tag_432\n      jumpi\n        /* \"#utility.yul\":14986:15065   */\n      tag_433\n      tag_197\n      jump\t// in\n    tag_433:\n        /* \"#utility.yul\":14950:15067   */\n    tag_432:\n        /* \"#utility.yul\":15091:15154   */\n      tag_434\n        /* \"#utility.yul\":15146:15153   */\n      dup7\n        /* \"#utility.yul\":15137:15143   */\n      dup3\n        /* \"#utility.yul\":15126:15135   */\n      dup8\n        /* \"#utility.yul\":15122:15144   */\n      add\n        /* \"#utility.yul\":15091:15154   */\n      tag_218\n      jump\t// in\n    tag_434:\n        /* \"#utility.yul\":15081:15154   */\n      swap4\n      pop\n        /* \"#utility.yul\":14877:15164   */\n      pop\n        /* \"#utility.yul\":15231:15233   */\n      0x20\n        /* \"#utility.yul\":15220:15229   */\n      dup5\n        /* \"#utility.yul\":15216:15234   */\n      add\n        /* \"#utility.yul\":15203:15235   */\n      calldataload\n        /* \"#utility.yul\":15262:15280   */\n      0xffffffffffffffff\n        /* \"#utility.yul\":15254:15260   */\n      dup2\n        /* \"#utility.yul\":15251:15281   */\n      gt\n        /* \"#utility.yul\":15248:15365   */\n      iszero\n      tag_435\n      jumpi\n        /* \"#utility.yul\":15284:15363   */\n      tag_436\n      tag_197\n      jump\t// in\n    tag_436:\n        /* \"#utility.yul\":15248:15365   */\n    tag_435:\n        /* \"#utility.yul\":15389:15452   */\n      tag_437\n        /* \"#utility.yul\":15444:15451   */\n      dup7\n        /* \"#utility.yul\":15435:15441   */\n      dup3\n        /* \"#utility.yul\":15424:15433   */\n      dup8\n        /* \"#utility.yul\":15420:15442   */\n      add\n        /* \"#utility.yul\":15389:15452   */\n      tag_218\n      jump\t// in\n    tag_437:\n        /* \"#utility.yul\":15379:15452   */\n      swap3\n      pop\n        /* \"#utility.yul\":15174:15462   */\n      pop\n        /* \"#utility.yul\":15501:15503   */\n      0x40\n        /* \"#utility.yul\":15527:15580   */\n      tag_438\n        /* \"#utility.yul\":15572:15579   */\n      dup7\n        /* \"#utility.yul\":15563:15569   */\n      dup3\n        /* \"#utility.yul\":15552:15561   */\n      dup8\n        /* \"#utility.yul\":15548:15570   */\n      add\n        /* \"#utility.yul\":15527:15580   */\n      tag_200\n      jump\t// in\n    tag_438:\n        /* \"#utility.yul\":15517:15580   */\n      swap2\n      pop\n        /* \"#utility.yul\":15472:15590   */\n      pop\n        /* \"#utility.yul\":14618:15597   */\n      swap3\n      pop\n      swap3\n      pop\n      swap3\n      jump\t// out\n        /* \"#utility.yul\":15603:15772   */\n    tag_239:\n        /* \"#utility.yul\":15687:15698   */\n      0x00\n        /* \"#utility.yul\":15721:15727   */\n      dup3\n        /* \"#utility.yul\":15716:15719   */\n      dup3\n        /* \"#utility.yul\":15709:15728   */\n      mstore\n        /* \"#utility.yul\":15761:15765   */\n      0x20\n        /* \"#utility.yul\":15756:15759   */\n      dup3\n        /* \"#utility.yul\":15752:15766   */\n      add\n        /* \"#utility.yul\":15737:15766   */\n      swap1\n      pop\n        /* \"#utility.yul\":15603:15772   */\n      swap3\n      swap2\n      pop\n      pop\n      jump\t// out\n        /* \"#utility.yul\":15778:15950   */\n    tag_240:\n        /* \"#utility.yul\":15918:15942   */\n      0x43616c6c6572206973206e6f7420616e2061646d696e00000000000000000000\n        /* \"#utility.yul\":15914:15915   */\n      0x00\n        /* \"#utility.yul\":15906:15912   */\n      dup3\n        /* \"#utility.yul\":15902:15916   */\n      add\n        /* \"#utility.yul\":15895:15943   */\n      mstore\n        /* \"#utility.yul\":15778:15950   */\n      pop\n      jump\t// out\n        /* \"#utility.yul\":15956:16322   */\n    tag_241:\n        /* \"#utility.yul\":16098:16101   */\n      0x00\n        /* \"#utility.yul\":16119:16186   */\n      tag_442\n        /* \"#utility.yul\":16183:16185   */\n      0x16\n        /* \"#utility.yul\":16178:16181   */\n      dup4\n        /* \"#utility.yul\":16119:16186   */\n      tag_239\n      jump\t// in\n    tag_442:\n        /* \"#utility.yul\":16112:16186   */\n      swap2\n      pop\n        /* \"#utility.yul\":16195:16288   */\n      tag_443\n        /* \"#utility.yul\":16284:16287   */\n      dup3\n        /* \"#utility.yul\":16195:16288   */\n      tag_240\n      jump\t// in\n    tag_443:\n        /* \"#utility.yul\":16313:16315   */\n      0x20\n        /* \"#utility.yul\":16308:16311   */\n      dup3\n        /* \"#utility.yul\":16304:16316   */\n      add\n        /* \"#utility.yul\":16297:16316   */\n      swap1\n      pop\n        /* \"#utility.yul\":15956:16322   */\n      swap2\n      swap1\n      pop\n      jump\t// out\n        /* \"#utility.yul\":16328:16747   */\n    tag_64:\n        /* \"#utility.yul\":16494:16498   */\n      0x00\n        /* \"#utility.yul\":16532:16534   */\n      0x20\n        /* \"#utility.yul\":16521:16530   */\n      dup3\n        /* \"#utility.yul\":16517:16535   */\n      add\n        /* \"#utility.yul\":16509:16535   */\n      swap1\n      pop\n        /* \"#utility.yul\":16581:16590   */\n      dup2\n        /* \"#utility.yul\":16575:16579   */\n      dup2\n        /* \"#utility.yul\":16571:16591   */\n      sub\n        /* \"#utility.yul\":16567:16568   */\n      0x00\n        /* \"#utility.yul\":16556:16565   */\n      dup4\n        /* \"#utility.yul\":16552:16569   */\n      add\n        /* \"#utility.yul\":16545:16592   */\n      mstore\n        /* \"#utility.yul\":16609:16740   */\n      tag_445\n        /* \"#utility.yul\":16735:16739   */\n      dup2\n        /* \"#utility.yul\":16609:16740   */\n      tag_241\n      jump\t// in\n    tag_445:\n        /* \"#utility.yul\":16601:16740   */\n      swap1\n      pop\n        /* \"#utility.yul\":16328:16747   */\n      swap2\n      swap1\n      pop\n      jump\t// out\n        /* \"#utility.yul\":16753:16922   */\n    tag_242:\n        /* \"#utility.yul\":16893:16914   */\n      0x526f75746520646f65736e277420657869737400000000000000000000000000\n        /* \"#utility.yul\":16889:16890   */\n      0x00\n        /* \"#utility.yul\":16881:16887   */\n      dup3\n        /* \"#utility.yul\":16877:16891   */\n      add\n        /* \"#utility.yul\":16870:16915   */\n      mstore\n        /* \"#utility.yul\":16753:16922   */\n      pop\n      jump\t// out\n        /* \"#utility.yul\":16928:17294   */\n    tag_243:\n        /* \"#utility.yul\":17070:17073   */\n      0x00\n        /* \"#utility.yul\":17091:17158   */\n      tag_448\n        /* \"#utility.yul\":17155:17157   */\n      0x13\n        /* \"#utility.yul\":17150:17153   */\n      dup4\n        /* \"#utility.yul\":17091:17158   */\n      tag_239\n      jump\t// in\n    tag_448:\n        /* \"#utility.yul\":17084:17158   */\n      swap2\n      pop\n        /* \"#utility.yul\":17167:17260   */\n      tag_449\n        /* \"#utility.yul\":17256:17259   */\n      dup3\n        /* \"#utility.yul\":17167:17260   */\n      tag_242\n      jump\t// in\n    tag_449:\n        /* \"#utility.yul\":17285:17287   */\n      0x20\n        /* \"#utility.yul\":17280:17283   */\n      dup3\n        /* \"#utility.yul\":17276:17288   */\n      add\n        /* \"#utility.yul\":17269:17288   */\n      swap1\n      pop\n        /* \"#utility.yul\":16928:17294   */\n      swap2\n      swap1\n      pop\n      jump\t// out\n        /* \"#utility.yul\":17300:17719   */\n    tag_68:\n        /* \"#utility.yul\":17466:17470   */\n      0x00\n        /* \"#utility.yul\":17504:17506   */\n      0x20\n        /* \"#utility.yul\":17493:17502   */\n      dup3\n        /* \"#utility.yul\":17489:17507   */\n      add\n        /* \"#utility.yul\":17481:17507   */\n      swap1\n      pop\n        /* \"#utility.yul\":17553:17562   */\n      dup2\n        /* \"#utility.yul\":17547:17551   */\n      dup2\n        /* \"#utility.yul\":17543:17563   */\n      sub\n        /* \"#utility.yul\":17539:17540   */\n      0x00\n        /* \"#utility.yul\":17528:17537   */\n      dup4\n        /* \"#utility.yul\":17524:17541   */\n      add\n        /* \"#utility.yul\":17517:17564   */\n      mstore\n        /* \"#utility.yul\":17581:17712   */\n      tag_451\n        /* \"#utility.yul\":17707:17711   */\n      dup2\n        /* \"#utility.yul\":17581:17712   */\n      tag_243\n      jump\t// in\n    tag_451:\n        /* \"#utility.yul\":17573:17712   */\n      swap1\n      pop\n        /* \"#utility.yul\":17300:17719   */\n      swap2\n      swap1\n      pop\n      jump\t// out\n        /* \"#utility.yul\":17725:17897   */\n    tag_244:\n        /* \"#utility.yul\":17865:17889   */\n      0x4e616d65206d757374206e6f7420626520656d70747900000000000000000000\n        /* \"#utility.yul\":17861:17862   */\n      0x00\n        /* \"#utility.yul\":17853:17859   */\n      dup3\n        /* \"#utility.yul\":17849:17863   */\n      add\n        /* \"#utility.yul\":17842:17890   */\n      mstore\n        /* \"#utility.yul\":17725:17897   */\n      pop\n      jump\t// out\n        /* \"#utility.yul\":17903:18269   */\n    tag_245:\n        /* \"#utility.yul\":18045:18048   */\n      0x00\n        /* \"#utility.yul\":18066:18133   */\n      tag_454\n        /* \"#utility.yul\":18130:18132   */\n      0x16\n        /* \"#utility.yul\":18125:18128   */\n      dup4\n        /* \"#utility.yul\":18066:18133   */\n      tag_239\n      jump\t// in\n    tag_454:\n        /* \"#utility.yul\":18059:18133   */\n      swap2\n      pop\n        /* \"#utility.yul\":18142:18235   */\n      tag_455\n        /* \"#utility.yul\":18231:18234   */\n      dup3\n        /* \"#utility.yul\":18142:18235   */\n      tag_244\n      jump\t// in\n    tag_455:\n        /* \"#utility.yul\":18260:18262   */\n      0x20\n        /* \"#utility.yul\":18255:18258   */\n      dup3\n        /* \"#utility.yul\":18251:18263   */\n      add\n        /* \"#utility.yul\":18244:18263   */\n      swap1\n      pop\n        /* \"#utility.yul\":17903:18269   */\n      swap2\n      swap1\n      pop\n      jump\t// out\n        /* \"#utility.yul\":18275:18694   */\n    tag_71:\n        /* \"#utility.yul\":18441:18445   */\n      0x00\n        /* \"#utility.yul\":18479:18481   */\n      0x20\n        /* \"#utility.yul\":18468:18477   */\n      dup3\n        /* \"#utility.yul\":18464:18482   */\n      add\n        /* \"#utility.yul\":18456:18482   */\n      swap1\n      pop\n        /* \"#utility.yul\":18528:18537   */\n      dup2\n        /* \"#utility.yul\":18522:18526   */\n      dup2\n        /* \"#utility.yul\":18518:18538   */\n      sub\n        /* \"#utility.yul\":18514:18515   */\n      0x00\n        /* \"#utility.yul\":18503:18512   */\n      dup4\n        /* \"#utility.yul\":18499:18516   */\n      add\n        /* \"#utility.yul\":18492:18539   */\n      mstore\n        /* \"#utility.yul\":18556:18687   */\n      tag_457\n        /* \"#utility.yul\":18682:18686   */\n      dup2\n        /* \"#utility.yul\":18556:18687   */\n      tag_245\n      jump\t// in\n    tag_457:\n        /* \"#utility.yul\":18548:18687   */\n      swap1\n      pop\n        /* \"#utility.yul\":18275:18694   */\n      swap2\n      swap1\n      pop\n      jump\t// out\n        /* \"#utility.yul\":18700:18876   */\n    tag_246:\n        /* \"#utility.yul\":18840:18868   */\n      0x44697374616e6365206d757374206e6f7420626520656d707479000000000000\n        /* \"#utility.yul\":18836:18837   */\n      0x00\n        /* \"#utility.yul\":18828:18834   */\n      dup3\n        /* \"#utility.yul\":18824:18838   */\n      add\n        /* \"#utility.yul\":18817:18869   */\n      mstore\n        /* \"#utility.yul\":18700:18876   */\n      pop\n      jump\t// out\n        /* \"#utility.yul\":18882:19248   */\n    tag_247:\n        /* \"#utility.yul\":19024:19027   */\n      0x00\n        /* \"#utility.yul\":19045:19112   */\n      tag_460\n        /* \"#utility.yul\":19109:19111   */\n      0x1a\n        /* \"#utility.yul\":19104:19107   */\n      dup4\n        /* \"#utility.yul\":19045:19112   */\n      tag_239\n      jump\t// in\n    tag_460:\n        /* \"#utility.yul\":19038:19112   */\n      swap2\n      pop\n        /* \"#utility.yul\":19121:19214   */\n      tag_461\n        /* \"#utility.yul\":19210:19213   */\n      dup3\n        /* \"#utility.yul\":19121:19214   */\n      tag_246\n      jump\t// in\n    tag_461:\n        /* \"#utility.yul\":19239:19241   */\n      0x20\n        /* \"#utility.yul\":19234:19237   */\n      dup3\n        /* \"#utility.yul\":19230:19242   */\n      add\n        /* \"#utility.yul\":19223:19242   */\n      swap1\n      pop\n        /* \"#utility.yul\":18882:19248   */\n      swap2\n      swap1\n      pop\n      jump\t// out\n        /* \"#utility.yul\":19254:19673   */\n    tag_74:\n        /* \"#utility.yul\":19420:19424   */\n      0x00\n        /* \"#utility.yul\":19458:19460   */\n      0x20\n        /* \"#utility.yul\":19447:19456   */\n      dup3\n        /* \"#utility.yul\":19443:19461   */\n      add\n        /* \"#utility.yul\":19435:19461   */\n      swap1\n      pop\n        /* \"#utility.yul\":19507:19516   */\n      dup2\n        /* \"#utility.yul\":19501:19505   */\n      dup2\n        /* \"#utility.yul\":19497:19517   */\n      sub\n        /* \"#utility.yul\":19493:19494   */\n      0x00\n        /* \"#utility.yul\":19482:19491   */\n      dup4\n        /* \"#utility.yul\":19478:19495   */\n      add\n        /* \"#utility.yul\":19471:19518   */\n      mstore\n        /* \"#utility.yul\":19535:19666   */\n      tag_463\n        /* \"#utility.yul\":19661:19665   */\n      dup2\n        /* \"#utility.yul\":19535:19666   */\n      tag_247\n      jump\t// in\n    tag_463:\n        /* \"#utility.yul\":19527:19666   */\n      swap1\n      pop\n        /* \"#utility.yul\":19254:19673   */\n      swap2\n      swap1\n      pop\n      jump\t// out\n        /* \"#utility.yul\":19679:19908   */\n    tag_248:\n        /* \"#utility.yul\":19819:19853   */\n      0x43616e6e6f742075706461746520726f75746520776974682070757263686173\n        /* \"#utility.yul\":19815:19816   */\n      0x00\n        /* \"#utility.yul\":19807:19813   */\n      dup3\n        /* \"#utility.yul\":19803:19817   */\n      add\n        /* \"#utility.yul\":19796:19854   */\n      mstore\n        /* \"#utility.yul\":19888:19900   */\n      0x6564207469636b65747300000000000000000000000000000000000000000000\n        /* \"#utility.yul\":19883:19885   */\n      0x20\n        /* \"#utility.yul\":19875:19881   */\n      dup3\n        /* \"#utility.yul\":19871:19886   */\n      add\n        /* \"#utility.yul\":19864:19901   */\n      mstore\n        /* \"#utility.yul\":19679:19908   */\n      pop\n      jump\t// out\n        /* \"#utility.yul\":19914:20280   */\n    tag_249:\n        /* \"#utility.yul\":20056:20059   */\n      0x00\n        /* \"#utility.yul\":20077:20144   */\n      tag_466\n        /* \"#utility.yul\":20141:20143   */\n      0x2a\n        /* \"#utility.yul\":20136:20139   */\n      dup4\n        /* \"#utility.yul\":20077:20144   */\n      tag_239\n      jump\t// in\n    tag_466:\n        /* \"#utility.yul\":20070:20144   */\n      swap2\n      pop\n        /* \"#utility.yul\":20153:20246   */\n      tag_467\n        /* \"#utility.yul\":20242:20245   */\n      dup3\n        /* \"#utility.yul\":20153:20246   */\n      tag_248\n      jump\t// in\n    tag_467:\n        /* \"#utility.yul\":20271:20273   */\n      0x40\n        /* \"#utility.yul\":20266:20269   */\n      dup3\n        /* \"#utility.yul\":20262:20274   */\n      add\n        /* \"#utility.yul\":20255:20274   */\n      swap1\n      pop\n        /* \"#utility.yul\":19914:20280   */\n      swap2\n      swap1\n      pop\n      jump\t// out\n        /* \"#utility.yul\":20286:20705   */\n    tag_82:\n        /* \"#utility.yul\":20452:20456   */\n      0x00\n        /* \"#utility.yul\":20490:20492   */\n      0x20\n        /* \"#utility.yul\":20479:20488   */\n      dup3\n        /* \"#utility.yul\":20475:20493   */\n      add\n        /* \"#utility.yul\":20467:20493   */\n      swap1\n      pop\n        /* \"#utility.yul\":20539:20548   */\n      dup2\n        /* \"#utility.yul\":20533:20537   */\n      dup2\n        /* \"#utility.yul\":20529:20549   */\n      sub\n        /* \"#utility.yul\":20525:20526   */\n      0x00\n        /* \"#utility.yul\":20514:20523   */\n      dup4\n        /* \"#utility.yul\":20510:20527   */\n      add\n        /* \"#utility.yul\":20503:20550   */\n      mstore\n        /* \"#utility.yul\":20567:20698   */\n      tag_469\n        /* \"#utility.yul\":20693:20697   */\n      dup2\n        /* \"#utility.yul\":20567:20698   */\n      tag_249\n      jump\t// in\n    tag_469:\n        /* \"#utility.yul\":20559:20698   */\n      swap1\n      pop\n        /* \"#utility.yul\":20286:20705   */\n      swap2\n      swap1\n      pop\n      jump\t// out\n        /* \"#utility.yul\":20711:20891   */\n    tag_250:\n        /* \"#utility.yul\":20759:20836   */\n      0x4e487b7100000000000000000000000000000000000000000000000000000000\n        /* \"#utility.yul\":20756:20757   */\n      0x00\n        /* \"#utility.yul\":20749:20837   */\n      mstore\n        /* \"#utility.yul\":20856:20860   */\n      0x11\n        /* \"#utility.yul\":20853:20854   */\n      0x04\n        /* \"#utility.yul\":20846:20861   */\n      mstore\n        /* \"#utility.yul\":20880:20884   */\n      0x24\n        /* \"#utility.yul\":20877:20878   */\n      0x00\n        /* \"#utility.yul\":20870:20885   */\n      revert\n        /* \"#utility.yul\":20897:21130   */\n    tag_84:\n        /* \"#utility.yul\":20936:20939   */\n      0x00\n        /* \"#utility.yul\":20959:20983   */\n      tag_472\n        /* \"#utility.yul\":20977:20982   */\n      dup3\n        /* \"#utility.yul\":20959:20983   */\n      tag_198\n      jump\t// in\n    tag_472:\n        /* \"#utility.yul\":20950:20983   */\n      swap2\n      pop\n        /* \"#utility.yul\":21005:21071   */\n      0xffffffffffffffffffffffffffffffffffffffffffffffffffffffffffffffff\n        /* \"#utility.yul\":20998:21003   */\n      dup3\n        /* \"#utility.yul\":20995:21072   */\n      sub\n        /* \"#utility.yul\":20992:21095   */\n      tag_473\n      jumpi\n        /* \"#utility.yul\":21075:21093   */\n      tag_474\n      tag_250\n      jump\t// in\n    tag_474:\n        /* \"#utility.yul\":20992:21095   */\n    tag_473:\n        /* \"#utility.yul\":21122:21123   */\n      0x01\n        /* \"#utility.yul\":21115:21120   */\n      dup3\n        /* \"#utility.yul\":21111:21124   */\n      add\n        /* \"#utility.yul\":21104:21124   */\n      swap1\n      pop\n        /* \"#utility.yul\":20897:21130   */\n      swap2\n      swap1\n      pop\n      jump\t// out\n        /* \"#utility.yul\":21136:21316   */\n    tag_251:\n        /* \"#utility.yul\":21184:21261   */\n      0x4e487b7100000000000000000000000000000000000000000000000000000000\n        /* \"#utility.yul\":21181:21182   */\n      0x00\n        /* \"#utility.yul\":21174:21262   */\n      mstore\n        /* \"#utility.yul\":21281:21285   */\n      0x22\n        /* \"#utility.yul\":21278:21279   */\n      0x04\n        /* \"#utility.yul\":21271:21286   */\n      mstore\n        /* \"#utility.yul\":21305:21309   */\n      0x24\n        /* \"#utility.yul\":21302:21303   */\n      0x00\n        /* \"#utility.yul\":21295:21310   */\n      revert\n        /* \"#utility.yul\":21322:21642   */\n    tag_126:\n        /* \"#utility.yul\":21366:21372   */\n      0x00\n        /* \"#utility.yul\":21403:21404   */\n      0x02\n        /* \"#utility.yul\":21397:21401   */\n      dup3\n        /* \"#utility.yul\":21393:21405   */\n      div\n        /* \"#utility.yul\":21383:21405   */\n      swap1\n      pop\n        /* \"#utility.yul\":21450:21451   */\n      0x01\n        /* \"#utility.yul\":21444:21448   */\n      dup3\n        /* \"#utility.yul\":21440:21452   */\n      and\n        /* \"#utility.yul\":21471:21489   */\n      dup1\n        /* \"#utility.yul\":21461:21542   */\n      tag_477\n      jumpi\n        /* \"#utility.yul\":21527:21531   */\n      0x7f\n        /* \"#utility.yul\":21519:21525   */\n      dup3\n        /* \"#utility.yul\":21515:21532   */\n      and\n        /* \"#utility.yul\":21505:21532   */\n      swap2\n      pop\n        /* \"#utility.yul\":21461:21542   */\n    tag_477:\n        /* \"#utility.yul\":21589:21591   */\n      0x20\n        /* \"#utility.yul\":21581:21587   */\n      dup3\n        /* \"#utility.yul\":21578:21592   */\n      lt\n        /* \"#utility.yul\":21558:21576   */\n      dup2\n        /* \"#utility.yul\":21555:21593   */\n      sub\n        /* \"#utility.yul\":21552:21636   */\n      tag_478\n      jumpi\n        /* \"#utility.yul\":21608:21626   */\n      tag_479\n      tag_251\n      jump\t// in\n    tag_479:\n        /* \"#utility.yul\":21552:21636   */\n    tag_478:\n        /* \"#utility.yul\":21373:21642   */\n      pop\n        /* \"#utility.yul\":21322:21642   */\n      swap2\n      swap1\n      pop\n      jump\t// out\n        /* \"#utility.yul\":21648:21789   */\n    tag_252:\n        /* \"#utility.yul\":21697:21701   */\n      0x00\n        /* \"#utility.yul\":21720:21723   */\n      dup2\n        /* \"#utility.yul\":21712:21723   */\n      swap1\n      pop\n        /* \"#utility.yul\":21743:21746   */\n      dup2\n        /* \"#utility.yul\":21740:21741   */\n      0x00\n        /* \"#utility.yul\":21733:21747   */\n      mstore\n        /* \"#utility.yul\":21777:21781   */\n      0x20\n        /* \"#utility.yul\":21774:21775   */\n      0x00\n        /* \"#utility.yul\":21764:21782   */\n      keccak256\n        /* \"#utility.yul\":21756:21782   */\n      swap1\n      pop\n        /* \"#utility.yul\":21648:21789   */\n      swap2\n      swap1\n      pop\n      jump\t// out\n        /* \"#utility.yul\":21795:21888   */\n    tag_253:\n        /* \"#utility.yul\":21832:21838   */\n      0x00\n        /* \"#utility.yul\":21879:21881   */\n      0x20\n        /* \"#utility.yul\":21874:21876   */\n      0x1f\n        /* \"#utility.yul\":21867:21872   */\n      dup4\n        /* \"#utility.yul\":21863:21877   */\n      add\n        /* \"#utility.yul\":21859:21882   */\n      div\n        /* \"#utility.yul\":21849:21882   */\n      swap1\n      pop\n        /* \"#utility.yul\":21795:21888   */\n      swap2\n      swap1\n      pop\n      jump\t// out\n        /* \"#utility.yul\":21894:22001   */\n    tag_254:\n        /* \"#utility.yul\":21938:21946   */\n      0x00\n        /* \"#utility.yul\":21988:21993   */\n      dup3\n        /* \"#utility.yul\":21982:21986   */\n      dup3\n        /* \"#utility.yul\":21978:21994   */\n      shl\n        /* \"#utility.yul\":21957:21994   */\n      swap1\n      pop\n        /* \"#utility.yul\":21894:22001   */\n      swap3\n      swap2\n      pop\n      pop\n      jump\t// out\n        /* \"#utility.yul\":22007:22400   */\n    tag_255:\n        /* \"#utility.yul\":22076:22082   */\n      0x00\n        /* \"#utility.yul\":22126:22127   */\n      0x08\n        /* \"#utility.yul\":22114:22124   */\n      dup4\n        /* \"#utility.yul\":22110:22128   */\n      mul\n        /* \"#utility.yul\":22149:22246   */\n      tag_484\n        /* \"#utility.yul\":22179:22245   */\n      0xffffffffffffffffffffffffffffffffffffffffffffffffffffffffffffffff\n        /* \"#utility.yul\":22168:22177   */\n      dup3\n        /* \"#utility.yul\":22149:22246   */\n      tag_254\n      jump\t// in\n    tag_484:\n        /* \"#utility.yul\":22267:22306   */\n      tag_485\n        /* \"#utility.yul\":22297:22305   */\n      dup7\n        /* \"#utility.yul\":22286:22295   */\n      dup4\n        /* \"#utility.yul\":22267:22306   */\n      tag_254\n      jump\t// in\n    tag_485:\n        /* \"#utility.yul\":22255:22306   */\n      swap6\n      pop\n        /* \"#utility.yul\":22339:22343   */\n      dup1\n        /* \"#utility.yul\":22335:22344   */\n      not\n        /* \"#utility.yul\":22328:22333   */\n      dup5\n        /* \"#utility.yul\":22324:22345   */\n      and\n        /* \"#utility.yul\":22315:22345   */\n      swap4\n      pop\n        /* \"#utility.yul\":22388:22392   */\n      dup1\n        /* \"#utility.yul\":22378:22386   */\n      dup7\n        /* \"#utility.yul\":22374:22393   */\n      and\n        /* \"#utility.yul\":22367:22372   */\n      dup5\n        /* \"#utility.yul\":22364:22394   */\n      or\n        /* \"#utility.yul\":22354:22394   */\n      swap3\n      pop\n        /* \"#utility.yul\":22083:22400   */\n      pop\n      pop\n        /* \"#utility.yul\":22007:22400   */\n      swap4\n      swap3\n      pop\n      pop\n      pop\n      jump\t// out\n        /* \"#utility.yul\":22406:22466   */\n    tag_256:\n        /* \"#utility.yul\":22434:22437   */\n      0x00\n        /* \"#utility.yul\":22455:22460   */\n      dup2\n        /* \"#utility.yul\":22448:22460   */\n      swap1\n      pop\n        /* \"#utility.yul\":22406:22466   */\n      swap2\n      swap1\n      pop\n      jump\t// out\n        /* \"#utility.yul\":22472:22614   */\n    tag_257:\n        /* \"#utility.yul\":22522:22531   */\n      0x00\n        /* \"#utility.yul\":22555:22608   */\n      tag_488\n        /* \"#utility.yul\":22573:22607   */\n      tag_489\n        /* \"#utility.yul\":22582:22606   */\n      tag_490\n        /* \"#utility.yul\":22600:22605   */\n      dup5\n        /* \"#utility.yul\":22582:22606   */\n      tag_198\n      jump\t// in\n    tag_490:\n        /* \"#utility.yul\":22573:22607   */\n      tag_256\n      jump\t// in\n    tag_489:\n        /* \"#utility.yul\":22555:22608   */\n      tag_198\n      jump\t// in\n    tag_488:\n        /* \"#utility.yul\":22542:22608   */\n      swap1\n      pop\n        /* \"#utility.yul\":22472:22614   */\n      swap2\n      swap1\n      pop\n      jump\t// out\n        /* \"#utility.yul\":22620:22695   */\n    tag_258:\n        /* \"#utility.yul\":22663:22666   */\n      0x00\n        /* \"#utility.yul\":22684:22689   */\n      dup2\n        /* \"#utility.yul\":22677:22689   */\n      swap1\n      pop\n        /* \"#utility.yul\":22620:22695   */\n      swap2\n      swap1\n      pop\n      jump\t// out\n        /* \"#utility.yul\":22701:22970   */\n    tag_259:\n        /* \"#utility.yul\":22811:22850   */\n      tag_493\n        /* \"#utility.yul\":22842:22849   */\n      dup4\n        /* \"#utility.yul\":22811:22850   */\n      tag_257\n      jump\t// in\n    tag_493:\n        /* \"#utility.yul\":22872:22963   */\n      tag_494\n        /* \"#utility.yul\":22921:22962   */\n      tag_495\n        /* \"#utility.yul\":22945:22961   */\n      dup3\n        /* \"#utility.yul\":22921:22962   */\n      tag_258\n      jump\t// in\n    tag_495:\n        /* \"#utility.yul\":22913:22919   */\n      dup5\n        /* \"#utility.yul\":22906:22910   */\n      dup5\n        /* \"#utility.yul\":22900:22911   */\n      sload\n        /* \"#utility.yul\":22872:22963   */\n      tag_255\n      jump\t// in\n    tag_494:\n        /* \"#utility.yul\":22866:22870   */\n      dup3\n        /* \"#utility.yul\":22859:22964   */\n      sstore\n        /* \"#utility.yul\":22777:22970   */\n      pop\n        /* \"#utility.yul\":22701:22970   */\n      pop\n      pop\n      pop\n      jump\t// out\n        /* \"#utility.yul\":22976:23049   */\n    tag_260:\n        /* \"#utility.yul\":23021:23024   */\n      0x00\n        /* \"#utility.yul\":22976:23049   */\n      swap1\n      jump\t// out\n        /* \"#utility.yul\":23055:23244   */\n    tag_261:\n        /* \"#utility.yul\":23132:23164   */\n      tag_498\n      tag_260\n      jump\t// in\n    tag_498:\n        /* \"#utility.yul\":23173:23238   */\n      tag_499\n        /* \"#utility.yul\":23231:23237   */\n      dup2\n        /* \"#utility.yul\":23223:23229   */\n      dup5\n        /* \"#utility.yul\":23217:23221   */\n      dup5\n        /* \"#utility.yul\":23173:23238   */\n      tag_259\n      jump\t// in\n    tag_499:\n        /* \"#utility.yul\":23108:23244   */\n      pop\n        /* \"#utility.yul\":23055:23244   */\n      pop\n      pop\n      jump\t// out\n        /* \"#utility.yul\":23250:23436   */\n    tag_262:\n        /* \"#utility.yul\":23310:23430   */\n    tag_501:\n        /* \"#utility.yul\":23327:23330   */\n      dup2\n        /* \"#utility.yul\":23320:23325   */\n      dup2\n        /* \"#utility.yul\":23317:23331   */\n      lt\n        /* \"#utility.yul\":23310:23430   */\n      iszero\n      tag_503\n      jumpi\n        /* \"#utility.yul\":23381:23420   */\n      tag_504\n        /* \"#utility.yul\":23418:23419   */\n      0x00\n        /* \"#utility.yul\":23411:23416   */\n      dup3\n        /* \"#utility.yul\":23381:23420   */\n      tag_261\n      jump\t// in\n    tag_504:\n        /* \"#utility.yul\":23354:23355   */\n      0x01\n        /* \"#utility.yul\":23347:23352   */\n      dup2\n        /* \"#utility.yul\":23343:23356   */\n      add\n        /* \"#utility.yul\":23334:23356   */\n      swap1\n      pop\n        /* \"#utility.yul\":23310:23430   */\n      jump(tag_501)\n    tag_503:\n        /* \"#utility.yul\":23250:23436   */\n      pop\n      pop\n      jump\t// out\n        /* \"#utility.yul\":23442:23985   */\n    tag_263:\n        /* \"#utility.yul\":23543:23545   */\n      0x1f\n        /* \"#utility.yul\":23538:23541   */\n      dup3\n        /* \"#utility.yul\":23535:23546   */\n      gt\n        /* \"#utility.yul\":23532:23978   */\n      iszero\n      tag_506\n      jumpi\n        /* \"#utility.yul\":23577:23615   */\n      tag_507\n        /* \"#utility.yul\":23609:23614   */\n      dup2\n        /* \"#utility.yul\":23577:23615   */\n      tag_252\n      jump\t// in\n    tag_507:\n        /* \"#utility.yul\":23661:23690   */\n      tag_508\n        /* \"#utility.yul\":23679:23689   */\n      dup5\n        /* \"#utility.yul\":23661:23690   */\n      tag_253\n      jump\t// in\n    tag_508:\n        /* \"#utility.yul\":23651:23659   */\n      dup2\n        /* \"#utility.yul\":23647:23691   */\n      add\n        /* \"#utility.yul\":23844:23846   */\n      0x20\n        /* \"#utility.yul\":23832:23842   */\n      dup6\n        /* \"#utility.yul\":23829:23847   */\n      lt\n        /* \"#utility.yul\":23826:23875   */\n      iszero\n      tag_509\n      jumpi\n        /* \"#utility.yul\":23865:23873   */\n      dup2\n        /* \"#utility.yul\":23850:23873   */\n      swap1\n      pop\n        /* \"#utility.yul\":23826:23875   */\n    tag_509:\n        /* \"#utility.yul\":23888:23968   */\n      tag_510\n        /* \"#utility.yul\":23944:23966   */\n      tag_511\n        /* \"#utility.yul\":23962:23965   */\n      dup6\n        /* \"#utility.yul\":23944:23966   */\n      tag_253\n      jump\t// in\n    tag_511:\n        /* \"#utility.yul\":23934:23942   */\n      dup4\n        /* \"#utility.yul\":23930:23967   */\n      add\n        /* \"#utility.yul\":23917:23928   */\n      dup3\n        /* \"#utility.yul\":23888:23968   */\n      tag_262\n      jump\t// in\n    tag_510:\n        /* \"#utility.yul\":23547:23978   */\n      pop\n      pop\n        /* \"#utility.yul\":23532:23978   */\n    tag_506:\n        /* \"#utility.yul\":23442:23985   */\n      pop\n      pop\n      pop\n      jump\t// out\n        /* \"#utility.yul\":23991:24108   */\n    tag_264:\n        /* \"#utility.yul\":24045:24053   */\n      0x00\n        /* \"#utility.yul\":24095:24100   */\n      dup3\n        /* \"#utility.yul\":24089:24093   */\n      dup3\n        /* \"#utility.yul\":24085:24101   */\n      shr\n        /* \"#utility.yul\":24064:24101   */\n      swap1\n      pop\n        /* \"#utility.yul\":23991:24108   */\n      swap3\n      swap2\n      pop\n      pop\n      jump\t// out\n        /* \"#utility.yul\":24114:24283   */\n    tag_265:\n        /* \"#utility.yul\":24158:24164   */\n      0x00\n        /* \"#utility.yul\":24191:24242   */\n      tag_514\n        /* \"#utility.yul\":24239:24240   */\n      0x00\n        /* \"#utility.yul\":24235:24241   */\n      not\n        /* \"#utility.yul\":24227:24232   */\n      dup5\n        /* \"#utility.yul\":24224:24225   */\n      0x08\n        /* \"#utility.yul\":24220:24233   */\n      mul\n        /* \"#utility.yul\":24191:24242   */\n      tag_264\n      jump\t// in\n    tag_514:\n        /* \"#utility.yul\":24187:24243   */\n      not\n        /* \"#utility.yul\":24272:24276   */\n      dup1\n        /* \"#utility.yul\":24266:24270   */\n      dup4\n        /* \"#utility.yul\":24262:24277   */\n      and\n        /* \"#utility.yul\":24252:24277   */\n      swap2\n      pop\n        /* \"#utility.yul\":24165:24283   */\n      pop\n        /* \"#utility.yul\":24114:24283   */\n      swap3\n      swap2\n      pop\n      pop\n      jump\t// out\n        /* \"#utility.yul\":24288:24583   */\n    tag_266:\n        /* \"#utility.yul\":24364:24368   */\n      0x00\n        /* \"#utility.yul\":24510:24539   */\n      tag_516\n        /* \"#utility.yul\":24535:24538   */\n      dup4\n        /* \"#utility.yul\":24529:24533   */\n      dup4\n        /* \"#utility.yul\":24510:24539   */\n      tag_265\n      jump\t// in\n    tag_516:\n        /* \"#utility.yul\":24502:24539   */\n      swap2\n      pop\n        /* \"#utility.yul\":24572:24575   */\n      dup3\n        /* \"#utility.yul\":24569:24570   */\n      0x02\n        /* \"#utility.yul\":24565:24576   */\n      mul\n        /* \"#utility.yul\":24559:24563   */\n      dup3\n        /* \"#utility.yul\":24556:24577   */\n      or\n        /* \"#utility.yul\":24548:24577   */\n      swap1\n      pop\n        /* \"#utility.yul\":24288:24583   */\n      swap3\n      swap2\n      pop\n      pop\n      jump\t// out\n        /* \"#utility.yul\":24588:25983   */\n    tag_86:\n        /* \"#utility.yul\":24705:24742   */\n      tag_518\n        /* \"#utility.yul\":24738:24741   */\n      dup3\n        /* \"#utility.yul\":24705:24742   */\n      tag_229\n      jump\t// in\n    tag_518:\n        /* \"#utility.yul\":24807:24825   */\n      0xffffffffffffffff\n        /* \"#utility.yul\":24799:24805   */\n      dup2\n        /* \"#utility.yul\":24796:24826   */\n      gt\n        /* \"#utility.yul\":24793:24849   */\n      iszero\n      tag_519\n      jumpi\n        /* \"#utility.yul\":24829:24847   */\n      tag_520\n      tag_115\n      jump\t// in\n    tag_520:\n        /* \"#utility.yul\":24793:24849   */\n    tag_519:\n        /* \"#utility.yul\":24873:24911   */\n      tag_521\n        /* \"#utility.yul\":24905:24909   */\n      dup3\n        /* \"#utility.yul\":24899:24910   */\n      sload\n        /* \"#utility.yul\":24873:24911   */\n      tag_126\n      jump\t// in\n    tag_521:\n        /* \"#utility.yul\":24958:25025   */\n      tag_522\n        /* \"#utility.yul\":25018:25024   */\n      dup3\n        /* \"#utility.yul\":25010:25016   */\n      dup3\n        /* \"#utility.yul\":25004:25008   */\n      dup6\n        /* \"#utility.yul\":24958:25025   */\n      tag_263\n      jump\t// in\n    tag_522:\n        /* \"#utility.yul\":25052:25053   */\n      0x00\n        /* \"#utility.yul\":25076:25080   */\n      0x20\n        /* \"#utility.yul\":25063:25080   */\n      swap1\n      pop\n        /* \"#utility.yul\":25108:25110   */\n      0x1f\n        /* \"#utility.yul\":25100:25106   */\n      dup4\n        /* \"#utility.yul\":25097:25111   */\n      gt\n        /* \"#utility.yul\":25125:25126   */\n      0x01\n        /* \"#utility.yul\":25120:25738   */\n      dup2\n      eq\n      tag_524\n      jumpi\n        /* \"#utility.yul\":25782:25783   */\n      0x00\n        /* \"#utility.yul\":25799:25805   */\n      dup5\n        /* \"#utility.yul\":25796:25873   */\n      iszero\n      tag_525\n      jumpi\n        /* \"#utility.yul\":25848:25857   */\n      dup3\n        /* \"#utility.yul\":25843:25846   */\n      dup8\n        /* \"#utility.yul\":25839:25858   */\n      add\n        /* \"#utility.yul\":25833:25859   */\n      mload\n        /* \"#utility.yul\":25824:25859   */\n      swap1\n      pop\n        /* \"#utility.yul\":25796:25873   */\n    tag_525:\n        /* \"#utility.yul\":25899:25966   */\n      tag_526\n        /* \"#utility.yul\":25959:25965   */\n      dup6\n        /* \"#utility.yul\":25952:25957   */\n      dup3\n        /* \"#utility.yul\":25899:25966   */\n      tag_266\n      jump\t// in\n    tag_526:\n        /* \"#utility.yul\":25893:25897   */\n      dup7\n        /* \"#utility.yul\":25886:25967   */\n      sstore\n        /* \"#utility.yul\":25755:25977   */\n      pop\n        /* \"#utility.yul\":25090:25977   */\n      jump(tag_523)\n        /* \"#utility.yul\":25120:25738   */\n    tag_524:\n        /* \"#utility.yul\":25172:25176   */\n      0x1f\n        /* \"#utility.yul\":25168:25177   */\n      not\n        /* \"#utility.yul\":25160:25166   */\n      dup5\n        /* \"#utility.yul\":25156:25178   */\n      and\n        /* \"#utility.yul\":25206:25243   */\n      tag_527\n        /* \"#utility.yul\":25238:25242   */\n      dup7\n        /* \"#utility.yul\":25206:25243   */\n      tag_252\n      jump\t// in\n    tag_527:\n        /* \"#utility.yul\":25265:25266   */\n      0x00\n        /* \"#utility.yul\":25279:25487   */\n    tag_528:\n        /* \"#utility.yul\":25293:25300   */\n      dup3\n        /* \"#utility.yul\":25290:25291   */\n      dup2\n        /* \"#utility.yul\":25287:25301   */\n      lt\n        /* \"#utility.yul\":25279:25487   */\n      iszero\n      tag_530\n      jumpi\n        /* \"#utility.yul\":25372:25381   */\n      dup5\n        /* \"#utility.yul\":25367:25370   */\n      dup10\n        /* \"#utility.yul\":25363:25382   */\n      add\n        /* \"#utility.yul\":25357:25383   */\n      mload\n        /* \"#utility.yul\":25349:25355   */\n      dup3\n        /* \"#utility.yul\":25342:25384   */\n      sstore\n        /* \"#utility.yul\":25423:25424   */\n      0x01\n        /* \"#utility.yul\":25415:25421   */\n      dup3\n        /* \"#utility.yul\":25411:25425   */\n      add\n        /* \"#utility.yul\":25401:25425   */\n      swap2\n      pop\n        /* \"#utility.yul\":25470:25472   */\n      0x20\n        /* \"#utility.yul\":25459:25468   */\n      dup6\n        /* \"#utility.yul\":25455:25473   */\n      add\n        /* \"#utility.yul\":25442:25473   */\n      swap5\n      pop\n        /* \"#utility.yul\":25316:25320   */\n      0x20\n        /* \"#utility.yul\":25313:25314   */\n      dup2\n        /* \"#utility.yul\":25309:25321   */\n      add\n        /* \"#utility.yul\":25304:25321   */\n      swap1\n      pop\n        /* \"#utility.yul\":25279:25487   */\n      jump(tag_528)\n    tag_530:\n        /* \"#utility.yul\":25515:25521   */\n      dup7\n        /* \"#utility.yul\":25506:25513   */\n      dup4\n        /* \"#utility.yul\":25503:25522   */\n      lt\n        /* \"#utility.yul\":25500:25679   */\n      iszero\n      tag_531\n      jumpi\n        /* \"#utility.yul\":25573:25582   */\n      dup5\n        /* \"#utility.yul\":25568:25571   */\n      dup10\n        /* \"#utility.yul\":25564:25583   */\n      add\n        /* \"#utility.yul\":25558:25584   */\n      mload\n        /* \"#utility.yul\":25616:25664   */\n      tag_532\n        /* \"#utility.yul\":25658:25662   */\n      0x1f\n        /* \"#utility.yul\":25650:25656   */\n      dup10\n        /* \"#utility.yul\":25646:25663   */\n      and\n        /* \"#utility.yul\":25635:25644   */\n      dup3\n        /* \"#utility.yul\":25616:25664   */\n      tag_265\n      jump\t// in\n    tag_532:\n        /* \"#utility.yul\":25608:25614   */\n      dup4\n        /* \"#utility.yul\":25601:25665   */\n      sstore\n        /* \"#utility.yul\":25523:25679   */\n      pop\n        /* \"#utility.yul\":25500:25679   */\n    tag_531:\n        /* \"#utility.yul\":25725:25726   */\n      0x01\n        /* \"#utility.yul\":25721:25722   */\n      0x02\n        /* \"#utility.yul\":25713:25719   */\n      dup9\n        /* \"#utility.yul\":25709:25723   */\n      mul\n        /* \"#utility.yul\":25705:25727   */\n      add\n        /* \"#utility.yul\":25699:25703   */\n      dup9\n        /* \"#utility.yul\":25692:25728   */\n      sstore\n        /* \"#utility.yul\":25127:25738   */\n      pop\n      pop\n      pop\n        /* \"#utility.yul\":25090:25977   */\n    tag_523:\n      pop\n        /* \"#utility.yul\":24680:25983   */\n      pop\n      pop\n      pop\n        /* \"#utility.yul\":24588:25983   */\n      pop\n      pop\n      jump\t// out\n        /* \"#utility.yul\":25989:26154   */\n    tag_267:\n        /* \"#utility.yul\":26129:26146   */\n      0x55706461746564206120726f7574650000000000000000000000000000000000\n        /* \"#utility.yul\":26125:26126   */\n      0x00\n        /* \"#utility.yul\":26117:26123   */\n      dup3\n        /* \"#utility.yul\":26113:26127   */\n      add\n        /* \"#utility.yul\":26106:26147   */\n      mstore\n        /* \"#utility.yul\":25989:26154   */\n      pop\n      jump\t// out\n        /* \"#utility.yul\":26160:26526   */\n    tag_268:\n        /* \"#utility.yul\":26302:26305   */\n      0x00\n        /* \"#utility.yul\":26323:26390   */\n      tag_535\n        /* \"#utility.yul\":26387:26389   */\n      0x0f\n        /* \"#utility.yul\":26382:26385   */\n      dup4\n        /* \"#utility.yul\":26323:26390   */\n      tag_239\n      jump\t// in\n    tag_535:\n        /* \"#utility.yul\":26316:26390   */\n      swap2\n      pop\n        /* \"#utility.yul\":26399:26492   */\n      tag_536\n        /* \"#utility.yul\":26488:26491   */\n      dup3\n        /* \"#utility.yul\":26399:26492   */\n      tag_267\n      jump\t// in\n    tag_536:\n        /* \"#utility.yul\":26517:26519   */\n      0x20\n        /* \"#utility.yul\":26512:26515   */\n      dup3\n        /* \"#utility.yul\":26508:26520   */\n      add\n        /* \"#utility.yul\":26501:26520   */\n      swap1\n      pop\n        /* \"#utility.yul\":26160:26526   */\n      swap2\n      swap1\n      pop\n      jump\t// out\n        /* \"#utility.yul\":26532:26951   */\n    tag_89:\n        /* \"#utility.yul\":26698:26702   */\n      0x00\n        /* \"#utility.yul\":26736:26738   */\n      0x20\n        /* \"#utility.yul\":26725:26734   */\n      dup3\n        /* \"#utility.yul\":26721:26739   */\n      add\n        /* \"#utility.yul\":26713:26739   */\n      swap1\n      pop\n        /* \"#utility.yul\":26785:26794   */\n      dup2\n        /* \"#utility.yul\":26779:26783   */\n      dup2\n        /* \"#utility.yul\":26775:26795   */\n      sub\n        /* \"#utility.yul\":26771:26772   */\n      0x00\n        /* \"#utility.yul\":26760:26769   */\n      dup4\n        /* \"#utility.yul\":26756:26773   */\n      add\n        /* \"#utility.yul\":26749:26796   */\n      mstore\n        /* \"#utility.yul\":26813:26944   */\n      tag_538\n        /* \"#utility.yul\":26939:26943   */\n      dup2\n        /* \"#utility.yul\":26813:26944   */\n      tag_268\n      jump\t// in\n    tag_538:\n        /* \"#utility.yul\":26805:26944   */\n      swap1\n      pop\n        /* \"#utility.yul\":26532:26951   */\n      swap2\n      swap1\n      pop\n      jump\t// out\n        /* \"#utility.yul\":26957:27124   */\n    tag_269:\n        /* \"#utility.yul\":27097:27116   */\n      0x496e73756666696369656e742066756e64000000000000000000000000000000\n        /* \"#utility.yul\":27093:27094   */\n      0x00\n        /* \"#utility.yul\":27085:27091   */\n      dup3\n        /* \"#utility.yul\":27081:27095   */\n      add\n        /* \"#utility.yul\":27074:27117   */\n      mstore\n        /* \"#utility.yul\":26957:27124   */\n      pop\n      jump\t// out\n        /* \"#utility.yul\":27130:27496   */\n    tag_270:\n        /* \"#utility.yul\":27272:27275   */\n      0x00\n        /* \"#utility.yul\":27293:27360   */\n      tag_541\n        /* \"#utility.yul\":27357:27359   */\n      0x11\n        /* \"#utility.yul\":27352:27355   */\n      dup4\n        /* \"#utility.yul\":27293:27360   */\n      tag_239\n      jump\t// in\n    tag_541:\n        /* \"#utility.yul\":27286:27360   */\n      swap2\n      pop\n        /* \"#utility.yul\":27369:27462   */\n      tag_542\n        /* \"#utility.yul\":27458:27461   */\n      dup3\n        /* \"#utility.yul\":27369:27462   */\n      tag_269\n      jump\t// in\n    tag_542:\n        /* \"#utility.yul\":27487:27489   */\n      0x20\n        /* \"#utility.yul\":27482:27485   */\n      dup3\n        /* \"#utility.yul\":27478:27490   */\n      add\n        /* \"#utility.yul\":27471:27490   */\n      swap1\n      pop\n        /* \"#utility.yul\":27130:27496   */\n      swap2\n      swap1\n      pop\n      jump\t// out\n        /* \"#utility.yul\":27502:27921   */\n    tag_96:\n        /* \"#utility.yul\":27668:27672   */\n      0x00\n        /* \"#utility.yul\":27706:27708   */\n      0x20\n        /* \"#utility.yul\":27695:27704   */\n      dup3\n        /* \"#utility.yul\":27691:27709   */\n      add\n        /* \"#utility.yul\":27683:27709   */\n      swap1\n      pop\n        /* \"#utility.yul\":27755:27764   */\n      dup2\n        /* \"#utility.yul\":27749:27753   */\n      dup2\n        /* \"#utility.yul\":27745:27765   */\n      sub\n        /* \"#utility.yul\":27741:27742   */\n      0x00\n        /* \"#utility.yul\":27730:27739   */\n      dup4\n        /* \"#utility.yul\":27726:27743   */\n      add\n        /* \"#utility.yul\":27719:27766   */\n      mstore\n        /* \"#utility.yul\":27783:27914   */\n      tag_544\n        /* \"#utility.yul\":27909:27913   */\n      dup2\n        /* \"#utility.yul\":27783:27914   */\n      tag_270\n      jump\t// in\n    tag_544:\n        /* \"#utility.yul\":27775:27914   */\n      swap1\n      pop\n        /* \"#utility.yul\":27502:27921   */\n      swap2\n      swap1\n      pop\n      jump\t// out\n        /* \"#utility.yul\":27927:28121   */\n    tag_98:\n        /* \"#utility.yul\":27967:27971   */\n      0x00\n        /* \"#utility.yul\":27987:28007   */\n      tag_546\n        /* \"#utility.yul\":28005:28006   */\n      dup3\n        /* \"#utility.yul\":27987:28007   */\n      tag_198\n      jump\t// in\n    tag_546:\n        /* \"#utility.yul\":27982:28007   */\n      swap2\n      pop\n        /* \"#utility.yul\":28021:28041   */\n      tag_547\n        /* \"#utility.yul\":28039:28040   */\n      dup4\n        /* \"#utility.yul\":28021:28041   */\n      tag_198\n      jump\t// in\n    tag_547:\n        /* \"#utility.yul\":28016:28041   */\n      swap3\n      pop\n        /* \"#utility.yul\":28065:28066   */\n      dup3\n        /* \"#utility.yul\":28062:28063   */\n      dup3\n        /* \"#utility.yul\":28058:28067   */\n      sub\n        /* \"#utility.yul\":28050:28067   */\n      swap1\n      pop\n        /* \"#utility.yul\":28089:28090   */\n      dup2\n        /* \"#utility.yul\":28083:28087   */\n      dup2\n        /* \"#utility.yul\":28080:28091   */\n      gt\n        /* \"#utility.yul\":28077:28114   */\n      iszero\n      tag_548\n      jumpi\n        /* \"#utility.yul\":28094:28112   */\n      tag_549\n      tag_250\n      jump\t// in\n    tag_549:\n        /* \"#utility.yul\":28077:28114   */\n    tag_548:\n        /* \"#utility.yul\":27927:28121   */\n      swap3\n      swap2\n      pop\n      pop\n      jump\t// out\n        /* \"#utility.yul\":28127:28307   */\n    tag_138:\n        /* \"#utility.yul\":28175:28252   */\n      0x4e487b7100000000000000000000000000000000000000000000000000000000\n        /* \"#utility.yul\":28172:28173   */\n      0x00\n        /* \"#utility.yul\":28165:28253   */\n      mstore\n        /* \"#utility.yul\":28272:28276   */\n      0x32\n        /* \"#utility.yul\":28269:28270   */\n      0x04\n        /* \"#utility.yul\":28262:28277   */\n      mstore\n        /* \"#utility.yul\":28296:28300   */\n      0x24\n        /* \"#utility.yul\":28293:28294   */\n      0x00\n        /* \"#utility.yul\":28286:28301   */\n      revert\n        /* \"#utility.yul\":28313:28540   */\n    tag_271:\n        /* \"#utility.yul\":28453:28487   */\n      0x43616e742064656c65746520726f757465207769746820707572636861736564\n        /* \"#utility.yul\":28449:28450   */\n      0x00\n        /* \"#utility.yul\":28441:28447   */\n      dup3\n        /* \"#utility.yul\":28437:28451   */\n      add\n        /* \"#utility.yul\":28430:28488   */\n      mstore\n        /* \"#utility.yul\":28522:28532   */\n      0x207469636b657473000000000000000000000000000000000000000000000000\n        /* \"#utility.yul\":28517:28519   */\n      0x20\n        /* \"#utility.yul\":28509:28515   */\n      dup3\n        /* \"#utility.yul\":28505:28520   */\n      add\n        /* \"#utility.yul\":28498:28533   */\n      mstore\n        /* \"#utility.yul\":28313:28540   */\n      pop\n      jump\t// out\n        /* \"#utility.yul\":28546:28912   */\n    tag_272:\n        /* \"#utility.yul\":28688:28691   */\n      0x00\n        /* \"#utility.yul\":28709:28776   */\n      tag_553\n        /* \"#utility.yul\":28773:28775   */\n      0x28\n        /* \"#utility.yul\":28768:28771   */\n      dup4\n        /* \"#utility.yul\":28709:28776   */\n      tag_239\n      jump\t// in\n    tag_553:\n        /* \"#utility.yul\":28702:28776   */\n      swap2\n      pop\n        /* \"#utility.yul\":28785:28878   */\n      tag_554\n        /* \"#utility.yul\":28874:28877   */\n      dup3\n        /* \"#utility.yul\":28785:28878   */\n      tag_271\n      jump\t// in\n    tag_554:\n        /* \"#utility.yul\":28903:28905   */\n      0x40\n        /* \"#utility.yul\":28898:28901   */\n      dup3\n        /* \"#utility.yul\":28894:28906   */\n      add\n        /* \"#utility.yul\":28887:28906   */\n      swap1\n      pop\n        /* \"#utility.yul\":28546:28912   */\n      swap2\n      swap1\n      pop\n      jump\t// out\n        /* \"#utility.yul\":28918:29337   */\n    tag_156:\n        /* \"#utility.yul\":29084:29088   */\n      0x00\n        /* \"#utility.yul\":29122:29124   */\n      0x20\n        /* \"#utility.yul\":29111:29120   */\n      dup3\n        /* \"#utility.yul\":29107:29125   */\n      add\n        /* \"#utility.yul\":29099:29125   */\n      swap1\n      pop\n        /* \"#utility.yul\":29171:29180   */\n      dup2\n        /* \"#utility.yul\":29165:29169   */\n      dup2\n        /* \"#utility.yul\":29161:29181   */\n      sub\n        /* \"#utility.yul\":29157:29158   */\n      0x00\n        /* \"#utility.yul\":29146:29155   */\n      dup4\n        /* \"#utility.yul\":29142:29159   */\n      add\n        /* \"#utility.yul\":29135:29182   */\n      mstore\n        /* \"#utility.yul\":29199:29330   */\n      tag_556\n        /* \"#utility.yul\":29325:29329   */\n      dup2\n        /* \"#utility.yul\":29199:29330   */\n      tag_272\n      jump\t// in\n    tag_556:\n        /* \"#utility.yul\":29191:29330   */\n      swap1\n      pop\n        /* \"#utility.yul\":28918:29337   */\n      swap2\n      swap1\n      pop\n      jump\t// out\n        /* \"#utility.yul\":29343:29508   */\n    tag_273:\n        /* \"#utility.yul\":29483:29500   */\n      0x44656c65746564206120726f7574650000000000000000000000000000000000\n        /* \"#utility.yul\":29479:29480   */\n      0x00\n        /* \"#utility.yul\":29471:29477   */\n      dup3\n        /* \"#utility.yul\":29467:29481   */\n      add\n        /* \"#utility.yul\":29460:29501   */\n      mstore\n        /* \"#utility.yul\":29343:29508   */\n      pop\n      jump\t// out\n        /* \"#utility.yul\":29514:29880   */\n    tag_274:\n        /* \"#utility.yul\":29656:29659   */\n      0x00\n        /* \"#utility.yul\":29677:29744   */\n      tag_559\n        /* \"#utility.yul\":29741:29743   */\n      0x0f\n        /* \"#utility.yul\":29736:29739   */\n      dup4\n        /* \"#utility.yul\":29677:29744   */\n      tag_239\n      jump\t// in\n    tag_559:\n        /* \"#utility.yul\":29670:29744   */\n      swap2\n      pop\n        /* \"#utility.yul\":29753:29846   */\n      tag_560\n        /* \"#utility.yul\":29842:29845   */\n      dup3\n        /* \"#utility.yul\":29753:29846   */\n      tag_273\n      jump\t// in\n    tag_560:\n        /* \"#utility.yul\":29871:29873   */\n      0x20\n        /* \"#utility.yul\":29866:29869   */\n      dup3\n        /* \"#utility.yul\":29862:29874   */\n      add\n        /* \"#utility.yul\":29855:29874   */\n      swap1\n      pop\n        /* \"#utility.yul\":29514:29880   */\n      swap2\n      swap1\n      pop\n      jump\t// out\n        /* \"#utility.yul\":29886:30305   */\n    tag_159:\n        /* \"#utility.yul\":30052:30056   */\n      0x00\n        /* \"#utility.yul\":30090:30092   */\n      0x20\n        /* \"#utility.yul\":30079:30088   */\n      dup3\n        /* \"#utility.yul\":30075:30093   */\n      add\n        /* \"#utility.yul\":30067:30093   */\n      swap1\n      pop\n        /* \"#utility.yul\":30139:30148   */\n      dup2\n        /* \"#utility.yul\":30133:30137   */\n      dup2\n        /* \"#utility.yul\":30129:30149   */\n      sub\n        /* \"#utility.yul\":30125:30126   */\n      0x00\n        /* \"#utility.yul\":30114:30123   */\n      dup4\n        /* \"#utility.yul\":30110:30127   */\n      add\n        /* \"#utility.yul\":30103:30150   */\n      mstore\n        /* \"#utility.yul\":30167:30298   */\n      tag_562\n        /* \"#utility.yul\":30293:30297   */\n      dup2\n        /* \"#utility.yul\":30167:30298   */\n      tag_274\n      jump\t// in\n    tag_562:\n        /* \"#utility.yul\":30159:30298   */\n      swap1\n      pop\n        /* \"#utility.yul\":29886:30305   */\n      swap2\n      swap1\n      pop\n      jump\t// out\n        /* \"#utility.yul\":30311:30480   */\n    tag_275:\n        /* \"#utility.yul\":30451:30472   */\n      0x437265617465642061206e657720526f75746500000000000000000000000000\n        /* \"#utility.yul\":30447:30448   */\n      0x00\n        /* \"#utility.yul\":30439:30445   */\n      dup3\n        /* \"#utility.yul\":30435:30449   */\n      add\n        /* \"#utility.yul\":30428:30473   */\n      mstore\n        /* \"#utility.yul\":30311:30480   */\n      pop\n      jump\t// out\n        /* \"#utility.yul\":30486:30852   */\n    tag_276:\n        /* \"#utility.yul\":30628:30631   */\n      0x00\n        /* \"#utility.yul\":30649:30716   */\n      tag_565\n        /* \"#utility.yul\":30713:30715   */\n      0x13\n        /* \"#utility.yul\":30708:30711   */\n      dup4\n        /* \"#utility.yul\":30649:30716   */\n      tag_239\n      jump\t// in\n    tag_565:\n        /* \"#utility.yul\":30642:30716   */\n      swap2\n      pop\n        /* \"#utility.yul\":30725:30818   */\n      tag_566\n        /* \"#utility.yul\":30814:30817   */\n      dup3\n        /* \"#utility.yul\":30725:30818   */\n      tag_275\n      jump\t// in\n    tag_566:\n        /* \"#utility.yul\":30843:30845   */\n      0x20\n        /* \"#utility.yul\":30838:30841   */\n      dup3\n        /* \"#utility.yul\":30834:30846   */\n      add\n        /* \"#utility.yul\":30827:30846   */\n      swap1\n      pop\n        /* \"#utility.yul\":30486:30852   */\n      swap2\n      swap1\n      pop\n      jump\t// out\n        /* \"#utility.yul\":30858:31277   */\n    tag_177:\n        /* \"#utility.yul\":31024:31028   */\n      0x00\n        /* \"#utility.yul\":31062:31064   */\n      0x20\n        /* \"#utility.yul\":31051:31060   */\n      dup3\n        /* \"#utility.yul\":31047:31065   */\n      add\n        /* \"#utility.yul\":31039:31065   */\n      swap1\n      pop\n        /* \"#utility.yul\":31111:31120   */\n      dup2\n        /* \"#utility.yul\":31105:31109   */\n      dup2\n        /* \"#utility.yul\":31101:31121   */\n      sub\n        /* \"#utility.yul\":31097:31098   */\n      0x00\n        /* \"#utility.yul\":31086:31095   */\n      dup4\n        /* \"#utility.yul\":31082:31099   */\n      add\n        /* \"#utility.yul\":31075:31122   */\n      mstore\n        /* \"#utility.yul\":31139:31270   */\n      tag_568\n        /* \"#utility.yul\":31265:31269   */\n      dup2\n        /* \"#utility.yul\":31139:31270   */\n      tag_276\n      jump\t// in\n    tag_568:\n        /* \"#utility.yul\":31131:31270   */\n      swap1\n      pop\n        /* \"#utility.yul\":30858:31277   */\n      swap2\n      swap1\n      pop\n      jump\t// out\n        /* \"#utility.yul\":31283:31464   */\n    tag_277:\n        /* \"#utility.yul\":31423:31456   */\n      0x52656369766572206d75737420626520612076616c6964206164647265737300\n        /* \"#utility.yul\":31419:31420   */\n      0x00\n        /* \"#utility.yul\":31411:31417   */\n      dup3\n        /* \"#utility.yul\":31407:31421   */\n      add\n        /* \"#utility.yul\":31400:31457   */\n      mstore\n        /* \"#utility.yul\":31283:31464   */\n      pop\n      jump\t// out\n        /* \"#utility.yul\":31470:31836   */\n    tag_278:\n        /* \"#utility.yul\":31612:31615   */\n      0x00\n        /* \"#utility.yul\":31633:31700   */\n      tag_571\n        /* \"#utility.yul\":31697:31699   */\n      0x1f\n        /* \"#utility.yul\":31692:31695   */\n      dup4\n        /* \"#utility.yul\":31633:31700   */\n      tag_239\n      jump\t// in\n    tag_571:\n        /* \"#utility.yul\":31626:31700   */\n      swap2\n      pop\n        /* \"#utility.yul\":31709:31802   */\n      tag_572\n        /* \"#utility.yul\":31798:31801   */\n      dup3\n        /* \"#utility.yul\":31709:31802   */\n      tag_277\n      jump\t// in\n    tag_572:\n        /* \"#utility.yul\":31827:31829   */\n      0x20\n        /* \"#utility.yul\":31822:31825   */\n      dup3\n        /* \"#utility.yul\":31818:31830   */\n      add\n        /* \"#utility.yul\":31811:31830   */\n      swap1\n      pop\n        /* \"#utility.yul\":31470:31836   */\n      swap2\n      swap1\n      pop\n      jump\t// out\n        /* \"#utility.yul\":31842:32261   */\n    tag_182:\n        /* \"#utility.yul\":32008:32012   */\n      0x00\n        /* \"#utility.yul\":32046:32048   */\n      0x20\n        /* \"#utility.yul\":32035:32044   */\n      dup3\n        /* \"#utility.yul\":32031:32049   */\n      add\n        /* \"#utility.yul\":32023:32049   */\n      swap1\n      pop\n        /* \"#utility.yul\":32095:32104   */\n      dup2\n        /* \"#utility.yul\":32089:32093   */\n      dup2\n        /* \"#utility.yul\":32085:32105   */\n      sub\n        /* \"#utility.yul\":32081:32082   */\n      0x00\n        /* \"#utility.yul\":32070:32079   */\n      dup4\n        /* \"#utility.yul\":32066:32083   */\n      add\n        /* \"#utility.yul\":32059:32106   */\n      mstore\n        /* \"#utility.yul\":32123:32254   */\n      tag_574\n        /* \"#utility.yul\":32249:32253   */\n      dup2\n        /* \"#utility.yul\":32123:32254   */\n      tag_278\n      jump\t// in\n    tag_574:\n        /* \"#utility.yul\":32115:32254   */\n      swap1\n      pop\n        /* \"#utility.yul\":31842:32261   */\n      swap2\n      swap1\n      pop\n      jump\t// out\n        /* \"#utility.yul\":32267:32414   */\n    tag_279:\n        /* \"#utility.yul\":32368:32379   */\n      0x00\n        /* \"#utility.yul\":32405:32408   */\n      dup2\n        /* \"#utility.yul\":32390:32408   */\n      swap1\n      pop\n        /* \"#utility.yul\":32267:32414   */\n      swap3\n      swap2\n      pop\n      pop\n      jump\t// out\n        /* \"#utility.yul\":32420:32534   */\n    tag_280:\n      pop\n      jump\t// out\n        /* \"#utility.yul\":32540:32938   */\n    tag_281:\n        /* \"#utility.yul\":32699:32702   */\n      0x00\n        /* \"#utility.yul\":32720:32803   */\n      tag_578\n        /* \"#utility.yul\":32801:32802   */\n      0x00\n        /* \"#utility.yul\":32796:32799   */\n      dup4\n        /* \"#utility.yul\":32720:32803   */\n      tag_279\n      jump\t// in\n    tag_578:\n        /* \"#utility.yul\":32713:32803   */\n      swap2\n      pop\n        /* \"#utility.yul\":32812:32905   */\n      tag_579\n        /* \"#utility.yul\":32901:32904   */\n      dup3\n        /* \"#utility.yul\":32812:32905   */\n      tag_280\n      jump\t// in\n    tag_579:\n        /* \"#utility.yul\":32930:32931   */\n      0x00\n        /* \"#utility.yul\":32925:32928   */\n      dup3\n        /* \"#utility.yul\":32921:32932   */\n      add\n        /* \"#utility.yul\":32914:32932   */\n      swap1\n      pop\n        /* \"#utility.yul\":32540:32938   */\n      swap2\n      swap1\n      pop\n      jump\t// out\n        /* \"#utility.yul\":32944:33323   */\n    tag_184:\n        /* \"#utility.yul\":33128:33131   */\n      0x00\n        /* \"#utility.yul\":33150:33297   */\n      tag_581\n        /* \"#utility.yul\":33293:33296   */\n      dup3\n        /* \"#utility.yul\":33150:33297   */\n      tag_281\n      jump\t// in\n    tag_581:\n        /* \"#utility.yul\":33143:33297   */\n      swap2\n      pop\n        /* \"#utility.yul\":33314:33317   */\n      dup2\n        /* \"#utility.yul\":33307:33317   */\n      swap1\n      pop\n        /* \"#utility.yul\":32944:33323   */\n      swap2\n      swap1\n      pop\n      jump\t// out\n        /* \"#utility.yul\":33329:33739   */\n    tag_192:\n        /* \"#utility.yul\":33369:33376   */\n      0x00\n        /* \"#utility.yul\":33392:33412   */\n      tag_583\n        /* \"#utility.yul\":33410:33411   */\n      dup3\n        /* \"#utility.yul\":33392:33412   */\n      tag_198\n      jump\t// in\n    tag_583:\n        /* \"#utility.yul\":33387:33412   */\n      swap2\n      pop\n        /* \"#utility.yul\":33426:33446   */\n      tag_584\n        /* \"#utility.yul\":33444:33445   */\n      dup4\n        /* \"#utility.yul\":33426:33446   */\n      tag_198\n      jump\t// in\n    tag_584:\n        /* \"#utility.yul\":33421:33446   */\n      swap3\n      pop\n        /* \"#utility.yul\":33481:33482   */\n      dup3\n        /* \"#utility.yul\":33478:33479   */\n      dup3\n        /* \"#utility.yul\":33474:33483   */\n      mul\n        /* \"#utility.yul\":33503:33533   */\n      tag_585\n        /* \"#utility.yul\":33521:33532   */\n      dup2\n        /* \"#utility.yul\":33503:33533   */\n      tag_198\n      jump\t// in\n    tag_585:\n        /* \"#utility.yul\":33492:33533   */\n      swap2\n      pop\n        /* \"#utility.yul\":33682:33683   */\n      dup3\n        /* \"#utility.yul\":33673:33680   */\n      dup3\n        /* \"#utility.yul\":33669:33684   */\n      div\n        /* \"#utility.yul\":33666:33667   */\n      dup5\n        /* \"#utility.yul\":33663:33685   */\n      eq\n        /* \"#utility.yul\":33643:33644   */\n      dup4\n        /* \"#utility.yul\":33636:33645   */\n      iszero\n        /* \"#utility.yul\":33616:33699   */\n      or\n        /* \"#utility.yul\":33593:33732   */\n      tag_586\n      jumpi\n        /* \"#utility.yul\":33712:33730   */\n      tag_587\n      tag_250\n      jump\t// in\n    tag_587:\n        /* \"#utility.yul\":33593:33732   */\n    tag_586:\n        /* \"#utility.yul\":33377:33739   */\n      pop\n        /* \"#utility.yul\":33329:33739   */\n      swap3\n      swap2\n      pop\n      pop\n      jump\t// out\n        /* \"#utility.yul\":33745:33936   */\n    tag_194:\n        /* \"#utility.yul\":33785:33788   */\n      0x00\n        /* \"#utility.yul\":33804:33824   */\n      tag_589\n        /* \"#utility.yul\":33822:33823   */\n      dup3\n        /* \"#utility.yul\":33804:33824   */\n      tag_198\n      jump\t// in\n    tag_589:\n        /* \"#utility.yul\":33799:33824   */\n      swap2\n      pop\n        /* \"#utility.yul\":33838:33858   */\n      tag_590\n        /* \"#utility.yul\":33856:33857   */\n      dup4\n        /* \"#utility.yul\":33838:33858   */\n      tag_198\n      jump\t// in\n    tag_590:\n        /* \"#utility.yul\":33833:33858   */\n      swap3\n      pop\n        /* \"#utility.yul\":33881:33882   */\n      dup3\n        /* \"#utility.yul\":33878:33879   */\n      dup3\n        /* \"#utility.yul\":33874:33883   */\n      add\n        /* \"#utility.yul\":33867:33883   */\n      swap1\n      pop\n        /* \"#utility.yul\":33902:33905   */\n      dup1\n        /* \"#utility.yul\":33899:33900   */\n      dup3\n        /* \"#utility.yul\":33896:33906   */\n      gt\n        /* \"#utility.yul\":33893:33929   */\n      iszero\n      tag_591\n      jumpi\n        /* \"#utility.yul\":33909:33927   */\n      tag_592\n      tag_250\n      jump\t// in\n    tag_592:\n        /* \"#utility.yul\":33893:33929   */\n    tag_591:\n        /* \"#utility.yul\":33745:33936   */\n      swap3\n      swap2\n      pop\n      pop\n      jump\t// out\n\n    auxdata: 0xa26469706673582212201e75473c7f3d3d0a1e18aeba72e9c1f038a84ed754a4c69aeb856ff0aa02f5b264736f6c634300081a0033\n}\n",
				"bytecode": {
					"linkReferences": {},
					"object": "6080604052348015600e575f80fd5b50600160035f3373ffffffffffffffffffffffffffffffffffffffff1673ffffffffffffffffffffffffffffffffffffffff1681526020019081526020015f205f6101000a81548160ff021916908315150217905550612100806100715f395ff3fe608060405234801561000f575f80fd5b506004361061009c575f3560e01c80637e928072116100645780637e928072146101545780639026dee8146101725780639693c4a4146101a2578063b69ef8a8146101be578063e8579fd2146101dc5761009c565b80630c6081ca146100a057806310601ee6146100d0578063205c2878146100ec578063444530ab146101085780634b0bddd214610138575b5f80fd5b6100ba60048036038101906100b59190611098565b6101f8565b6040516100c791906111bd565b60405180910390f35b6100ea60048036038101906100e59190611319565b6102a4565b005b610106600480360381019061010191906113df565b61053b565b005b610122600480360381019061011d919061141d565b61062d565b60405161012f9190611462565b60405180910390f35b610152600480360381019061014d91906114a5565b61064a565b005b61015c61072b565b60405161016991906116a9565b60405180910390f35b61018c600480360381019061018791906116c9565b6109d7565b6040516101999190611462565b60405180910390f35b6101bc60048036038101906101b7919061141d565b610a29565b005b6101c6610cae565b6040516101d39190611703565b60405180910390f35b6101f660048036038101906101f1919061171c565b610cb3565b005b606060065f8481526020019081526020015f205f8381526020019081526020015f2080548060200260200160405190810160405280929190818152602001828054801561029757602002820191905f5260205f20905b815f9054906101000a900473ffffffffffffffffffffffffffffffffffffffff1673ffffffffffffffffffffffffffffffffffffffff168152602001906001019080831161024e575b5050505050905092915050565b60035f3373ffffffffffffffffffffffffffffffffffffffff1673ffffffffffffffffffffffffffffffffffffffff1681526020019081526020015f205f9054906101000a900460ff1661032d576040517f08c379a0000000000000000000000000000000000000000000000000000000008152600401610324906117fe565b60405180910390fd5b60045f8581526020019081526020015f205f9054906101000a900460ff1661038a576040517f08c379a000000000000000000000000000000000000000000000000000000000815260040161038190611866565b60405180910390fd5b5f8351116103cd576040517f08c379a00000000000000000000000000000000000000000000000000000000081526004016103c4906118ce565b60405180910390fd5b5f811461040f576040517f08c379a000000000000000000000000000000000000000000000000000000000815260040161040690611936565b60405180910390fd5b5f600190505b61041f6001610ef8565b81116104a2575f60065f8781526020019081526020015f205f8381526020019081526020015f2090505f81805490501461048e576040517f08c379a0000000000000000000000000000000000000000000000000000000008152600401610485906119c4565b60405180910390fd5b50808061049a90611a0f565b915050610415565b508260055f8681526020019081526020015f2060010190816104c49190611c50565b508160055f8681526020019081526020015f2060030190816104e69190611c50565b508060055f8681526020019081526020015f20600201819055507f8b2c14fe955d044ef95ba32b88d2ceb87c6f73fcefdcebe906063a6d75690f2760405161052d90611d69565b60405180910390a150505050565b60035f3373ffffffffffffffffffffffffffffffffffffffff1673ffffffffffffffffffffffffffffffffffffffff1681526020019081526020015f205f9054906101000a900460ff166105c4576040517f08c379a00000000000000000000000000000000000000000000000000000000081526004016105bb906117fe565b60405180910390fd5b805f541015610608576040517f08c379a00000000000000000000000000000000000000000000000000000000081526004016105ff90611dd1565b60405180910390fd5b805f808282546106189190611def565b925050819055506106298282610f04565b5050565b6004602052805f5260405f205f915054906101000a900460ff1681565b60035f3373ffffffffffffffffffffffffffffffffffffffff1673ffffffffffffffffffffffffffffffffffffffff1681526020019081526020015f205f9054906101000a900460ff166106d3576040517f08c379a00000000000000000000000000000000000000000000000000000000081526004016106ca906117fe565b60405180910390fd5b8060035f8473ffffffffffffffffffffffffffffffffffffffff1673ffffffffffffffffffffffffffffffffffffffff1681526020019081526020015f205f6101000a81548160ff0219169083151502179055505050565b60605f80600190505b61073e6001610ef8565b811161078b5760055f8281526020019081526020015f206005015f9054906101000a900460ff1661077857818061077490611a0f565b9250505b808061078390611a0f565b915050610734565b508067ffffffffffffffff8111156107a6576107a56111f5565b5b6040519080825280602002602001820160405280156107df57816020015b6107cc611020565b8152602001906001900390816107c45790505b5091505f80600190505b6107f36001610ef8565b81116109d15760055f8281526020019081526020015f206005015f9054906101000a900460ff166109be5760055f8281526020019081526020015f206040518060c00160405290815f820154815260200160018201805461085390611a83565b80601f016020809104026020016040519081016040528092919081815260200182805461087f90611a83565b80156108ca5780601f106108a1576101008083540402835291602001916108ca565b820191905f5260205f20905b8154815290600101906020018083116108ad57829003601f168201915b50505050508152602001600282015481526020016003820180546108ed90611a83565b80601f016020809104026020016040519081016040528092919081815260200182805461091990611a83565b80156109645780601f1061093b57610100808354040283529160200191610964565b820191905f5260205f20905b81548152906001019060200180831161094757829003601f168201915b5050505050815260200160048201548152602001600582015f9054906101000a900460ff1615151515815250508483815181106109a4576109a3611e22565b5b602002602001018190525081806109ba90611a0f565b9250505b80806109c990611a0f565b9150506107e9565b50505090565b5f60035f8373ffffffffffffffffffffffffffffffffffffffff1673ffffffffffffffffffffffffffffffffffffffff1681526020019081526020015f205f9054906101000a900460ff169050919050565b60035f3373ffffffffffffffffffffffffffffffffffffffff1673ffffffffffffffffffffffffffffffffffffffff1681526020019081526020015f205f9054906101000a900460ff16610ab2576040517f08c379a0000000000000000000000000000000000000000000000000000000008152600401610aa9906117fe565b60405180910390fd5b60045f8281526020019081526020015f205f9054906101000a900460ff16610b0f576040517f08c379a0000000000000000000000000000000000000000000000000000000008152600401610b0690611866565b60405180910390fd5b5f600190505b610b1f6001610ef8565b8111610c21575f60065f8481526020019081526020015f205f8381526020019081526020015f20805480602002602001604051908101604052809291908181526020018280548015610bc357602002820191905f5260205f20905b815f9054906101000a900473ffffffffffffffffffffffffffffffffffffffff1673ffffffffffffffffffffffffffffffffffffffff1681526020019060010190808311610b7a575b505050505090505f815114610c0d576040517f08c379a0000000000000000000000000000000000000000000000000000000008152600401610c0490611ebf565b60405180910390fd5b508080610c1990611a0f565b915050610b15565b50600160055f8381526020019081526020015f206005015f6101000a81548160ff0219169083151502179055505f60045f8381526020019081526020015f205f6101000a81548160ff0219169083151502179055507f8b2c14fe955d044ef95ba32b88d2ceb87c6f73fcefdcebe906063a6d75690f27604051610ca390611f27565b60405180910390a150565b5f5481565b60035f3373ffffffffffffffffffffffffffffffffffffffff1673ffffffffffffffffffffffffffffffffffffffff1681526020019081526020015f205f9054906101000a900460ff16610d3c576040517f08c379a0000000000000000000000000000000000000000000000000000000008152600401610d33906117fe565b60405180910390fd5b5f835111610d7f576040517f08c379a0000000000000000000000000000000000000000000000000000000008152600401610d76906118ce565b60405180910390fd5b5f8114610dc1576040517f08c379a0000000000000000000000000000000000000000000000000000000008152600401610db890611936565b60405180910390fd5b610dcb6001610fe8565b610dd3611020565b610ddd6001610ef8565b815f01818152505083816020018190525082816060018190525081816040018181525050610e09610ffc565b8160800181815250508060055f835f015181526020019081526020015f205f820151815f01556020820151816001019081610e449190611c50565b50604082015181600201556060820151816003019081610e649190611c50565b506080820151816004015560a0820151816005015f6101000a81548160ff021916908315150217905550905050600160045f835f015181526020019081526020015f205f6101000a81548160ff0219169083151502179055507f8b2c14fe955d044ef95ba32b88d2ceb87c6f73fcefdcebe906063a6d75690f27604051610eea90611f8f565b60405180910390a150505050565b5f815f01549050919050565b5f73ffffffffffffffffffffffffffffffffffffffff168273ffffffffffffffffffffffffffffffffffffffff1603610f72576040517f08c379a0000000000000000000000000000000000000000000000000000000008152600401610f6990611ff7565b60405180910390fd5b5f8273ffffffffffffffffffffffffffffffffffffffff1682604051610f9790612042565b5f6040518083038185875af1925050503d805f8114610fd1576040519150601f19603f3d011682016040523d82523d5f602084013e610fd6565b606091505b5050905080610fe3575f80fd5b505050565b6001815f015f828254019250508190555050565b5f806103e8804261100d9190612056565b6110179190612097565b90508091505090565b6040518060c001604052805f8152602001606081526020015f8152602001606081526020015f81526020015f151581525090565b5f604051905090565b5f80fd5b5f80fd5b5f819050919050565b61107781611065565b8114611081575f80fd5b50565b5f813590506110928161106e565b92915050565b5f80604083850312156110ae576110ad61105d565b5b5f6110bb85828601611084565b92505060206110cc85828601611084565b9150509250929050565b5f81519050919050565b5f82825260208201905092915050565b5f819050602082019050919050565b5f73ffffffffffffffffffffffffffffffffffffffff82169050919050565b5f611128826110ff565b9050919050565b6111388161111e565b82525050565b5f611149838361112f565b60208301905092915050565b5f602082019050919050565b5f61116b826110d6565b61117581856110e0565b9350611180836110f0565b805f5b838110156111b0578151611197888261113e565b97506111a283611155565b925050600181019050611183565b5085935050505092915050565b5f6020820190508181035f8301526111d58184611161565b905092915050565b5f80fd5b5f80fd5b5f601f19601f8301169050919050565b7f4e487b71000000000000000000000000000000000000000000000000000000005f52604160045260245ffd5b61122b826111e5565b810181811067ffffffffffffffff8211171561124a576112496111f5565b5b80604052505050565b5f61125c611054565b90506112688282611222565b919050565b5f67ffffffffffffffff821115611287576112866111f5565b5b611290826111e5565b9050602081019050919050565b828183375f83830152505050565b5f6112bd6112b88461126d565b611253565b9050828152602081018484840111156112d9576112d86111e1565b5b6112e484828561129d565b509392505050565b5f82601f830112611300576112ff6111dd565b5b81356113108482602086016112ab565b91505092915050565b5f805f80608085870312156113315761133061105d565b5b5f61133e87828801611084565b945050602085013567ffffffffffffffff81111561135f5761135e611061565b5b61136b878288016112ec565b935050604085013567ffffffffffffffff81111561138c5761138b611061565b5b611398878288016112ec565b92505060606113a987828801611084565b91505092959194509250565b6113be8161111e565b81146113c8575f80fd5b50565b5f813590506113d9816113b5565b92915050565b5f80604083850312156113f5576113f461105d565b5b5f611402858286016113cb565b925050602061141385828601611084565b9150509250929050565b5f602082840312156114325761143161105d565b5b5f61143f84828501611084565b91505092915050565b5f8115159050919050565b61145c81611448565b82525050565b5f6020820190506114755f830184611453565b92915050565b61148481611448565b811461148e575f80fd5b50565b5f8135905061149f8161147b565b92915050565b5f80604083850312156114bb576114ba61105d565b5b5f6114c8858286016113cb565b92505060206114d985828601611491565b9150509250929050565b5f81519050919050565b5f82825260208201905092915050565b5f819050602082019050919050565b61151581611065565b82525050565b5f81519050919050565b5f82825260208201905092915050565b8281835e5f83830152505050565b5f61154d8261151b565b6115578185611525565b9350611567818560208601611535565b611570816111e5565b840191505092915050565b61158481611448565b82525050565b5f60c083015f83015161159f5f86018261150c565b50602083015184820360208601526115b78282611543565b91505060408301516115cc604086018261150c565b50606083015184820360608601526115e48282611543565b91505060808301516115f9608086018261150c565b5060a083015161160c60a086018261157b565b508091505092915050565b5f611622838361158a565b905092915050565b5f602082019050919050565b5f611640826114e3565b61164a81856114ed565b93508360208202850161165c856114fd565b805f5b8581101561169757848403895281516116788582611617565b94506116838361162a565b925060208a0199505060018101905061165f565b50829750879550505050505092915050565b5f6020820190508181035f8301526116c18184611636565b905092915050565b5f602082840312156116de576116dd61105d565b5b5f6116eb848285016113cb565b91505092915050565b6116fd81611065565b82525050565b5f6020820190506117165f8301846116f4565b92915050565b5f805f606084860312156117335761173261105d565b5b5f84013567ffffffffffffffff8111156117505761174f611061565b5b61175c868287016112ec565b935050602084013567ffffffffffffffff81111561177d5761177c611061565b5b611789868287016112ec565b925050604061179a86828701611084565b9150509250925092565b5f82825260208201905092915050565b7f43616c6c6572206973206e6f7420616e2061646d696e000000000000000000005f82015250565b5f6117e86016836117a4565b91506117f3826117b4565b602082019050919050565b5f6020820190508181035f830152611815816117dc565b9050919050565b7f526f75746520646f65736e2774206578697374000000000000000000000000005f82015250565b5f6118506013836117a4565b915061185b8261181c565b602082019050919050565b5f6020820190508181035f83015261187d81611844565b9050919050565b7f4e616d65206d757374206e6f7420626520656d707479000000000000000000005f82015250565b5f6118b86016836117a4565b91506118c382611884565b602082019050919050565b5f6020820190508181035f8301526118e5816118ac565b9050919050565b7f44697374616e6365206d757374206e6f7420626520656d7074790000000000005f82015250565b5f611920601a836117a4565b915061192b826118ec565b602082019050919050565b5f6020820190508181035f83015261194d81611914565b9050919050565b7f43616e6e6f742075706461746520726f757465207769746820707572636861735f8201527f6564207469636b65747300000000000000000000000000000000000000000000602082015250565b5f6119ae602a836117a4565b91506119b982611954565b604082019050919050565b5f6020820190508181035f8301526119db816119a2565b9050919050565b7f4e487b71000000000000000000000000000000000000000000000000000000005f52601160045260245ffd5b5f611a1982611065565b91507fffffffffffffffffffffffffffffffffffffffffffffffffffffffffffffffff8203611a4b57611a4a6119e2565b5b600182019050919050565b7f4e487b71000000000000000000000000000000000000000000000000000000005f52602260045260245ffd5b5f6002820490506001821680611a9a57607f821691505b602082108103611aad57611aac611a56565b5b50919050565b5f819050815f5260205f209050919050565b5f6020601f8301049050919050565b5f82821b905092915050565b5f60088302611b0f7fffffffffffffffffffffffffffffffffffffffffffffffffffffffffffffffff82611ad4565b611b198683611ad4565b95508019841693508086168417925050509392505050565b5f819050919050565b5f611b54611b4f611b4a84611065565b611b31565b611065565b9050919050565b5f819050919050565b611b6d83611b3a565b611b81611b7982611b5b565b848454611ae0565b825550505050565b5f90565b611b95611b89565b611ba0818484611b64565b505050565b5b81811015611bc357611bb85f82611b8d565b600181019050611ba6565b5050565b601f821115611c0857611bd981611ab3565b611be284611ac5565b81016020851015611bf1578190505b611c05611bfd85611ac5565b830182611ba5565b50505b505050565b5f82821c905092915050565b5f611c285f1984600802611c0d565b1980831691505092915050565b5f611c408383611c19565b9150826002028217905092915050565b611c598261151b565b67ffffffffffffffff811115611c7257611c716111f5565b5b611c7c8254611a83565b611c87828285611bc7565b5f60209050601f831160018114611cb8575f8415611ca6578287015190505b611cb08582611c35565b865550611d17565b601f198416611cc686611ab3565b5f5b82811015611ced57848901518255600182019150602085019450602081019050611cc8565b86831015611d0a5784890151611d06601f891682611c19565b8355505b6001600288020188555050505b505050505050565b7f55706461746564206120726f75746500000000000000000000000000000000005f82015250565b5f611d53600f836117a4565b9150611d5e82611d1f565b602082019050919050565b5f6020820190508181035f830152611d8081611d47565b9050919050565b7f496e73756666696369656e742066756e640000000000000000000000000000005f82015250565b5f611dbb6011836117a4565b9150611dc682611d87565b602082019050919050565b5f6020820190508181035f830152611de881611daf565b9050919050565b5f611df982611065565b9150611e0483611065565b9250828203905081811115611e1c57611e1b6119e2565b5b92915050565b7f4e487b71000000000000000000000000000000000000000000000000000000005f52603260045260245ffd5b7f43616e742064656c65746520726f7574652077697468207075726368617365645f8201527f207469636b657473000000000000000000000000000000000000000000000000602082015250565b5f611ea96028836117a4565b9150611eb482611e4f565b604082019050919050565b5f6020820190508181035f830152611ed681611e9d565b9050919050565b7f44656c65746564206120726f75746500000000000000000000000000000000005f82015250565b5f611f11600f836117a4565b9150611f1c82611edd565b602082019050919050565b5f6020820190508181035f830152611f3e81611f05565b9050919050565b7f437265617465642061206e657720526f757465000000000000000000000000005f82015250565b5f611f796013836117a4565b9150611f8482611f45565b602082019050919050565b5f6020820190508181035f830152611fa681611f6d565b9050919050565b7f52656369766572206d75737420626520612076616c69642061646472657373005f82015250565b5f611fe1601f836117a4565b9150611fec82611fad565b602082019050919050565b5f6020820190508181035f83015261200e81611fd5565b9050919050565b5f81905092915050565b50565b5f61202d5f83612015565b91506120388261201f565b5f82019050919050565b5f61204c82612022565b9150819050919050565b5f61206082611065565b915061206b83611065565b925082820261207981611065565b915082820484148315176120905761208f6119e2565b5b5092915050565b5f6120a182611065565b91506120ac83611065565b92508282019050808211156120c4576120c36119e2565b5b9291505056fea26469706673582212201e75473c7f3d3d0a1e18aeba72e9c1f038a84ed754a4c69aeb856ff0aa02f5b264736f6c634300081a0033",
					"opcodes": "PUSH1 0x80 PUSH1 0x40 MSTORE CALLVALUE DUP1 ISZERO PUSH1 0xE JUMPI PUSH0 DUP1 REVERT JUMPDEST POP PUSH1 0x1 PUSH1 0x3 PUSH0 CALLER PUSH20 0xFFFFFFFFFFFFFFFFFFFFFFFFFFFFFFFFFFFFFFFF AND PUSH20 0xFFFFFFFFFFFFFFFFFFFFFFFFFFFFFFFFFFFFFFFF AND DUP2 MSTORE PUSH1 0x20 ADD SWAP1 DUP2 MSTORE PUSH1 0x20 ADD PUSH0 KECCAK256 PUSH0 PUSH2 0x100 EXP DUP2 SLOAD DUP2 PUSH1 0xFF MUL NOT AND SWAP1 DUP4 ISZERO ISZERO MUL OR SWAP1 SSTORE POP PUSH2 0x2100 DUP1 PUSH2 0x71 PUSH0 CODECOPY PUSH0 RETURN INVALID PUSH1 0x80 PUSH1 0x40 MSTORE CALLVALUE DUP1 ISZERO PUSH2 0xF JUMPI PUSH0 DUP1 REVERT JUMPDEST POP PUSH1 0x4 CALLDATASIZE LT PUSH2 0x9C JUMPI PUSH0 CALLDATALOAD PUSH1 0xE0 SHR DUP1 PUSH4 0x7E928072 GT PUSH2 0x64 JUMPI DUP1 PUSH4 0x7E928072 EQ PUSH2 0x154 JUMPI DUP1 PUSH4 0x9026DEE8 EQ PUSH2 0x172 JUMPI DUP1 PUSH4 0x9693C4A4 EQ PUSH2 0x1A2 JUMPI DUP1 PUSH4 0xB69EF8A8 EQ PUSH2 0x1BE JUMPI DUP1 PUSH4 0xE8579FD2 EQ PUSH2 0x1DC JUMPI PUSH2 0x9C JUMP JUMPDEST DUP1 PUSH4 0xC6081CA EQ PUSH2 0xA0 JUMPI DUP1 PUSH4 0x10601EE6 EQ PUSH2 0xD0 JUMPI DUP1 PUSH4 0x205C2878 EQ PUSH2 0xEC JUMPI DUP1 PUSH4 0x444530AB EQ PUSH2 0x108 JUMPI DUP1 PUSH4 0x4B0BDDD2 EQ PUSH2 0x138 JUMPI JUMPDEST PUSH0 DUP1 REVERT JUMPDEST PUSH2 0xBA PUSH1 0x4 DUP1 CALLDATASIZE SUB DUP2 ADD SWAP1 PUSH2 0xB5 SWAP2 SWAP1 PUSH2 0x1098 JUMP JUMPDEST PUSH2 0x1F8 JUMP JUMPDEST PUSH1 0x40 MLOAD PUSH2 0xC7 SWAP2 SWAP1 PUSH2 0x11BD JUMP JUMPDEST PUSH1 0x40 MLOAD DUP1 SWAP2 SUB SWAP1 RETURN JUMPDEST PUSH2 0xEA PUSH1 0x4 DUP1 CALLDATASIZE SUB DUP2 ADD SWAP1 PUSH2 0xE5 SWAP2 SWAP1 PUSH2 0x1319 JUMP JUMPDEST PUSH2 0x2A4 JUMP JUMPDEST STOP JUMPDEST PUSH2 0x106 PUSH1 0x4 DUP1 CALLDATASIZE SUB DUP2 ADD SWAP1 PUSH2 0x101 SWAP2 SWAP1 PUSH2 0x13DF JUMP JUMPDEST PUSH2 0x53B JUMP JUMPDEST STOP JUMPDEST PUSH2 0x122 PUSH1 0x4 DUP1 CALLDATASIZE SUB DUP2 ADD SWAP1 PUSH2 0x11D SWAP2 SWAP1 PUSH2 0x141D JUMP JUMPDEST PUSH2 0x62D JUMP JUMPDEST PUSH1 0x40 MLOAD PUSH2 0x12F SWAP2 SWAP1 PUSH2 0x1462 JUMP JUMPDEST PUSH1 0x40 MLOAD DUP1 SWAP2 SUB SWAP1 RETURN JUMPDEST PUSH2 0x152 PUSH1 0x4 DUP1 CALLDATASIZE SUB DUP2 ADD SWAP1 PUSH2 0x14D SWAP2 SWAP1 PUSH2 0x14A5 JUMP JUMPDEST PUSH2 0x64A JUMP JUMPDEST STOP JUMPDEST PUSH2 0x15C PUSH2 0x72B JUMP JUMPDEST PUSH1 0x40 MLOAD PUSH2 0x169 SWAP2 SWAP1 PUSH2 0x16A9 JUMP JUMPDEST PUSH1 0x40 MLOAD DUP1 SWAP2 SUB SWAP1 RETURN JUMPDEST PUSH2 0x18C PUSH1 0x4 DUP1 CALLDATASIZE SUB DUP2 ADD SWAP1 PUSH2 0x187 SWAP2 SWAP1 PUSH2 0x16C9 JUMP JUMPDEST PUSH2 0x9D7 JUMP JUMPDEST PUSH1 0x40 MLOAD PUSH2 0x199 SWAP2 SWAP1 PUSH2 0x1462 JUMP JUMPDEST PUSH1 0x40 MLOAD DUP1 SWAP2 SUB SWAP1 RETURN JUMPDEST PUSH2 0x1BC PUSH1 0x4 DUP1 CALLDATASIZE SUB DUP2 ADD SWAP1 PUSH2 0x1B7 SWAP2 SWAP1 PUSH2 0x141D JUMP JUMPDEST PUSH2 0xA29 JUMP JUMPDEST STOP JUMPDEST PUSH2 0x1C6 PUSH2 0xCAE JUMP JUMPDEST PUSH1 0x40 MLOAD PUSH2 0x1D3 SWAP2 SWAP1 PUSH2 0x1703 JUMP JUMPDEST PUSH1 0x40 MLOAD DUP1 SWAP2 SUB SWAP1 RETURN JUMPDEST PUSH2 0x1F6 PUSH1 0x4 DUP1 CALLDATASIZE SUB DUP2 ADD SWAP1 PUSH2 0x1F1 SWAP2 SWAP1 PUSH2 0x171C JUMP JUMPDEST PUSH2 0xCB3 JUMP JUMPDEST STOP JUMPDEST PUSH1 0x60 PUSH1 0x6 PUSH0 DUP5 DUP2 MSTORE PUSH1 0x20 ADD SWAP1 DUP2 MSTORE PUSH1 0x20 ADD PUSH0 KECCAK256 PUSH0 DUP4 DUP2 MSTORE PUSH1 0x20 ADD SWAP1 DUP2 MSTORE PUSH1 0x20 ADD PUSH0 KECCAK256 DUP1 SLOAD DUP1 PUSH1 0x20 MUL PUSH1 0x20 ADD PUSH1 0x40 MLOAD SWAP1 DUP2 ADD PUSH1 0x40 MSTORE DUP1 SWAP3 SWAP2 SWAP1 DUP2 DUP2 MSTORE PUSH1 0x20 ADD DUP3 DUP1 SLOAD DUP1 ISZERO PUSH2 0x297 JUMPI PUSH1 0x20 MUL DUP3 ADD SWAP2 SWAP1 PUSH0 MSTORE PUSH1 0x20 PUSH0 KECCAK256 SWAP1 JUMPDEST DUP2 PUSH0 SWAP1 SLOAD SWAP1 PUSH2 0x100 EXP SWAP1 DIV PUSH20 0xFFFFFFFFFFFFFFFFFFFFFFFFFFFFFFFFFFFFFFFF AND PUSH20 0xFFFFFFFFFFFFFFFFFFFFFFFFFFFFFFFFFFFFFFFF AND DUP2 MSTORE PUSH1 0x20 ADD SWAP1 PUSH1 0x1 ADD SWAP1 DUP1 DUP4 GT PUSH2 0x24E JUMPI JUMPDEST POP POP POP POP POP SWAP1 POP SWAP3 SWAP2 POP POP JUMP JUMPDEST PUSH1 0x3 PUSH0 CALLER PUSH20 0xFFFFFFFFFFFFFFFFFFFFFFFFFFFFFFFFFFFFFFFF AND PUSH20 0xFFFFFFFFFFFFFFFFFFFFFFFFFFFFFFFFFFFFFFFF AND DUP2 MSTORE PUSH1 0x20 ADD SWAP1 DUP2 MSTORE PUSH1 0x20 ADD PUSH0 KECCAK256 PUSH0 SWAP1 SLOAD SWAP1 PUSH2 0x100 EXP SWAP1 DIV PUSH1 0xFF AND PUSH2 0x32D JUMPI PUSH1 0x40 MLOAD PUSH32 0x8C379A000000000000000000000000000000000000000000000000000000000 DUP2 MSTORE PUSH1 0x4 ADD PUSH2 0x324 SWAP1 PUSH2 0x17FE JUMP JUMPDEST PUSH1 0x40 MLOAD DUP1 SWAP2 SUB SWAP1 REVERT JUMPDEST PUSH1 0x4 PUSH0 DUP6 DUP2 MSTORE PUSH1 0x20 ADD SWAP1 DUP2 MSTORE PUSH1 0x20 ADD PUSH0 KECCAK256 PUSH0 SWAP1 SLOAD SWAP1 PUSH2 0x100 EXP SWAP1 DIV PUSH1 0xFF AND PUSH2 0x38A JUMPI PUSH1 0x40 MLOAD PUSH32 0x8C379A000000000000000000000000000000000000000000000000000000000 DUP2 MSTORE PUSH1 0x4 ADD PUSH2 0x381 SWAP1 PUSH2 0x1866 JUMP JUMPDEST PUSH1 0x40 MLOAD DUP1 SWAP2 SUB SWAP1 REVERT JUMPDEST PUSH0 DUP4 MLOAD GT PUSH2 0x3CD JUMPI PUSH1 0x40 MLOAD PUSH32 0x8C379A000000000000000000000000000000000000000000000000000000000 DUP2 MSTORE PUSH1 0x4 ADD PUSH2 0x3C4 SWAP1 PUSH2 0x18CE JUMP JUMPDEST PUSH1 0x40 MLOAD DUP1 SWAP2 SUB SWAP1 REVERT JUMPDEST PUSH0 DUP2 EQ PUSH2 0x40F JUMPI PUSH1 0x40 MLOAD PUSH32 0x8C379A000000000000000000000000000000000000000000000000000000000 DUP2 MSTORE PUSH1 0x4 ADD PUSH2 0x406 SWAP1 PUSH2 0x1936 JUMP JUMPDEST PUSH1 0x40 MLOAD DUP1 SWAP2 SUB SWAP1 REVERT JUMPDEST PUSH0 PUSH1 0x1 SWAP1 POP JUMPDEST PUSH2 0x41F PUSH1 0x1 PUSH2 0xEF8 JUMP JUMPDEST DUP2 GT PUSH2 0x4A2 JUMPI PUSH0 PUSH1 0x6 PUSH0 DUP8 DUP2 MSTORE PUSH1 0x20 ADD SWAP1 DUP2 MSTORE PUSH1 0x20 ADD PUSH0 KECCAK256 PUSH0 DUP4 DUP2 MSTORE PUSH1 0x20 ADD SWAP1 DUP2 MSTORE PUSH1 0x20 ADD PUSH0 KECCAK256 SWAP1 POP PUSH0 DUP2 DUP1 SLOAD SWAP1 POP EQ PUSH2 0x48E JUMPI PUSH1 0x40 MLOAD PUSH32 0x8C379A000000000000000000000000000000000000000000000000000000000 DUP2 MSTORE PUSH1 0x4 ADD PUSH2 0x485 SWAP1 PUSH2 0x19C4 JUMP JUMPDEST PUSH1 0x40 MLOAD DUP1 SWAP2 SUB SWAP1 REVERT JUMPDEST POP DUP1 DUP1 PUSH2 0x49A SWAP1 PUSH2 0x1A0F JUMP JUMPDEST SWAP2 POP POP PUSH2 0x415 JUMP JUMPDEST POP DUP3 PUSH1 0x5 PUSH0 DUP7 DUP2 MSTORE PUSH1 0x20 ADD SWAP1 DUP2 MSTORE PUSH1 0x20 ADD PUSH0 KECCAK256 PUSH1 0x1 ADD SWAP1 DUP2 PUSH2 0x4C4 SWAP2 SWAP1 PUSH2 0x1C50 JUMP JUMPDEST POP DUP2 PUSH1 0x5 PUSH0 DUP7 DUP2 MSTORE PUSH1 0x20 ADD SWAP1 DUP2 MSTORE PUSH1 0x20 ADD PUSH0 KECCAK256 PUSH1 0x3 ADD SWAP1 DUP2 PUSH2 0x4E6 SWAP2 SWAP1 PUSH2 0x1C50 JUMP JUMPDEST POP DUP1 PUSH1 0x5 PUSH0 DUP7 DUP2 MSTORE PUSH1 0x20 ADD SWAP1 DUP2 MSTORE PUSH1 0x20 ADD PUSH0 KECCAK256 PUSH1 0x2 ADD DUP2 SWAP1 SSTORE POP PUSH32 0x8B2C14FE955D044EF95BA32B88D2CEB87C6F73FCEFDCEBE906063A6D75690F27 PUSH1 0x40 MLOAD PUSH2 0x52D SWAP1 PUSH2 0x1D69 JUMP JUMPDEST PUSH1 0x40 MLOAD DUP1 SWAP2 SUB SWAP1 LOG1 POP POP POP POP JUMP JUMPDEST PUSH1 0x3 PUSH0 CALLER PUSH20 0xFFFFFFFFFFFFFFFFFFFFFFFFFFFFFFFFFFFFFFFF AND PUSH20 0xFFFFFFFFFFFFFFFFFFFFFFFFFFFFFFFFFFFFFFFF AND DUP2 MSTORE PUSH1 0x20 ADD SWAP1 DUP2 MSTORE PUSH1 0x20 ADD PUSH0 KECCAK256 PUSH0 SWAP1 SLOAD SWAP1 PUSH2 0x100 EXP SWAP1 DIV PUSH1 0xFF AND PUSH2 0x5C4 JUMPI PUSH1 0x40 MLOAD PUSH32 0x8C379A000000000000000000000000000000000000000000000000000000000 DUP2 MSTORE PUSH1 0x4 ADD PUSH2 0x5BB SWAP1 PUSH2 0x17FE JUMP JUMPDEST PUSH1 0x40 MLOAD DUP1 SWAP2 SUB SWAP1 REVERT JUMPDEST DUP1 PUSH0 SLOAD LT ISZERO PUSH2 0x608 JUMPI PUSH1 0x40 MLOAD PUSH32 0x8C379A000000000000000000000000000000000000000000000000000000000 DUP2 MSTORE PUSH1 0x4 ADD PUSH2 0x5FF SWAP1 PUSH2 0x1DD1 JUMP JUMPDEST PUSH1 0x40 MLOAD DUP1 SWAP2 SUB SWAP1 REVERT JUMPDEST DUP1 PUSH0 DUP1 DUP3 DUP3 SLOAD PUSH2 0x618 SWAP2 SWAP1 PUSH2 0x1DEF JUMP JUMPDEST SWAP3 POP POP DUP2 SWAP1 SSTORE POP PUSH2 0x629 DUP3 DUP3 PUSH2 0xF04 JUMP JUMPDEST POP POP JUMP JUMPDEST PUSH1 0x4 PUSH1 0x20 MSTORE DUP1 PUSH0 MSTORE PUSH1 0x40 PUSH0 KECCAK256 PUSH0 SWAP2 POP SLOAD SWAP1 PUSH2 0x100 EXP SWAP1 DIV PUSH1 0xFF AND DUP2 JUMP JUMPDEST PUSH1 0x3 PUSH0 CALLER PUSH20 0xFFFFFFFFFFFFFFFFFFFFFFFFFFFFFFFFFFFFFFFF AND PUSH20 0xFFFFFFFFFFFFFFFFFFFFFFFFFFFFFFFFFFFFFFFF AND DUP2 MSTORE PUSH1 0x20 ADD SWAP1 DUP2 MSTORE PUSH1 0x20 ADD PUSH0 KECCAK256 PUSH0 SWAP1 SLOAD SWAP1 PUSH2 0x100 EXP SWAP1 DIV PUSH1 0xFF AND PUSH2 0x6D3 JUMPI PUSH1 0x40 MLOAD PUSH32 0x8C379A000000000000000000000000000000000000000000000000000000000 DUP2 MSTORE PUSH1 0x4 ADD PUSH2 0x6CA SWAP1 PUSH2 0x17FE JUMP JUMPDEST PUSH1 0x40 MLOAD DUP1 SWAP2 SUB SWAP1 REVERT JUMPDEST DUP1 PUSH1 0x3 PUSH0 DUP5 PUSH20 0xFFFFFFFFFFFFFFFFFFFFFFFFFFFFFFFFFFFFFFFF AND PUSH20 0xFFFFFFFFFFFFFFFFFFFFFFFFFFFFFFFFFFFFFFFF AND DUP2 MSTORE PUSH1 0x20 ADD SWAP1 DUP2 MSTORE PUSH1 0x20 ADD PUSH0 KECCAK256 PUSH0 PUSH2 0x100 EXP DUP2 SLOAD DUP2 PUSH1 0xFF MUL NOT AND SWAP1 DUP4 ISZERO ISZERO MUL OR SWAP1 SSTORE POP POP POP JUMP JUMPDEST PUSH1 0x60 PUSH0 DUP1 PUSH1 0x1 SWAP1 POP JUMPDEST PUSH2 0x73E PUSH1 0x1 PUSH2 0xEF8 JUMP JUMPDEST DUP2 GT PUSH2 0x78B JUMPI PUSH1 0x5 PUSH0 DUP3 DUP2 MSTORE PUSH1 0x20 ADD SWAP1 DUP2 MSTORE PUSH1 0x20 ADD PUSH0 KECCAK256 PUSH1 0x5 ADD PUSH0 SWAP1 SLOAD SWAP1 PUSH2 0x100 EXP SWAP1 DIV PUSH1 0xFF AND PUSH2 0x778 JUMPI DUP2 DUP1 PUSH2 0x774 SWAP1 PUSH2 0x1A0F JUMP JUMPDEST SWAP3 POP POP JUMPDEST DUP1 DUP1 PUSH2 0x783 SWAP1 PUSH2 0x1A0F JUMP JUMPDEST SWAP2 POP POP PUSH2 0x734 JUMP JUMPDEST POP DUP1 PUSH8 0xFFFFFFFFFFFFFFFF DUP2 GT ISZERO PUSH2 0x7A6 JUMPI PUSH2 0x7A5 PUSH2 0x11F5 JUMP JUMPDEST JUMPDEST PUSH1 0x40 MLOAD SWAP1 DUP1 DUP3 MSTORE DUP1 PUSH1 0x20 MUL PUSH1 0x20 ADD DUP3 ADD PUSH1 0x40 MSTORE DUP1 ISZERO PUSH2 0x7DF JUMPI DUP2 PUSH1 0x20 ADD JUMPDEST PUSH2 0x7CC PUSH2 0x1020 JUMP JUMPDEST DUP2 MSTORE PUSH1 0x20 ADD SWAP1 PUSH1 0x1 SWAP1 SUB SWAP1 DUP2 PUSH2 0x7C4 JUMPI SWAP1 POP JUMPDEST POP SWAP2 POP PUSH0 DUP1 PUSH1 0x1 SWAP1 POP JUMPDEST PUSH2 0x7F3 PUSH1 0x1 PUSH2 0xEF8 JUMP JUMPDEST DUP2 GT PUSH2 0x9D1 JUMPI PUSH1 0x5 PUSH0 DUP3 DUP2 MSTORE PUSH1 0x20 ADD SWAP1 DUP2 MSTORE PUSH1 0x20 ADD PUSH0 KECCAK256 PUSH1 0x5 ADD PUSH0 SWAP1 SLOAD SWAP1 PUSH2 0x100 EXP SWAP1 DIV PUSH1 0xFF AND PUSH2 0x9BE JUMPI PUSH1 0x5 PUSH0 DUP3 DUP2 MSTORE PUSH1 0x20 ADD SWAP1 DUP2 MSTORE PUSH1 0x20 ADD PUSH0 KECCAK256 PUSH1 0x40 MLOAD DUP1 PUSH1 0xC0 ADD PUSH1 0x40 MSTORE SWAP1 DUP2 PUSH0 DUP3 ADD SLOAD DUP2 MSTORE PUSH1 0x20 ADD PUSH1 0x1 DUP3 ADD DUP1 SLOAD PUSH2 0x853 SWAP1 PUSH2 0x1A83 JUMP JUMPDEST DUP1 PUSH1 0x1F ADD PUSH1 0x20 DUP1 SWAP2 DIV MUL PUSH1 0x20 ADD PUSH1 0x40 MLOAD SWAP1 DUP2 ADD PUSH1 0x40 MSTORE DUP1 SWAP3 SWAP2 SWAP1 DUP2 DUP2 MSTORE PUSH1 0x20 ADD DUP3 DUP1 SLOAD PUSH2 0x87F SWAP1 PUSH2 0x1A83 JUMP JUMPDEST DUP1 ISZERO PUSH2 0x8CA JUMPI DUP1 PUSH1 0x1F LT PUSH2 0x8A1 JUMPI PUSH2 0x100 DUP1 DUP4 SLOAD DIV MUL DUP4 MSTORE SWAP2 PUSH1 0x20 ADD SWAP2 PUSH2 0x8CA JUMP JUMPDEST DUP3 ADD SWAP2 SWAP1 PUSH0 MSTORE PUSH1 0x20 PUSH0 KECCAK256 SWAP1 JUMPDEST DUP2 SLOAD DUP2 MSTORE SWAP1 PUSH1 0x1 ADD SWAP1 PUSH1 0x20 ADD DUP1 DUP4 GT PUSH2 0x8AD JUMPI DUP3 SWAP1 SUB PUSH1 0x1F AND DUP3 ADD SWAP2 JUMPDEST POP POP POP POP POP DUP2 MSTORE PUSH1 0x20 ADD PUSH1 0x2 DUP3 ADD SLOAD DUP2 MSTORE PUSH1 0x20 ADD PUSH1 0x3 DUP3 ADD DUP1 SLOAD PUSH2 0x8ED SWAP1 PUSH2 0x1A83 JUMP JUMPDEST DUP1 PUSH1 0x1F ADD PUSH1 0x20 DUP1 SWAP2 DIV MUL PUSH1 0x20 ADD PUSH1 0x40 MLOAD SWAP1 DUP2 ADD PUSH1 0x40 MSTORE DUP1 SWAP3 SWAP2 SWAP1 DUP2 DUP2 MSTORE PUSH1 0x20 ADD DUP3 DUP1 SLOAD PUSH2 0x919 SWAP1 PUSH2 0x1A83 JUMP JUMPDEST DUP1 ISZERO PUSH2 0x964 JUMPI DUP1 PUSH1 0x1F LT PUSH2 0x93B JUMPI PUSH2 0x100 DUP1 DUP4 SLOAD DIV MUL DUP4 MSTORE SWAP2 PUSH1 0x20 ADD SWAP2 PUSH2 0x964 JUMP JUMPDEST DUP3 ADD SWAP2 SWAP1 PUSH0 MSTORE PUSH1 0x20 PUSH0 KECCAK256 SWAP1 JUMPDEST DUP2 SLOAD DUP2 MSTORE SWAP1 PUSH1 0x1 ADD SWAP1 PUSH1 0x20 ADD DUP1 DUP4 GT PUSH2 0x947 JUMPI DUP3 SWAP1 SUB PUSH1 0x1F AND DUP3 ADD SWAP2 JUMPDEST POP POP POP POP POP DUP2 MSTORE PUSH1 0x20 ADD PUSH1 0x4 DUP3 ADD SLOAD DUP2 MSTORE PUSH1 0x20 ADD PUSH1 0x5 DUP3 ADD PUSH0 SWAP1 SLOAD SWAP1 PUSH2 0x100 EXP SWAP1 DIV PUSH1 0xFF AND ISZERO ISZERO ISZERO ISZERO DUP2 MSTORE POP POP DUP5 DUP4 DUP2 MLOAD DUP2 LT PUSH2 0x9A4 JUMPI PUSH2 0x9A3 PUSH2 0x1E22 JUMP JUMPDEST JUMPDEST PUSH1 0x20 MUL PUSH1 0x20 ADD ADD DUP2 SWAP1 MSTORE POP DUP2 DUP1 PUSH2 0x9BA SWAP1 PUSH2 0x1A0F JUMP JUMPDEST SWAP3 POP POP JUMPDEST DUP1 DUP1 PUSH2 0x9C9 SWAP1 PUSH2 0x1A0F JUMP JUMPDEST SWAP2 POP POP PUSH2 0x7E9 JUMP JUMPDEST POP POP POP SWAP1 JUMP JUMPDEST PUSH0 PUSH1 0x3 PUSH0 DUP4 PUSH20 0xFFFFFFFFFFFFFFFFFFFFFFFFFFFFFFFFFFFFFFFF AND PUSH20 0xFFFFFFFFFFFFFFFFFFFFFFFFFFFFFFFFFFFFFFFF AND DUP2 MSTORE PUSH1 0x20 ADD SWAP1 DUP2 MSTORE PUSH1 0x20 ADD PUSH0 KECCAK256 PUSH0 SWAP1 SLOAD SWAP1 PUSH2 0x100 EXP SWAP1 DIV PUSH1 0xFF AND SWAP1 POP SWAP2 SWAP1 POP JUMP JUMPDEST PUSH1 0x3 PUSH0 CALLER PUSH20 0xFFFFFFFFFFFFFFFFFFFFFFFFFFFFFFFFFFFFFFFF AND PUSH20 0xFFFFFFFFFFFFFFFFFFFFFFFFFFFFFFFFFFFFFFFF AND DUP2 MSTORE PUSH1 0x20 ADD SWAP1 DUP2 MSTORE PUSH1 0x20 ADD PUSH0 KECCAK256 PUSH0 SWAP1 SLOAD SWAP1 PUSH2 0x100 EXP SWAP1 DIV PUSH1 0xFF AND PUSH2 0xAB2 JUMPI PUSH1 0x40 MLOAD PUSH32 0x8C379A000000000000000000000000000000000000000000000000000000000 DUP2 MSTORE PUSH1 0x4 ADD PUSH2 0xAA9 SWAP1 PUSH2 0x17FE JUMP JUMPDEST PUSH1 0x40 MLOAD DUP1 SWAP2 SUB SWAP1 REVERT JUMPDEST PUSH1 0x4 PUSH0 DUP3 DUP2 MSTORE PUSH1 0x20 ADD SWAP1 DUP2 MSTORE PUSH1 0x20 ADD PUSH0 KECCAK256 PUSH0 SWAP1 SLOAD SWAP1 PUSH2 0x100 EXP SWAP1 DIV PUSH1 0xFF AND PUSH2 0xB0F JUMPI PUSH1 0x40 MLOAD PUSH32 0x8C379A000000000000000000000000000000000000000000000000000000000 DUP2 MSTORE PUSH1 0x4 ADD PUSH2 0xB06 SWAP1 PUSH2 0x1866 JUMP JUMPDEST PUSH1 0x40 MLOAD DUP1 SWAP2 SUB SWAP1 REVERT JUMPDEST PUSH0 PUSH1 0x1 SWAP1 POP JUMPDEST PUSH2 0xB1F PUSH1 0x1 PUSH2 0xEF8 JUMP JUMPDEST DUP2 GT PUSH2 0xC21 JUMPI PUSH0 PUSH1 0x6 PUSH0 DUP5 DUP2 MSTORE PUSH1 0x20 ADD SWAP1 DUP2 MSTORE PUSH1 0x20 ADD PUSH0 KECCAK256 PUSH0 DUP4 DUP2 MSTORE PUSH1 0x20 ADD SWAP1 DUP2 MSTORE PUSH1 0x20 ADD PUSH0 KECCAK256 DUP1 SLOAD DUP1 PUSH1 0x20 MUL PUSH1 0x20 ADD PUSH1 0x40 MLOAD SWAP1 DUP2 ADD PUSH1 0x40 MSTORE DUP1 SWAP3 SWAP2 SWAP1 DUP2 DUP2 MSTORE PUSH1 0x20 ADD DUP3 DUP1 SLOAD DUP1 ISZERO PUSH2 0xBC3 JUMPI PUSH1 0x20 MUL DUP3 ADD SWAP2 SWAP1 PUSH0 MSTORE PUSH1 0x20 PUSH0 KECCAK256 SWAP1 JUMPDEST DUP2 PUSH0 SWAP1 SLOAD SWAP1 PUSH2 0x100 EXP SWAP1 DIV PUSH20 0xFFFFFFFFFFFFFFFFFFFFFFFFFFFFFFFFFFFFFFFF AND PUSH20 0xFFFFFFFFFFFFFFFFFFFFFFFFFFFFFFFFFFFFFFFF AND DUP2 MSTORE PUSH1 0x20 ADD SWAP1 PUSH1 0x1 ADD SWAP1 DUP1 DUP4 GT PUSH2 0xB7A JUMPI JUMPDEST POP POP POP POP POP SWAP1 POP PUSH0 DUP2 MLOAD EQ PUSH2 0xC0D JUMPI PUSH1 0x40 MLOAD PUSH32 0x8C379A000000000000000000000000000000000000000000000000000000000 DUP2 MSTORE PUSH1 0x4 ADD PUSH2 0xC04 SWAP1 PUSH2 0x1EBF JUMP JUMPDEST PUSH1 0x40 MLOAD DUP1 SWAP2 SUB SWAP1 REVERT JUMPDEST POP DUP1 DUP1 PUSH2 0xC19 SWAP1 PUSH2 0x1A0F JUMP JUMPDEST SWAP2 POP POP PUSH2 0xB15 JUMP JUMPDEST POP PUSH1 0x1 PUSH1 0x5 PUSH0 DUP4 DUP2 MSTORE PUSH1 0x20 ADD SWAP1 DUP2 MSTORE PUSH1 0x20 ADD PUSH0 KECCAK256 PUSH1 0x5 ADD PUSH0 PUSH2 0x100 EXP DUP2 SLOAD DUP2 PUSH1 0xFF MUL NOT AND SWAP1 DUP4 ISZERO ISZERO MUL OR SWAP1 SSTORE POP PUSH0 PUSH1 0x4 PUSH0 DUP4 DUP2 MSTORE PUSH1 0x20 ADD SWAP1 DUP2 MSTORE PUSH1 0x20 ADD PUSH0 KECCAK256 PUSH0 PUSH2 0x100 EXP DUP2 SLOAD DUP2 PUSH1 0xFF MUL NOT AND SWAP1 DUP4 ISZERO ISZERO MUL OR SWAP1 SSTORE POP PUSH32 0x8B2C14FE955D044EF95BA32B88D2CEB87C6F73FCEFDCEBE906063A6D75690F27 PUSH1 0x40 MLOAD PUSH2 0xCA3 SWAP1 PUSH2 0x1F27 JUMP JUMPDEST PUSH1 0x40 MLOAD DUP1 SWAP2 SUB SWAP1 LOG1 POP JUMP JUMPDEST PUSH0 SLOAD DUP2 JUMP JUMPDEST PUSH1 0x3 PUSH0 CALLER PUSH20 0xFFFFFFFFFFFFFFFFFFFFFFFFFFFFFFFFFFFFFFFF AND PUSH20 0xFFFFFFFFFFFFFFFFFFFFFFFFFFFFFFFFFFFFFFFF AND DUP2 MSTORE PUSH1 0x20 ADD SWAP1 DUP2 MSTORE PUSH1 0x20 ADD PUSH0 KECCAK256 PUSH0 SWAP1 SLOAD SWAP1 PUSH2 0x100 EXP SWAP1 DIV PUSH1 0xFF AND PUSH2 0xD3C JUMPI PUSH1 0x40 MLOAD PUSH32 0x8C379A000000000000000000000000000000000000000000000000000000000 DUP2 MSTORE PUSH1 0x4 ADD PUSH2 0xD33 SWAP1 PUSH2 0x17FE JUMP JUMPDEST PUSH1 0x40 MLOAD DUP1 SWAP2 SUB SWAP1 REVERT JUMPDEST PUSH0 DUP4 MLOAD GT PUSH2 0xD7F JUMPI PUSH1 0x40 MLOAD PUSH32 0x8C379A000000000000000000000000000000000000000000000000000000000 DUP2 MSTORE PUSH1 0x4 ADD PUSH2 0xD76 SWAP1 PUSH2 0x18CE JUMP JUMPDEST PUSH1 0x40 MLOAD DUP1 SWAP2 SUB SWAP1 REVERT JUMPDEST PUSH0 DUP2 EQ PUSH2 0xDC1 JUMPI PUSH1 0x40 MLOAD PUSH32 0x8C379A000000000000000000000000000000000000000000000000000000000 DUP2 MSTORE PUSH1 0x4 ADD PUSH2 0xDB8 SWAP1 PUSH2 0x1936 JUMP JUMPDEST PUSH1 0x40 MLOAD DUP1 SWAP2 SUB SWAP1 REVERT JUMPDEST PUSH2 0xDCB PUSH1 0x1 PUSH2 0xFE8 JUMP JUMPDEST PUSH2 0xDD3 PUSH2 0x1020 JUMP JUMPDEST PUSH2 0xDDD PUSH1 0x1 PUSH2 0xEF8 JUMP JUMPDEST DUP2 PUSH0 ADD DUP2 DUP2 MSTORE POP POP DUP4 DUP2 PUSH1 0x20 ADD DUP2 SWAP1 MSTORE POP DUP3 DUP2 PUSH1 0x60 ADD DUP2 SWAP1 MSTORE POP DUP2 DUP2 PUSH1 0x40 ADD DUP2 DUP2 MSTORE POP POP PUSH2 0xE09 PUSH2 0xFFC JUMP JUMPDEST DUP2 PUSH1 0x80 ADD DUP2 DUP2 MSTORE POP POP DUP1 PUSH1 0x5 PUSH0 DUP4 PUSH0 ADD MLOAD DUP2 MSTORE PUSH1 0x20 ADD SWAP1 DUP2 MSTORE PUSH1 0x20 ADD PUSH0 KECCAK256 PUSH0 DUP3 ADD MLOAD DUP2 PUSH0 ADD SSTORE PUSH1 0x20 DUP3 ADD MLOAD DUP2 PUSH1 0x1 ADD SWAP1 DUP2 PUSH2 0xE44 SWAP2 SWAP1 PUSH2 0x1C50 JUMP JUMPDEST POP PUSH1 0x40 DUP3 ADD MLOAD DUP2 PUSH1 0x2 ADD SSTORE PUSH1 0x60 DUP3 ADD MLOAD DUP2 PUSH1 0x3 ADD SWAP1 DUP2 PUSH2 0xE64 SWAP2 SWAP1 PUSH2 0x1C50 JUMP JUMPDEST POP PUSH1 0x80 DUP3 ADD MLOAD DUP2 PUSH1 0x4 ADD SSTORE PUSH1 0xA0 DUP3 ADD MLOAD DUP2 PUSH1 0x5 ADD PUSH0 PUSH2 0x100 EXP DUP2 SLOAD DUP2 PUSH1 0xFF MUL NOT AND SWAP1 DUP4 ISZERO ISZERO MUL OR SWAP1 SSTORE POP SWAP1 POP POP PUSH1 0x1 PUSH1 0x4 PUSH0 DUP4 PUSH0 ADD MLOAD DUP2 MSTORE PUSH1 0x20 ADD SWAP1 DUP2 MSTORE PUSH1 0x20 ADD PUSH0 KECCAK256 PUSH0 PUSH2 0x100 EXP DUP2 SLOAD DUP2 PUSH1 0xFF MUL NOT AND SWAP1 DUP4 ISZERO ISZERO MUL OR SWAP1 SSTORE POP PUSH32 0x8B2C14FE955D044EF95BA32B88D2CEB87C6F73FCEFDCEBE906063A6D75690F27 PUSH1 0x40 MLOAD PUSH2 0xEEA SWAP1 PUSH2 0x1F8F JUMP JUMPDEST PUSH1 0x40 MLOAD DUP1 SWAP2 SUB SWAP1 LOG1 POP POP POP POP JUMP JUMPDEST PUSH0 DUP2 PUSH0 ADD SLOAD SWAP1 POP SWAP2 SWAP1 POP JUMP JUMPDEST PUSH0 PUSH20 0xFFFFFFFFFFFFFFFFFFFFFFFFFFFFFFFFFFFFFFFF AND DUP3 PUSH20 0xFFFFFFFFFFFFFFFFFFFFFFFFFFFFFFFFFFFFFFFF AND SUB PUSH2 0xF72 JUMPI PUSH1 0x40 MLOAD PUSH32 0x8C379A000000000000000000000000000000000000000000000000000000000 DUP2 MSTORE PUSH1 0x4 ADD PUSH2 0xF69 SWAP1 PUSH2 0x1FF7 JUMP JUMPDEST PUSH1 0x40 MLOAD DUP1 SWAP2 SUB SWAP1 REVERT JUMPDEST PUSH0 DUP3 PUSH20 0xFFFFFFFFFFFFFFFFFFFFFFFFFFFFFFFFFFFFFFFF AND DUP3 PUSH1 0x40 MLOAD PUSH2 0xF97 SWAP1 PUSH2 0x2042 JUMP JUMPDEST PUSH0 PUSH1 0x40 MLOAD DUP1 DUP4 SUB DUP2 DUP6 DUP8 GAS CALL SWAP3 POP POP POP RETURNDATASIZE DUP1 PUSH0 DUP2 EQ PUSH2 0xFD1 JUMPI PUSH1 0x40 MLOAD SWAP2 POP PUSH1 0x1F NOT PUSH1 0x3F RETURNDATASIZE ADD AND DUP3 ADD PUSH1 0x40 MSTORE RETURNDATASIZE DUP3 MSTORE RETURNDATASIZE PUSH0 PUSH1 0x20 DUP5 ADD RETURNDATACOPY PUSH2 0xFD6 JUMP JUMPDEST PUSH1 0x60 SWAP2 POP JUMPDEST POP POP SWAP1 POP DUP1 PUSH2 0xFE3 JUMPI PUSH0 DUP1 REVERT JUMPDEST POP POP POP JUMP JUMPDEST PUSH1 0x1 DUP2 PUSH0 ADD PUSH0 DUP3 DUP3 SLOAD ADD SWAP3 POP POP DUP2 SWAP1 SSTORE POP POP JUMP JUMPDEST PUSH0 DUP1 PUSH2 0x3E8 DUP1 TIMESTAMP PUSH2 0x100D SWAP2 SWAP1 PUSH2 0x2056 JUMP JUMPDEST PUSH2 0x1017 SWAP2 SWAP1 PUSH2 0x2097 JUMP JUMPDEST SWAP1 POP DUP1 SWAP2 POP POP SWAP1 JUMP JUMPDEST PUSH1 0x40 MLOAD DUP1 PUSH1 0xC0 ADD PUSH1 0x40 MSTORE DUP1 PUSH0 DUP2 MSTORE PUSH1 0x20 ADD PUSH1 0x60 DUP2 MSTORE PUSH1 0x20 ADD PUSH0 DUP2 MSTORE PUSH1 0x20 ADD PUSH1 0x60 DUP2 MSTORE PUSH1 0x20 ADD PUSH0 DUP2 MSTORE PUSH1 0x20 ADD PUSH0 ISZERO ISZERO DUP2 MSTORE POP SWAP1 JUMP JUMPDEST PUSH0 PUSH1 0x40 MLOAD SWAP1 POP SWAP1 JUMP JUMPDEST PUSH0 DUP1 REVERT JUMPDEST PUSH0 DUP1 REVERT JUMPDEST PUSH0 DUP2 SWAP1 POP SWAP2 SWAP1 POP JUMP JUMPDEST PUSH2 0x1077 DUP2 PUSH2 0x1065 JUMP JUMPDEST DUP2 EQ PUSH2 0x1081 JUMPI PUSH0 DUP1 REVERT JUMPDEST POP JUMP JUMPDEST PUSH0 DUP2 CALLDATALOAD SWAP1 POP PUSH2 0x1092 DUP2 PUSH2 0x106E JUMP JUMPDEST SWAP3 SWAP2 POP POP JUMP JUMPDEST PUSH0 DUP1 PUSH1 0x40 DUP4 DUP6 SUB SLT ISZERO PUSH2 0x10AE JUMPI PUSH2 0x10AD PUSH2 0x105D JUMP JUMPDEST JUMPDEST PUSH0 PUSH2 0x10BB DUP6 DUP3 DUP7 ADD PUSH2 0x1084 JUMP JUMPDEST SWAP3 POP POP PUSH1 0x20 PUSH2 0x10CC DUP6 DUP3 DUP7 ADD PUSH2 0x1084 JUMP JUMPDEST SWAP2 POP POP SWAP3 POP SWAP3 SWAP1 POP JUMP JUMPDEST PUSH0 DUP2 MLOAD SWAP1 POP SWAP2 SWAP1 POP JUMP JUMPDEST PUSH0 DUP3 DUP3 MSTORE PUSH1 0x20 DUP3 ADD SWAP1 POP SWAP3 SWAP2 POP POP JUMP JUMPDEST PUSH0 DUP2 SWAP1 POP PUSH1 0x20 DUP3 ADD SWAP1 POP SWAP2 SWAP1 POP JUMP JUMPDEST PUSH0 PUSH20 0xFFFFFFFFFFFFFFFFFFFFFFFFFFFFFFFFFFFFFFFF DUP3 AND SWAP1 POP SWAP2 SWAP1 POP JUMP JUMPDEST PUSH0 PUSH2 0x1128 DUP3 PUSH2 0x10FF JUMP JUMPDEST SWAP1 POP SWAP2 SWAP1 POP JUMP JUMPDEST PUSH2 0x1138 DUP2 PUSH2 0x111E JUMP JUMPDEST DUP3 MSTORE POP POP JUMP JUMPDEST PUSH0 PUSH2 0x1149 DUP4 DUP4 PUSH2 0x112F JUMP JUMPDEST PUSH1 0x20 DUP4 ADD SWAP1 POP SWAP3 SWAP2 POP POP JUMP JUMPDEST PUSH0 PUSH1 0x20 DUP3 ADD SWAP1 POP SWAP2 SWAP1 POP JUMP JUMPDEST PUSH0 PUSH2 0x116B DUP3 PUSH2 0x10D6 JUMP JUMPDEST PUSH2 0x1175 DUP2 DUP6 PUSH2 0x10E0 JUMP JUMPDEST SWAP4 POP PUSH2 0x1180 DUP4 PUSH2 0x10F0 JUMP JUMPDEST DUP1 PUSH0 JUMPDEST DUP4 DUP2 LT ISZERO PUSH2 0x11B0 JUMPI DUP2 MLOAD PUSH2 0x1197 DUP9 DUP3 PUSH2 0x113E JUMP JUMPDEST SWAP8 POP PUSH2 0x11A2 DUP4 PUSH2 0x1155 JUMP JUMPDEST SWAP3 POP POP PUSH1 0x1 DUP2 ADD SWAP1 POP PUSH2 0x1183 JUMP JUMPDEST POP DUP6 SWAP4 POP POP POP POP SWAP3 SWAP2 POP POP JUMP JUMPDEST PUSH0 PUSH1 0x20 DUP3 ADD SWAP1 POP DUP2 DUP2 SUB PUSH0 DUP4 ADD MSTORE PUSH2 0x11D5 DUP2 DUP5 PUSH2 0x1161 JUMP JUMPDEST SWAP1 POP SWAP3 SWAP2 POP POP JUMP JUMPDEST PUSH0 DUP1 REVERT JUMPDEST PUSH0 DUP1 REVERT JUMPDEST PUSH0 PUSH1 0x1F NOT PUSH1 0x1F DUP4 ADD AND SWAP1 POP SWAP2 SWAP1 POP JUMP JUMPDEST PUSH32 0x4E487B7100000000000000000000000000000000000000000000000000000000 PUSH0 MSTORE PUSH1 0x41 PUSH1 0x4 MSTORE PUSH1 0x24 PUSH0 REVERT JUMPDEST PUSH2 0x122B DUP3 PUSH2 0x11E5 JUMP JUMPDEST DUP2 ADD DUP2 DUP2 LT PUSH8 0xFFFFFFFFFFFFFFFF DUP3 GT OR ISZERO PUSH2 0x124A JUMPI PUSH2 0x1249 PUSH2 0x11F5 JUMP JUMPDEST JUMPDEST DUP1 PUSH1 0x40 MSTORE POP POP POP JUMP JUMPDEST PUSH0 PUSH2 0x125C PUSH2 0x1054 JUMP JUMPDEST SWAP1 POP PUSH2 0x1268 DUP3 DUP3 PUSH2 0x1222 JUMP JUMPDEST SWAP2 SWAP1 POP JUMP JUMPDEST PUSH0 PUSH8 0xFFFFFFFFFFFFFFFF DUP3 GT ISZERO PUSH2 0x1287 JUMPI PUSH2 0x1286 PUSH2 0x11F5 JUMP JUMPDEST JUMPDEST PUSH2 0x1290 DUP3 PUSH2 0x11E5 JUMP JUMPDEST SWAP1 POP PUSH1 0x20 DUP2 ADD SWAP1 POP SWAP2 SWAP1 POP JUMP JUMPDEST DUP3 DUP2 DUP4 CALLDATACOPY PUSH0 DUP4 DUP4 ADD MSTORE POP POP POP JUMP JUMPDEST PUSH0 PUSH2 0x12BD PUSH2 0x12B8 DUP5 PUSH2 0x126D JUMP JUMPDEST PUSH2 0x1253 JUMP JUMPDEST SWAP1 POP DUP3 DUP2 MSTORE PUSH1 0x20 DUP2 ADD DUP5 DUP5 DUP5 ADD GT ISZERO PUSH2 0x12D9 JUMPI PUSH2 0x12D8 PUSH2 0x11E1 JUMP JUMPDEST JUMPDEST PUSH2 0x12E4 DUP5 DUP3 DUP6 PUSH2 0x129D JUMP JUMPDEST POP SWAP4 SWAP3 POP POP POP JUMP JUMPDEST PUSH0 DUP3 PUSH1 0x1F DUP4 ADD SLT PUSH2 0x1300 JUMPI PUSH2 0x12FF PUSH2 0x11DD JUMP JUMPDEST JUMPDEST DUP2 CALLDATALOAD PUSH2 0x1310 DUP5 DUP3 PUSH1 0x20 DUP7 ADD PUSH2 0x12AB JUMP JUMPDEST SWAP2 POP POP SWAP3 SWAP2 POP POP JUMP JUMPDEST PUSH0 DUP1 PUSH0 DUP1 PUSH1 0x80 DUP6 DUP8 SUB SLT ISZERO PUSH2 0x1331 JUMPI PUSH2 0x1330 PUSH2 0x105D JUMP JUMPDEST JUMPDEST PUSH0 PUSH2 0x133E DUP8 DUP3 DUP9 ADD PUSH2 0x1084 JUMP JUMPDEST SWAP5 POP POP PUSH1 0x20 DUP6 ADD CALLDATALOAD PUSH8 0xFFFFFFFFFFFFFFFF DUP2 GT ISZERO PUSH2 0x135F JUMPI PUSH2 0x135E PUSH2 0x1061 JUMP JUMPDEST JUMPDEST PUSH2 0x136B DUP8 DUP3 DUP9 ADD PUSH2 0x12EC JUMP JUMPDEST SWAP4 POP POP PUSH1 0x40 DUP6 ADD CALLDATALOAD PUSH8 0xFFFFFFFFFFFFFFFF DUP2 GT ISZERO PUSH2 0x138C JUMPI PUSH2 0x138B PUSH2 0x1061 JUMP JUMPDEST JUMPDEST PUSH2 0x1398 DUP8 DUP3 DUP9 ADD PUSH2 0x12EC JUMP JUMPDEST SWAP3 POP POP PUSH1 0x60 PUSH2 0x13A9 DUP8 DUP3 DUP9 ADD PUSH2 0x1084 JUMP JUMPDEST SWAP2 POP POP SWAP3 SWAP6 SWAP2 SWAP5 POP SWAP3 POP JUMP JUMPDEST PUSH2 0x13BE DUP2 PUSH2 0x111E JUMP JUMPDEST DUP2 EQ PUSH2 0x13C8 JUMPI PUSH0 DUP1 REVERT JUMPDEST POP JUMP JUMPDEST PUSH0 DUP2 CALLDATALOAD SWAP1 POP PUSH2 0x13D9 DUP2 PUSH2 0x13B5 JUMP JUMPDEST SWAP3 SWAP2 POP POP JUMP JUMPDEST PUSH0 DUP1 PUSH1 0x40 DUP4 DUP6 SUB SLT ISZERO PUSH2 0x13F5 JUMPI PUSH2 0x13F4 PUSH2 0x105D JUMP JUMPDEST JUMPDEST PUSH0 PUSH2 0x1402 DUP6 DUP3 DUP7 ADD PUSH2 0x13CB JUMP JUMPDEST SWAP3 POP POP PUSH1 0x20 PUSH2 0x1413 DUP6 DUP3 DUP7 ADD PUSH2 0x1084 JUMP JUMPDEST SWAP2 POP POP SWAP3 POP SWAP3 SWAP1 POP JUMP JUMPDEST PUSH0 PUSH1 0x20 DUP3 DUP5 SUB SLT ISZERO PUSH2 0x1432 JUMPI PUSH2 0x1431 PUSH2 0x105D JUMP JUMPDEST JUMPDEST PUSH0 PUSH2 0x143F DUP5 DUP3 DUP6 ADD PUSH2 0x1084 JUMP JUMPDEST SWAP2 POP POP SWAP3 SWAP2 POP POP JUMP JUMPDEST PUSH0 DUP2 ISZERO ISZERO SWAP1 POP SWAP2 SWAP1 POP JUMP JUMPDEST PUSH2 0x145C DUP2 PUSH2 0x1448 JUMP JUMPDEST DUP3 MSTORE POP POP JUMP JUMPDEST PUSH0 PUSH1 0x20 DUP3 ADD SWAP1 POP PUSH2 0x1475 PUSH0 DUP4 ADD DUP5 PUSH2 0x1453 JUMP JUMPDEST SWAP3 SWAP2 POP POP JUMP JUMPDEST PUSH2 0x1484 DUP2 PUSH2 0x1448 JUMP JUMPDEST DUP2 EQ PUSH2 0x148E JUMPI PUSH0 DUP1 REVERT JUMPDEST POP JUMP JUMPDEST PUSH0 DUP2 CALLDATALOAD SWAP1 POP PUSH2 0x149F DUP2 PUSH2 0x147B JUMP JUMPDEST SWAP3 SWAP2 POP POP JUMP JUMPDEST PUSH0 DUP1 PUSH1 0x40 DUP4 DUP6 SUB SLT ISZERO PUSH2 0x14BB JUMPI PUSH2 0x14BA PUSH2 0x105D JUMP JUMPDEST JUMPDEST PUSH0 PUSH2 0x14C8 DUP6 DUP3 DUP7 ADD PUSH2 0x13CB JUMP JUMPDEST SWAP3 POP POP PUSH1 0x20 PUSH2 0x14D9 DUP6 DUP3 DUP7 ADD PUSH2 0x1491 JUMP JUMPDEST SWAP2 POP POP SWAP3 POP SWAP3 SWAP1 POP JUMP JUMPDEST PUSH0 DUP2 MLOAD SWAP1 POP SWAP2 SWAP1 POP JUMP JUMPDEST PUSH0 DUP3 DUP3 MSTORE PUSH1 0x20 DUP3 ADD SWAP1 POP SWAP3 SWAP2 POP POP JUMP JUMPDEST PUSH0 DUP2 SWAP1 POP PUSH1 0x20 DUP3 ADD SWAP1 POP SWAP2 SWAP1 POP JUMP JUMPDEST PUSH2 0x1515 DUP2 PUSH2 0x1065 JUMP JUMPDEST DUP3 MSTORE POP POP JUMP JUMPDEST PUSH0 DUP2 MLOAD SWAP1 POP SWAP2 SWAP1 POP JUMP JUMPDEST PUSH0 DUP3 DUP3 MSTORE PUSH1 0x20 DUP3 ADD SWAP1 POP SWAP3 SWAP2 POP POP JUMP JUMPDEST DUP3 DUP2 DUP4 MCOPY PUSH0 DUP4 DUP4 ADD MSTORE POP POP POP JUMP JUMPDEST PUSH0 PUSH2 0x154D DUP3 PUSH2 0x151B JUMP JUMPDEST PUSH2 0x1557 DUP2 DUP6 PUSH2 0x1525 JUMP JUMPDEST SWAP4 POP PUSH2 0x1567 DUP2 DUP6 PUSH1 0x20 DUP7 ADD PUSH2 0x1535 JUMP JUMPDEST PUSH2 0x1570 DUP2 PUSH2 0x11E5 JUMP JUMPDEST DUP5 ADD SWAP2 POP POP SWAP3 SWAP2 POP POP JUMP JUMPDEST PUSH2 0x1584 DUP2 PUSH2 0x1448 JUMP JUMPDEST DUP3 MSTORE POP POP JUMP JUMPDEST PUSH0 PUSH1 0xC0 DUP4 ADD PUSH0 DUP4 ADD MLOAD PUSH2 0x159F PUSH0 DUP7 ADD DUP3 PUSH2 0x150C JUMP JUMPDEST POP PUSH1 0x20 DUP4 ADD MLOAD DUP5 DUP3 SUB PUSH1 0x20 DUP7 ADD MSTORE PUSH2 0x15B7 DUP3 DUP3 PUSH2 0x1543 JUMP JUMPDEST SWAP2 POP POP PUSH1 0x40 DUP4 ADD MLOAD PUSH2 0x15CC PUSH1 0x40 DUP7 ADD DUP3 PUSH2 0x150C JUMP JUMPDEST POP PUSH1 0x60 DUP4 ADD MLOAD DUP5 DUP3 SUB PUSH1 0x60 DUP7 ADD MSTORE PUSH2 0x15E4 DUP3 DUP3 PUSH2 0x1543 JUMP JUMPDEST SWAP2 POP POP PUSH1 0x80 DUP4 ADD MLOAD PUSH2 0x15F9 PUSH1 0x80 DUP7 ADD DUP3 PUSH2 0x150C JUMP JUMPDEST POP PUSH1 0xA0 DUP4 ADD MLOAD PUSH2 0x160C PUSH1 0xA0 DUP7 ADD DUP3 PUSH2 0x157B JUMP JUMPDEST POP DUP1 SWAP2 POP POP SWAP3 SWAP2 POP POP JUMP JUMPDEST PUSH0 PUSH2 0x1622 DUP4 DUP4 PUSH2 0x158A JUMP JUMPDEST SWAP1 POP SWAP3 SWAP2 POP POP JUMP JUMPDEST PUSH0 PUSH1 0x20 DUP3 ADD SWAP1 POP SWAP2 SWAP1 POP JUMP JUMPDEST PUSH0 PUSH2 0x1640 DUP3 PUSH2 0x14E3 JUMP JUMPDEST PUSH2 0x164A DUP2 DUP6 PUSH2 0x14ED JUMP JUMPDEST SWAP4 POP DUP4 PUSH1 0x20 DUP3 MUL DUP6 ADD PUSH2 0x165C DUP6 PUSH2 0x14FD JUMP JUMPDEST DUP1 PUSH0 JUMPDEST DUP6 DUP2 LT ISZERO PUSH2 0x1697 JUMPI DUP5 DUP5 SUB DUP10 MSTORE DUP2 MLOAD PUSH2 0x1678 DUP6 DUP3 PUSH2 0x1617 JUMP JUMPDEST SWAP5 POP PUSH2 0x1683 DUP4 PUSH2 0x162A JUMP JUMPDEST SWAP3 POP PUSH1 0x20 DUP11 ADD SWAP10 POP POP PUSH1 0x1 DUP2 ADD SWAP1 POP PUSH2 0x165F JUMP JUMPDEST POP DUP3 SWAP8 POP DUP8 SWAP6 POP POP POP POP POP POP SWAP3 SWAP2 POP POP JUMP JUMPDEST PUSH0 PUSH1 0x20 DUP3 ADD SWAP1 POP DUP2 DUP2 SUB PUSH0 DUP4 ADD MSTORE PUSH2 0x16C1 DUP2 DUP5 PUSH2 0x1636 JUMP JUMPDEST SWAP1 POP SWAP3 SWAP2 POP POP JUMP JUMPDEST PUSH0 PUSH1 0x20 DUP3 DUP5 SUB SLT ISZERO PUSH2 0x16DE JUMPI PUSH2 0x16DD PUSH2 0x105D JUMP JUMPDEST JUMPDEST PUSH0 PUSH2 0x16EB DUP5 DUP3 DUP6 ADD PUSH2 0x13CB JUMP JUMPDEST SWAP2 POP POP SWAP3 SWAP2 POP POP JUMP JUMPDEST PUSH2 0x16FD DUP2 PUSH2 0x1065 JUMP JUMPDEST DUP3 MSTORE POP POP JUMP JUMPDEST PUSH0 PUSH1 0x20 DUP3 ADD SWAP1 POP PUSH2 0x1716 PUSH0 DUP4 ADD DUP5 PUSH2 0x16F4 JUMP JUMPDEST SWAP3 SWAP2 POP POP JUMP JUMPDEST PUSH0 DUP1 PUSH0 PUSH1 0x60 DUP5 DUP7 SUB SLT ISZERO PUSH2 0x1733 JUMPI PUSH2 0x1732 PUSH2 0x105D JUMP JUMPDEST JUMPDEST PUSH0 DUP5 ADD CALLDATALOAD PUSH8 0xFFFFFFFFFFFFFFFF DUP2 GT ISZERO PUSH2 0x1750 JUMPI PUSH2 0x174F PUSH2 0x1061 JUMP JUMPDEST JUMPDEST PUSH2 0x175C DUP7 DUP3 DUP8 ADD PUSH2 0x12EC JUMP JUMPDEST SWAP4 POP POP PUSH1 0x20 DUP5 ADD CALLDATALOAD PUSH8 0xFFFFFFFFFFFFFFFF DUP2 GT ISZERO PUSH2 0x177D JUMPI PUSH2 0x177C PUSH2 0x1061 JUMP JUMPDEST JUMPDEST PUSH2 0x1789 DUP7 DUP3 DUP8 ADD PUSH2 0x12EC JUMP JUMPDEST SWAP3 POP POP PUSH1 0x40 PUSH2 0x179A DUP7 DUP3 DUP8 ADD PUSH2 0x1084 JUMP JUMPDEST SWAP2 POP POP SWAP3 POP SWAP3 POP SWAP3 JUMP JUMPDEST PUSH0 DUP3 DUP3 MSTORE PUSH1 0x20 DUP3 ADD SWAP1 POP SWAP3 SWAP2 POP POP JUMP JUMPDEST PUSH32 0x43616C6C6572206973206E6F7420616E2061646D696E00000000000000000000 PUSH0 DUP3 ADD MSTORE POP JUMP JUMPDEST PUSH0 PUSH2 0x17E8 PUSH1 0x16 DUP4 PUSH2 0x17A4 JUMP JUMPDEST SWAP2 POP PUSH2 0x17F3 DUP3 PUSH2 0x17B4 JUMP JUMPDEST PUSH1 0x20 DUP3 ADD SWAP1 POP SWAP2 SWAP1 POP JUMP JUMPDEST PUSH0 PUSH1 0x20 DUP3 ADD SWAP1 POP DUP2 DUP2 SUB PUSH0 DUP4 ADD MSTORE PUSH2 0x1815 DUP2 PUSH2 0x17DC JUMP JUMPDEST SWAP1 POP SWAP2 SWAP1 POP JUMP JUMPDEST PUSH32 0x526F75746520646F65736E277420657869737400000000000000000000000000 PUSH0 DUP3 ADD MSTORE POP JUMP JUMPDEST PUSH0 PUSH2 0x1850 PUSH1 0x13 DUP4 PUSH2 0x17A4 JUMP JUMPDEST SWAP2 POP PUSH2 0x185B DUP3 PUSH2 0x181C JUMP JUMPDEST PUSH1 0x20 DUP3 ADD SWAP1 POP SWAP2 SWAP1 POP JUMP JUMPDEST PUSH0 PUSH1 0x20 DUP3 ADD SWAP1 POP DUP2 DUP2 SUB PUSH0 DUP4 ADD MSTORE PUSH2 0x187D DUP2 PUSH2 0x1844 JUMP JUMPDEST SWAP1 POP SWAP2 SWAP1 POP JUMP JUMPDEST PUSH32 0x4E616D65206D757374206E6F7420626520656D70747900000000000000000000 PUSH0 DUP3 ADD MSTORE POP JUMP JUMPDEST PUSH0 PUSH2 0x18B8 PUSH1 0x16 DUP4 PUSH2 0x17A4 JUMP JUMPDEST SWAP2 POP PUSH2 0x18C3 DUP3 PUSH2 0x1884 JUMP JUMPDEST PUSH1 0x20 DUP3 ADD SWAP1 POP SWAP2 SWAP1 POP JUMP JUMPDEST PUSH0 PUSH1 0x20 DUP3 ADD SWAP1 POP DUP2 DUP2 SUB PUSH0 DUP4 ADD MSTORE PUSH2 0x18E5 DUP2 PUSH2 0x18AC JUMP JUMPDEST SWAP1 POP SWAP2 SWAP1 POP JUMP JUMPDEST PUSH32 0x44697374616E6365206D757374206E6F7420626520656D707479000000000000 PUSH0 DUP3 ADD MSTORE POP JUMP JUMPDEST PUSH0 PUSH2 0x1920 PUSH1 0x1A DUP4 PUSH2 0x17A4 JUMP JUMPDEST SWAP2 POP PUSH2 0x192B DUP3 PUSH2 0x18EC JUMP JUMPDEST PUSH1 0x20 DUP3 ADD SWAP1 POP SWAP2 SWAP1 POP JUMP JUMPDEST PUSH0 PUSH1 0x20 DUP3 ADD SWAP1 POP DUP2 DUP2 SUB PUSH0 DUP4 ADD MSTORE PUSH2 0x194D DUP2 PUSH2 0x1914 JUMP JUMPDEST SWAP1 POP SWAP2 SWAP1 POP JUMP JUMPDEST PUSH32 0x43616E6E6F742075706461746520726F75746520776974682070757263686173 PUSH0 DUP3 ADD MSTORE PUSH32 0x6564207469636B65747300000000000000000000000000000000000000000000 PUSH1 0x20 DUP3 ADD MSTORE POP JUMP JUMPDEST PUSH0 PUSH2 0x19AE PUSH1 0x2A DUP4 PUSH2 0x17A4 JUMP JUMPDEST SWAP2 POP PUSH2 0x19B9 DUP3 PUSH2 0x1954 JUMP JUMPDEST PUSH1 0x40 DUP3 ADD SWAP1 POP SWAP2 SWAP1 POP JUMP JUMPDEST PUSH0 PUSH1 0x20 DUP3 ADD SWAP1 POP DUP2 DUP2 SUB PUSH0 DUP4 ADD MSTORE PUSH2 0x19DB DUP2 PUSH2 0x19A2 JUMP JUMPDEST SWAP1 POP SWAP2 SWAP1 POP JUMP JUMPDEST PUSH32 0x4E487B7100000000000000000000000000000000000000000000000000000000 PUSH0 MSTORE PUSH1 0x11 PUSH1 0x4 MSTORE PUSH1 0x24 PUSH0 REVERT JUMPDEST PUSH0 PUSH2 0x1A19 DUP3 PUSH2 0x1065 JUMP JUMPDEST SWAP2 POP PUSH32 0xFFFFFFFFFFFFFFFFFFFFFFFFFFFFFFFFFFFFFFFFFFFFFFFFFFFFFFFFFFFFFFFF DUP3 SUB PUSH2 0x1A4B JUMPI PUSH2 0x1A4A PUSH2 0x19E2 JUMP JUMPDEST JUMPDEST PUSH1 0x1 DUP3 ADD SWAP1 POP SWAP2 SWAP1 POP JUMP JUMPDEST PUSH32 0x4E487B7100000000000000000000000000000000000000000000000000000000 PUSH0 MSTORE PUSH1 0x22 PUSH1 0x4 MSTORE PUSH1 0x24 PUSH0 REVERT JUMPDEST PUSH0 PUSH1 0x2 DUP3 DIV SWAP1 POP PUSH1 0x1 DUP3 AND DUP1 PUSH2 0x1A9A JUMPI PUSH1 0x7F DUP3 AND SWAP2 POP JUMPDEST PUSH1 0x20 DUP3 LT DUP2 SUB PUSH2 0x1AAD JUMPI PUSH2 0x1AAC PUSH2 0x1A56 JUMP JUMPDEST JUMPDEST POP SWAP2 SWAP1 POP JUMP JUMPDEST PUSH0 DUP2 SWAP1 POP DUP2 PUSH0 MSTORE PUSH1 0x20 PUSH0 KECCAK256 SWAP1 POP SWAP2 SWAP1 POP JUMP JUMPDEST PUSH0 PUSH1 0x20 PUSH1 0x1F DUP4 ADD DIV SWAP1 POP SWAP2 SWAP1 POP JUMP JUMPDEST PUSH0 DUP3 DUP3 SHL SWAP1 POP SWAP3 SWAP2 POP POP JUMP JUMPDEST PUSH0 PUSH1 0x8 DUP4 MUL PUSH2 0x1B0F PUSH32 0xFFFFFFFFFFFFFFFFFFFFFFFFFFFFFFFFFFFFFFFFFFFFFFFFFFFFFFFFFFFFFFFF DUP3 PUSH2 0x1AD4 JUMP JUMPDEST PUSH2 0x1B19 DUP7 DUP4 PUSH2 0x1AD4 JUMP JUMPDEST SWAP6 POP DUP1 NOT DUP5 AND SWAP4 POP DUP1 DUP7 AND DUP5 OR SWAP3 POP POP POP SWAP4 SWAP3 POP POP POP JUMP JUMPDEST PUSH0 DUP2 SWAP1 POP SWAP2 SWAP1 POP JUMP JUMPDEST PUSH0 PUSH2 0x1B54 PUSH2 0x1B4F PUSH2 0x1B4A DUP5 PUSH2 0x1065 JUMP JUMPDEST PUSH2 0x1B31 JUMP JUMPDEST PUSH2 0x1065 JUMP JUMPDEST SWAP1 POP SWAP2 SWAP1 POP JUMP JUMPDEST PUSH0 DUP2 SWAP1 POP SWAP2 SWAP1 POP JUMP JUMPDEST PUSH2 0x1B6D DUP4 PUSH2 0x1B3A JUMP JUMPDEST PUSH2 0x1B81 PUSH2 0x1B79 DUP3 PUSH2 0x1B5B JUMP JUMPDEST DUP5 DUP5 SLOAD PUSH2 0x1AE0 JUMP JUMPDEST DUP3 SSTORE POP POP POP POP JUMP JUMPDEST PUSH0 SWAP1 JUMP JUMPDEST PUSH2 0x1B95 PUSH2 0x1B89 JUMP JUMPDEST PUSH2 0x1BA0 DUP2 DUP5 DUP5 PUSH2 0x1B64 JUMP JUMPDEST POP POP POP JUMP JUMPDEST JUMPDEST DUP2 DUP2 LT ISZERO PUSH2 0x1BC3 JUMPI PUSH2 0x1BB8 PUSH0 DUP3 PUSH2 0x1B8D JUMP JUMPDEST PUSH1 0x1 DUP2 ADD SWAP1 POP PUSH2 0x1BA6 JUMP JUMPDEST POP POP JUMP JUMPDEST PUSH1 0x1F DUP3 GT ISZERO PUSH2 0x1C08 JUMPI PUSH2 0x1BD9 DUP2 PUSH2 0x1AB3 JUMP JUMPDEST PUSH2 0x1BE2 DUP5 PUSH2 0x1AC5 JUMP JUMPDEST DUP2 ADD PUSH1 0x20 DUP6 LT ISZERO PUSH2 0x1BF1 JUMPI DUP2 SWAP1 POP JUMPDEST PUSH2 0x1C05 PUSH2 0x1BFD DUP6 PUSH2 0x1AC5 JUMP JUMPDEST DUP4 ADD DUP3 PUSH2 0x1BA5 JUMP JUMPDEST POP POP JUMPDEST POP POP POP JUMP JUMPDEST PUSH0 DUP3 DUP3 SHR SWAP1 POP SWAP3 SWAP2 POP POP JUMP JUMPDEST PUSH0 PUSH2 0x1C28 PUSH0 NOT DUP5 PUSH1 0x8 MUL PUSH2 0x1C0D JUMP JUMPDEST NOT DUP1 DUP4 AND SWAP2 POP POP SWAP3 SWAP2 POP POP JUMP JUMPDEST PUSH0 PUSH2 0x1C40 DUP4 DUP4 PUSH2 0x1C19 JUMP JUMPDEST SWAP2 POP DUP3 PUSH1 0x2 MUL DUP3 OR SWAP1 POP SWAP3 SWAP2 POP POP JUMP JUMPDEST PUSH2 0x1C59 DUP3 PUSH2 0x151B JUMP JUMPDEST PUSH8 0xFFFFFFFFFFFFFFFF DUP2 GT ISZERO PUSH2 0x1C72 JUMPI PUSH2 0x1C71 PUSH2 0x11F5 JUMP JUMPDEST JUMPDEST PUSH2 0x1C7C DUP3 SLOAD PUSH2 0x1A83 JUMP JUMPDEST PUSH2 0x1C87 DUP3 DUP3 DUP6 PUSH2 0x1BC7 JUMP JUMPDEST PUSH0 PUSH1 0x20 SWAP1 POP PUSH1 0x1F DUP4 GT PUSH1 0x1 DUP2 EQ PUSH2 0x1CB8 JUMPI PUSH0 DUP5 ISZERO PUSH2 0x1CA6 JUMPI DUP3 DUP8 ADD MLOAD SWAP1 POP JUMPDEST PUSH2 0x1CB0 DUP6 DUP3 PUSH2 0x1C35 JUMP JUMPDEST DUP7 SSTORE POP PUSH2 0x1D17 JUMP JUMPDEST PUSH1 0x1F NOT DUP5 AND PUSH2 0x1CC6 DUP7 PUSH2 0x1AB3 JUMP JUMPDEST PUSH0 JUMPDEST DUP3 DUP2 LT ISZERO PUSH2 0x1CED JUMPI DUP5 DUP10 ADD MLOAD DUP3 SSTORE PUSH1 0x1 DUP3 ADD SWAP2 POP PUSH1 0x20 DUP6 ADD SWAP5 POP PUSH1 0x20 DUP2 ADD SWAP1 POP PUSH2 0x1CC8 JUMP JUMPDEST DUP7 DUP4 LT ISZERO PUSH2 0x1D0A JUMPI DUP5 DUP10 ADD MLOAD PUSH2 0x1D06 PUSH1 0x1F DUP10 AND DUP3 PUSH2 0x1C19 JUMP JUMPDEST DUP4 SSTORE POP JUMPDEST PUSH1 0x1 PUSH1 0x2 DUP9 MUL ADD DUP9 SSTORE POP POP POP JUMPDEST POP POP POP POP POP POP JUMP JUMPDEST PUSH32 0x55706461746564206120726F7574650000000000000000000000000000000000 PUSH0 DUP3 ADD MSTORE POP JUMP JUMPDEST PUSH0 PUSH2 0x1D53 PUSH1 0xF DUP4 PUSH2 0x17A4 JUMP JUMPDEST SWAP2 POP PUSH2 0x1D5E DUP3 PUSH2 0x1D1F JUMP JUMPDEST PUSH1 0x20 DUP3 ADD SWAP1 POP SWAP2 SWAP1 POP JUMP JUMPDEST PUSH0 PUSH1 0x20 DUP3 ADD SWAP1 POP DUP2 DUP2 SUB PUSH0 DUP4 ADD MSTORE PUSH2 0x1D80 DUP2 PUSH2 0x1D47 JUMP JUMPDEST SWAP1 POP SWAP2 SWAP1 POP JUMP JUMPDEST PUSH32 0x496E73756666696369656E742066756E64000000000000000000000000000000 PUSH0 DUP3 ADD MSTORE POP JUMP JUMPDEST PUSH0 PUSH2 0x1DBB PUSH1 0x11 DUP4 PUSH2 0x17A4 JUMP JUMPDEST SWAP2 POP PUSH2 0x1DC6 DUP3 PUSH2 0x1D87 JUMP JUMPDEST PUSH1 0x20 DUP3 ADD SWAP1 POP SWAP2 SWAP1 POP JUMP JUMPDEST PUSH0 PUSH1 0x20 DUP3 ADD SWAP1 POP DUP2 DUP2 SUB PUSH0 DUP4 ADD MSTORE PUSH2 0x1DE8 DUP2 PUSH2 0x1DAF JUMP JUMPDEST SWAP1 POP SWAP2 SWAP1 POP JUMP JUMPDEST PUSH0 PUSH2 0x1DF9 DUP3 PUSH2 0x1065 JUMP JUMPDEST SWAP2 POP PUSH2 0x1E04 DUP4 PUSH2 0x1065 JUMP JUMPDEST SWAP3 POP DUP3 DUP3 SUB SWAP1 POP DUP2 DUP2 GT ISZERO PUSH2 0x1E1C JUMPI PUSH2 0x1E1B PUSH2 0x19E2 JUMP JUMPDEST JUMPDEST SWAP3 SWAP2 POP POP JUMP JUMPDEST PUSH32 0x4E487B7100000000000000000000000000000000000000000000000000000000 PUSH0 MSTORE PUSH1 0x32 PUSH1 0x4 MSTORE PUSH1 0x24 PUSH0 REVERT JUMPDEST PUSH32 0x43616E742064656C65746520726F757465207769746820707572636861736564 PUSH0 DUP3 ADD MSTORE PUSH32 0x207469636B657473000000000000000000000000000000000000000000000000 PUSH1 0x20 DUP3 ADD MSTORE POP JUMP JUMPDEST PUSH0 PUSH2 0x1EA9 PUSH1 0x28 DUP4 PUSH2 0x17A4 JUMP JUMPDEST SWAP2 POP PUSH2 0x1EB4 DUP3 PUSH2 0x1E4F JUMP JUMPDEST PUSH1 0x40 DUP3 ADD SWAP1 POP SWAP2 SWAP1 POP JUMP JUMPDEST PUSH0 PUSH1 0x20 DUP3 ADD SWAP1 POP DUP2 DUP2 SUB PUSH0 DUP4 ADD MSTORE PUSH2 0x1ED6 DUP2 PUSH2 0x1E9D JUMP JUMPDEST SWAP1 POP SWAP2 SWAP1 POP JUMP JUMPDEST PUSH32 0x44656C65746564206120726F7574650000000000000000000000000000000000 PUSH0 DUP3 ADD MSTORE POP JUMP JUMPDEST PUSH0 PUSH2 0x1F11 PUSH1 0xF DUP4 PUSH2 0x17A4 JUMP JUMPDEST SWAP2 POP PUSH2 0x1F1C DUP3 PUSH2 0x1EDD JUMP JUMPDEST PUSH1 0x20 DUP3 ADD SWAP1 POP SWAP2 SWAP1 POP JUMP JUMPDEST PUSH0 PUSH1 0x20 DUP3 ADD SWAP1 POP DUP2 DUP2 SUB PUSH0 DUP4 ADD MSTORE PUSH2 0x1F3E DUP2 PUSH2 0x1F05 JUMP JUMPDEST SWAP1 POP SWAP2 SWAP1 POP JUMP JUMPDEST PUSH32 0x437265617465642061206E657720526F75746500000000000000000000000000 PUSH0 DUP3 ADD MSTORE POP JUMP JUMPDEST PUSH0 PUSH2 0x1F79 PUSH1 0x13 DUP4 PUSH2 0x17A4 JUMP JUMPDEST SWAP2 POP PUSH2 0x1F84 DUP3 PUSH2 0x1F45 JUMP JUMPDEST PUSH1 0x20 DUP3 ADD SWAP1 POP SWAP2 SWAP1 POP JUMP JUMPDEST PUSH0 PUSH1 0x20 DUP3 ADD SWAP1 POP DUP2 DUP2 SUB PUSH0 DUP4 ADD MSTORE PUSH2 0x1FA6 DUP2 PUSH2 0x1F6D JUMP JUMPDEST SWAP1 POP SWAP2 SWAP1 POP JUMP JUMPDEST PUSH32 0x52656369766572206D75737420626520612076616C6964206164647265737300 PUSH0 DUP3 ADD MSTORE POP JUMP JUMPDEST PUSH0 PUSH2 0x1FE1 PUSH1 0x1F DUP4 PUSH2 0x17A4 JUMP JUMPDEST SWAP2 POP PUSH2 0x1FEC DUP3 PUSH2 0x1FAD JUMP JUMPDEST PUSH1 0x20 DUP3 ADD SWAP1 POP SWAP2 SWAP1 POP JUMP JUMPDEST PUSH0 PUSH1 0x20 DUP3 ADD SWAP1 POP DUP2 DUP2 SUB PUSH0 DUP4 ADD MSTORE PUSH2 0x200E DUP2 PUSH2 0x1FD5 JUMP JUMPDEST SWAP1 POP SWAP2 SWAP1 POP JUMP JUMPDEST PUSH0 DUP2 SWAP1 POP SWAP3 SWAP2 POP POP JUMP JUMPDEST POP JUMP JUMPDEST PUSH0 PUSH2 0x202D PUSH0 DUP4 PUSH2 0x2015 JUMP JUMPDEST SWAP2 POP PUSH2 0x2038 DUP3 PUSH2 0x201F JUMP JUMPDEST PUSH0 DUP3 ADD SWAP1 POP SWAP2 SWAP1 POP JUMP JUMPDEST PUSH0 PUSH2 0x204C DUP3 PUSH2 0x2022 JUMP JUMPDEST SWAP2 POP DUP2 SWAP1 POP SWAP2 SWAP1 POP JUMP JUMPDEST PUSH0 PUSH2 0x2060 DUP3 PUSH2 0x1065 JUMP JUMPDEST SWAP2 POP PUSH2 0x206B DUP4 PUSH2 0x1065 JUMP JUMPDEST SWAP3 POP DUP3 DUP3 MUL PUSH2 0x2079 DUP2 PUSH2 0x1065 JUMP JUMPDEST SWAP2 POP DUP3 DUP3 DIV DUP5 EQ DUP4 ISZERO OR PUSH2 0x2090 JUMPI PUSH2 0x208F PUSH2 0x19E2 JUMP JUMPDEST JUMPDEST POP SWAP3 SWAP2 POP POP JUMP JUMPDEST PUSH0 PUSH2 0x20A1 DUP3 PUSH2 0x1065 JUMP JUMPDEST SWAP2 POP PUSH2 0x20AC DUP4 PUSH2 0x1065 JUMP JUMPDEST SWAP3 POP DUP3 DUP3 ADD SWAP1 POP DUP1 DUP3 GT ISZERO PUSH2 0x20C4 JUMPI PUSH2 0x20C3 PUSH2 0x19E2 JUMP JUMPDEST JUMPDEST SWAP3 SWAP2 POP POP JUMP INVALID LOG2 PUSH5 0x6970667358 0x22 SLT KECCAK256 0x1E PUSH22 0x473C7F3D3D0A1E18AEBA72E9C1F038A84ED754A4C69A 0xEB DUP6 PUSH16 0xF0AA02F5B264736F6C634300081A0033 "
				},
				"gasEstimates": {
					"creation": {
						"codeDepositCost": "1689600",
						"executionCost": "26122",
						"totalCost": "1715722"
					},
					"external": {
						"addRoute(string,string,uint256)": "infinite",
						"balance()": "2490",
						"checkAdmin(address)": "2892",
						"deleteRoute(uint256)": "infinite",
						"getRouteTicketHolders(uint256,uint256)": "infinite",
						"getRoutes()": "infinite",
						"routeExists(uint256)": "2852",
						"setAdmin(address,bool)": "27308",
						"updateRoute(uint256,string,string,uint256)": "infinite",
						"withdrawTo(address,uint256)": "infinite"
					},
					"internal": {
						"currentTime()": "infinite",
						"payTo(address,uint256)": "infinite"
					}
				},
				"methodIdentifiers": {
					"addRoute(string,string,uint256)": "e8579fd2",
					"balance()": "b69ef8a8",
					"checkAdmin(address)": "9026dee8",
					"deleteRoute(uint256)": "9693c4a4",
					"getRouteTicketHolders(uint256,uint256)": "0c6081ca",
					"getRoutes()": "7e928072",
					"routeExists(uint256)": "444530ab",
					"setAdmin(address,bool)": "4b0bddd2",
					"updateRoute(uint256,string,string,uint256)": "10601ee6",
					"withdrawTo(address,uint256)": "205c2878"
				}
			},
			"storageLayout": {
				"storage": [
					{
						"astId": 257,
						"contract": "contracts/Admin.sol:Admin",
						"label": "balance",
						"offset": 0,
						"slot": "0",
						"type": "t_uint256"
					},
					{
						"astId": 264,
						"contract": "contracts/Admin.sol:Admin",
						"label": "_totalRoutes",
						"offset": 0,
						"slot": "1",
						"type": "t_struct(Counter)183_storage"
					},
					{
						"astId": 267,
						"contract": "contracts/Admin.sol:Admin",
						"label": "_totalTickets",
						"offset": 0,
						"slot": "2",
						"type": "t_struct(Counter)183_storage"
					},
					{
						"astId": 275,
						"contract": "contracts/Admin.sol:Admin",
						"label": "isAdmin",
						"offset": 0,
						"slot": "3",
						"type": "t_mapping(t_address,t_bool)"
					},
					{
						"astId": 279,
						"contract": "contracts/Admin.sol:Admin",
						"label": "routeExists",
						"offset": 0,
						"slot": "4",
						"type": "t_mapping(t_uint256,t_bool)"
					},
					{
						"astId": 284,
						"contract": "contracts/Admin.sol:Admin",
						"label": "routes",
						"offset": 0,
						"slot": "5",
						"type": "t_mapping(t_uint256,t_struct(Route)785_storage)"
					},
					{
						"astId": 291,
						"contract": "contracts/Admin.sol:Admin",
						"label": "ticketHolders",
						"offset": 0,
						"slot": "6",
						"type": "t_mapping(t_uint256,t_mapping(t_uint256,t_array(t_address)dyn_storage))"
					}
				],
				"types": {
					"t_address": {
						"encoding": "inplace",
						"label": "address",
						"numberOfBytes": "20"
					},
					"t_array(t_address)dyn_storage": {
						"base": "t_address",
						"encoding": "dynamic_array",
						"label": "address[]",
						"numberOfBytes": "32"
					},
					"t_bool": {
						"encoding": "inplace",
						"label": "bool",
						"numberOfBytes": "1"
					},
					"t_mapping(t_address,t_bool)": {
						"encoding": "mapping",
						"key": "t_address",
						"label": "mapping(address => bool)",
						"numberOfBytes": "32",
						"value": "t_bool"
					},
					"t_mapping(t_uint256,t_array(t_address)dyn_storage)": {
						"encoding": "mapping",
						"key": "t_uint256",
						"label": "mapping(uint256 => address[])",
						"numberOfBytes": "32",
						"value": "t_array(t_address)dyn_storage"
					},
					"t_mapping(t_uint256,t_bool)": {
						"encoding": "mapping",
						"key": "t_uint256",
						"label": "mapping(uint256 => bool)",
						"numberOfBytes": "32",
						"value": "t_bool"
					},
					"t_mapping(t_uint256,t_mapping(t_uint256,t_array(t_address)dyn_storage))": {
						"encoding": "mapping",
						"key": "t_uint256",
						"label": "mapping(uint256 => mapping(uint256 => address[]))",
						"numberOfBytes": "32",
						"value": "t_mapping(t_uint256,t_array(t_address)dyn_storage)"
					},
					"t_mapping(t_uint256,t_struct(Route)785_storage)": {
						"encoding": "mapping",
						"key": "t_uint256",
						"label": "mapping(uint256 => struct Route)",
						"numberOfBytes": "32",
						"value": "t_struct(Route)785_storage"
					},
					"t_string_storage": {
						"encoding": "bytes",
						"label": "string",
						"numberOfBytes": "32"
					},
					"t_struct(Counter)183_storage": {
						"encoding": "inplace",
						"label": "struct Counters.Counter",
						"members": [
							{
								"astId": 182,
								"contract": "contracts/Admin.sol:Admin",
								"label": "_value",
								"offset": 0,
								"slot": "0",
								"type": "t_uint256"
							}
						],
						"numberOfBytes": "32"
					},
					"t_struct(Route)785_storage": {
						"encoding": "inplace",
						"label": "struct Route",
						"members": [
							{
								"astId": 774,
								"contract": "contracts/Admin.sol:Admin",
								"label": "id",
								"offset": 0,
								"slot": "0",
								"type": "t_uint256"
							},
							{
								"astId": 776,
								"contract": "contracts/Admin.sol:Admin",
								"label": "name",
								"offset": 0,
								"slot": "1",
								"type": "t_string_storage"
							},
							{
								"astId": 778,
								"contract": "contracts/Admin.sol:Admin",
								"label": "distance",
								"offset": 0,
								"slot": "2",
								"type": "t_uint256"
							},
							{
								"astId": 780,
								"contract": "contracts/Admin.sol:Admin",
								"label": "description",
								"offset": 0,
								"slot": "3",
								"type": "t_string_storage"
							},
							{
								"astId": 782,
								"contract": "contracts/Admin.sol:Admin",
								"label": "timestamp",
								"offset": 0,
								"slot": "4",
								"type": "t_uint256"
							},
							{
								"astId": 784,
								"contract": "contracts/Admin.sol:Admin",
								"label": "deleted",
								"offset": 0,
								"slot": "5",
								"type": "t_bool"
							}
						],
						"numberOfBytes": "192"
					},
					"t_uint256": {
						"encoding": "inplace",
						"label": "uint256",
						"numberOfBytes": "32"
					}
				}
			},
			"userdoc": {
				"kind": "user",
				"methods": {},
				"version": 1
			}
		}
	}
}