{
	"data": {
		"bytecode": {
			"linkReferences": {},
			"object": "6080604052348015600e575f80fd5b506001805f3373ffffffffffffffffffffffffffffffffffffffff1673ffffffffffffffffffffffffffffffffffffffff1681526020019081526020015f205f6101000a81548160ff0219169083151502179055506107b9806100705f395ff3fe608060405234801561000f575f80fd5b506004361061004a575f3560e01c8063065a9e9b1461004e57806324d7806c1461006a5780634b0bddd21461009a5780639026dee8146100b6575b5f80fd5b610068600480360381019061006391906104a5565b6100e6565b005b610084600480360381019061007f9190610575565b6101f4565b60405161009191906105ba565b60405180910390f35b6100b460048036038101906100af91906105fd565b610211565b005b6100d060048036038101906100cb9190610575565b6102f2565b6040516100dd91906105ba565b60405180910390f35b60015f3373ffffffffffffffffffffffffffffffffffffffff1673ffffffffffffffffffffffffffffffffffffffff1681526020019081526020015f205f9054906101000a900460ff1661016f576040517f08c379a000000000000000000000000000000000000000000000000000000000815260040161016690610695565b60405180910390fd5b5f8251116101b2576040517f08c379a00000000000000000000000000000000000000000000000000000000081526004016101a9906106fd565b60405180910390fd5b6101bb5f610344565b7f8b2c14fe955d044ef95ba32b88d2ceb87c6f73fcefdcebe906063a6d75690f276040516101e890610765565b60405180910390a15050565b6001602052805f5260405f205f915054906101000a900460ff1681565b60015f3373ffffffffffffffffffffffffffffffffffffffff1673ffffffffffffffffffffffffffffffffffffffff1681526020019081526020015f205f9054906101000a900460ff1661029a576040517f08c379a000000000000000000000000000000000000000000000000000000000815260040161029190610695565b60405180910390fd5b8060015f8473ffffffffffffffffffffffffffffffffffffffff1673ffffffffffffffffffffffffffffffffffffffff1681526020019081526020015f205f6101000a81548160ff0219169083151502179055505050565b5f60015f8373ffffffffffffffffffffffffffffffffffffffff1673ffffffffffffffffffffffffffffffffffffffff1681526020019081526020015f205f9054906101000a900460ff169050919050565b6001815f015f828254019250508190555050565b5f604051905090565b5f80fd5b5f80fd5b5f80fd5b5f80fd5b5f601f19601f8301169050919050565b7f4e487b71000000000000000000000000000000000000000000000000000000005f52604160045260245ffd5b6103b782610371565b810181811067ffffffffffffffff821117156103d6576103d5610381565b5b80604052505050565b5f6103e8610358565b90506103f482826103ae565b919050565b5f67ffffffffffffffff82111561041357610412610381565b5b61041c82610371565b9050602081019050919050565b828183375f83830152505050565b5f610449610444846103f9565b6103df565b9050828152602081018484840111156104655761046461036d565b5b610470848285610429565b509392505050565b5f82601f83011261048c5761048b610369565b5b813561049c848260208601610437565b91505092915050565b5f80604083850312156104bb576104ba610361565b5b5f83013567ffffffffffffffff8111156104d8576104d7610365565b5b6104e485828601610478565b925050602083013567ffffffffffffffff81111561050557610504610365565b5b61051185828601610478565b9150509250929050565b5f73ffffffffffffffffffffffffffffffffffffffff82169050919050565b5f6105448261051b565b9050919050565b6105548161053a565b811461055e575f80fd5b50565b5f8135905061056f8161054b565b92915050565b5f6020828403121561058a57610589610361565b5b5f61059784828501610561565b91505092915050565b5f8115159050919050565b6105b4816105a0565b82525050565b5f6020820190506105cd5f8301846105ab565b92915050565b6105dc816105a0565b81146105e6575f80fd5b50565b5f813590506105f7816105d3565b92915050565b5f806040838503121561061357610612610361565b5b5f61062085828601610561565b9250506020610631858286016105e9565b9150509250929050565b5f82825260208201905092915050565b7f43616c6c6572206973206e6f7420616e2061646d696e000000000000000000005f82015250565b5f61067f60168361063b565b915061068a8261064b565b602082019050919050565b5f6020820190508181035f8301526106ac81610673565b9050919050565b7f4e616d65206d757374206e6f7420626520656d707479000000000000000000005f82015250565b5f6106e760168361063b565b91506106f2826106b3565b602082019050919050565b5f6020820190508181035f830152610714816106db565b9050919050565b7f437265617465642061206e657720526f757465000000000000000000000000005f82015250565b5f61074f60138361063b565b915061075a8261071b565b602082019050919050565b5f6020820190508181035f83015261077c81610743565b905091905056fea2646970667358221220d7ca6b877623a75c2c2988b337bead9e616eb3f3a14c23b2bd732c5ecbc6959d64736f6c634300081a0033",
			"opcodes": "PUSH1 0x80 PUSH1 0x40 MSTORE CALLVALUE DUP1 ISZERO PUSH1 0xE JUMPI PUSH0 DUP1 REVERT JUMPDEST POP PUSH1 0x1 DUP1 PUSH0 CALLER PUSH20 0xFFFFFFFFFFFFFFFFFFFFFFFFFFFFFFFFFFFFFFFF AND PUSH20 0xFFFFFFFFFFFFFFFFFFFFFFFFFFFFFFFFFFFFFFFF AND DUP2 MSTORE PUSH1 0x20 ADD SWAP1 DUP2 MSTORE PUSH1 0x20 ADD PUSH0 KECCAK256 PUSH0 PUSH2 0x100 EXP DUP2 SLOAD DUP2 PUSH1 0xFF MUL NOT AND SWAP1 DUP4 ISZERO ISZERO MUL OR SWAP1 SSTORE POP PUSH2 0x7B9 DUP1 PUSH2 0x70 PUSH0 CODECOPY PUSH0 RETURN INVALID PUSH1 0x80 PUSH1 0x40 MSTORE CALLVALUE DUP1 ISZERO PUSH2 0xF JUMPI PUSH0 DUP1 REVERT JUMPDEST POP PUSH1 0x4 CALLDATASIZE LT PUSH2 0x4A JUMPI PUSH0 CALLDATALOAD PUSH1 0xE0 SHR DUP1 PUSH4 0x65A9E9B EQ PUSH2 0x4E JUMPI DUP1 PUSH4 0x24D7806C EQ PUSH2 0x6A JUMPI DUP1 PUSH4 0x4B0BDDD2 EQ PUSH2 0x9A JUMPI DUP1 PUSH4 0x9026DEE8 EQ PUSH2 0xB6 JUMPI JUMPDEST PUSH0 DUP1 REVERT JUMPDEST PUSH2 0x68 PUSH1 0x4 DUP1 CALLDATASIZE SUB DUP2 ADD SWAP1 PUSH2 0x63 SWAP2 SWAP1 PUSH2 0x4A5 JUMP JUMPDEST PUSH2 0xE6 JUMP JUMPDEST STOP JUMPDEST PUSH2 0x84 PUSH1 0x4 DUP1 CALLDATASIZE SUB DUP2 ADD SWAP1 PUSH2 0x7F SWAP2 SWAP1 PUSH2 0x575 JUMP JUMPDEST PUSH2 0x1F4 JUMP JUMPDEST PUSH1 0x40 MLOAD PUSH2 0x91 SWAP2 SWAP1 PUSH2 0x5BA JUMP JUMPDEST PUSH1 0x40 MLOAD DUP1 SWAP2 SUB SWAP1 RETURN JUMPDEST PUSH2 0xB4 PUSH1 0x4 DUP1 CALLDATASIZE SUB DUP2 ADD SWAP1 PUSH2 0xAF SWAP2 SWAP1 PUSH2 0x5FD JUMP JUMPDEST PUSH2 0x211 JUMP JUMPDEST STOP JUMPDEST PUSH2 0xD0 PUSH1 0x4 DUP1 CALLDATASIZE SUB DUP2 ADD SWAP1 PUSH2 0xCB SWAP2 SWAP1 PUSH2 0x575 JUMP JUMPDEST PUSH2 0x2F2 JUMP JUMPDEST PUSH1 0x40 MLOAD PUSH2 0xDD SWAP2 SWAP1 PUSH2 0x5BA JUMP JUMPDEST PUSH1 0x40 MLOAD DUP1 SWAP2 SUB SWAP1 RETURN JUMPDEST PUSH1 0x1 PUSH0 CALLER PUSH20 0xFFFFFFFFFFFFFFFFFFFFFFFFFFFFFFFFFFFFFFFF AND PUSH20 0xFFFFFFFFFFFFFFFFFFFFFFFFFFFFFFFFFFFFFFFF AND DUP2 MSTORE PUSH1 0x20 ADD SWAP1 DUP2 MSTORE PUSH1 0x20 ADD PUSH0 KECCAK256 PUSH0 SWAP1 SLOAD SWAP1 PUSH2 0x100 EXP SWAP1 DIV PUSH1 0xFF AND PUSH2 0x16F JUMPI PUSH1 0x40 MLOAD PUSH32 0x8C379A000000000000000000000000000000000000000000000000000000000 DUP2 MSTORE PUSH1 0x4 ADD PUSH2 0x166 SWAP1 PUSH2 0x695 JUMP JUMPDEST PUSH1 0x40 MLOAD DUP1 SWAP2 SUB SWAP1 REVERT JUMPDEST PUSH0 DUP3 MLOAD GT PUSH2 0x1B2 JUMPI PUSH1 0x40 MLOAD PUSH32 0x8C379A000000000000000000000000000000000000000000000000000000000 DUP2 MSTORE PUSH1 0x4 ADD PUSH2 0x1A9 SWAP1 PUSH2 0x6FD JUMP JUMPDEST PUSH1 0x40 MLOAD DUP1 SWAP2 SUB SWAP1 REVERT JUMPDEST PUSH2 0x1BB PUSH0 PUSH2 0x344 JUMP JUMPDEST PUSH32 0x8B2C14FE955D044EF95BA32B88D2CEB87C6F73FCEFDCEBE906063A6D75690F27 PUSH1 0x40 MLOAD PUSH2 0x1E8 SWAP1 PUSH2 0x765 JUMP JUMPDEST PUSH1 0x40 MLOAD DUP1 SWAP2 SUB SWAP1 LOG1 POP POP JUMP JUMPDEST PUSH1 0x1 PUSH1 0x20 MSTORE DUP1 PUSH0 MSTORE PUSH1 0x40 PUSH0 KECCAK256 PUSH0 SWAP2 POP SLOAD SWAP1 PUSH2 0x100 EXP SWAP1 DIV PUSH1 0xFF AND DUP2 JUMP JUMPDEST PUSH1 0x1 PUSH0 CALLER PUSH20 0xFFFFFFFFFFFFFFFFFFFFFFFFFFFFFFFFFFFFFFFF AND PUSH20 0xFFFFFFFFFFFFFFFFFFFFFFFFFFFFFFFFFFFFFFFF AND DUP2 MSTORE PUSH1 0x20 ADD SWAP1 DUP2 MSTORE PUSH1 0x20 ADD PUSH0 KECCAK256 PUSH0 SWAP1 SLOAD SWAP1 PUSH2 0x100 EXP SWAP1 DIV PUSH1 0xFF AND PUSH2 0x29A JUMPI PUSH1 0x40 MLOAD PUSH32 0x8C379A000000000000000000000000000000000000000000000000000000000 DUP2 MSTORE PUSH1 0x4 ADD PUSH2 0x291 SWAP1 PUSH2 0x695 JUMP JUMPDEST PUSH1 0x40 MLOAD DUP1 SWAP2 SUB SWAP1 REVERT JUMPDEST DUP1 PUSH1 0x1 PUSH0 DUP5 PUSH20 0xFFFFFFFFFFFFFFFFFFFFFFFFFFFFFFFFFFFFFFFF AND PUSH20 0xFFFFFFFFFFFFFFFFFFFFFFFFFFFFFFFFFFFFFFFF AND DUP2 MSTORE PUSH1 0x20 ADD SWAP1 DUP2 MSTORE PUSH1 0x20 ADD PUSH0 KECCAK256 PUSH0 PUSH2 0x100 EXP DUP2 SLOAD DUP2 PUSH1 0xFF MUL NOT AND SWAP1 DUP4 ISZERO ISZERO MUL OR SWAP1 SSTORE POP POP POP JUMP JUMPDEST PUSH0 PUSH1 0x1 PUSH0 DUP4 PUSH20 0xFFFFFFFFFFFFFFFFFFFFFFFFFFFFFFFFFFFFFFFF AND PUSH20 0xFFFFFFFFFFFFFFFFFFFFFFFFFFFFFFFFFFFFFFFF AND DUP2 MSTORE PUSH1 0x20 ADD SWAP1 DUP2 MSTORE PUSH1 0x20 ADD PUSH0 KECCAK256 PUSH0 SWAP1 SLOAD SWAP1 PUSH2 0x100 EXP SWAP1 DIV PUSH1 0xFF AND SWAP1 POP SWAP2 SWAP1 POP JUMP JUMPDEST PUSH1 0x1 DUP2 PUSH0 ADD PUSH0 DUP3 DUP3 SLOAD ADD SWAP3 POP POP DUP2 SWAP1 SSTORE POP POP JUMP JUMPDEST PUSH0 PUSH1 0x40 MLOAD SWAP1 POP SWAP1 JUMP JUMPDEST PUSH0 DUP1 REVERT JUMPDEST PUSH0 DUP1 REVERT JUMPDEST PUSH0 DUP1 REVERT JUMPDEST PUSH0 DUP1 REVERT JUMPDEST PUSH0 PUSH1 0x1F NOT PUSH1 0x1F DUP4 ADD AND SWAP1 POP SWAP2 SWAP1 POP JUMP JUMPDEST PUSH32 0x4E487B7100000000000000000000000000000000000000000000000000000000 PUSH0 MSTORE PUSH1 0x41 PUSH1 0x4 MSTORE PUSH1 0x24 PUSH0 REVERT JUMPDEST PUSH2 0x3B7 DUP3 PUSH2 0x371 JUMP JUMPDEST DUP2 ADD DUP2 DUP2 LT PUSH8 0xFFFFFFFFFFFFFFFF DUP3 GT OR ISZERO PUSH2 0x3D6 JUMPI PUSH2 0x3D5 PUSH2 0x381 JUMP JUMPDEST JUMPDEST DUP1 PUSH1 0x40 MSTORE POP POP POP JUMP JUMPDEST PUSH0 PUSH2 0x3E8 PUSH2 0x358 JUMP JUMPDEST SWAP1 POP PUSH2 0x3F4 DUP3 DUP3 PUSH2 0x3AE JUMP JUMPDEST SWAP2 SWAP1 POP JUMP JUMPDEST PUSH0 PUSH8 0xFFFFFFFFFFFFFFFF DUP3 GT ISZERO PUSH2 0x413 JUMPI PUSH2 0x412 PUSH2 0x381 JUMP JUMPDEST JUMPDEST PUSH2 0x41C DUP3 PUSH2 0x371 JUMP JUMPDEST SWAP1 POP PUSH1 0x20 DUP2 ADD SWAP1 POP SWAP2 SWAP1 POP JUMP JUMPDEST DUP3 DUP2 DUP4 CALLDATACOPY PUSH0 DUP4 DUP4 ADD MSTORE POP POP POP JUMP JUMPDEST PUSH0 PUSH2 0x449 PUSH2 0x444 DUP5 PUSH2 0x3F9 JUMP JUMPDEST PUSH2 0x3DF JUMP JUMPDEST SWAP1 POP DUP3 DUP2 MSTORE PUSH1 0x20 DUP2 ADD DUP5 DUP5 DUP5 ADD GT ISZERO PUSH2 0x465 JUMPI PUSH2 0x464 PUSH2 0x36D JUMP JUMPDEST JUMPDEST PUSH2 0x470 DUP5 DUP3 DUP6 PUSH2 0x429 JUMP JUMPDEST POP SWAP4 SWAP3 POP POP POP JUMP JUMPDEST PUSH0 DUP3 PUSH1 0x1F DUP4 ADD SLT PUSH2 0x48C JUMPI PUSH2 0x48B PUSH2 0x369 JUMP JUMPDEST JUMPDEST DUP2 CALLDATALOAD PUSH2 0x49C DUP5 DUP3 PUSH1 0x20 DUP7 ADD PUSH2 0x437 JUMP JUMPDEST SWAP2 POP POP SWAP3 SWAP2 POP POP JUMP JUMPDEST PUSH0 DUP1 PUSH1 0x40 DUP4 DUP6 SUB SLT ISZERO PUSH2 0x4BB JUMPI PUSH2 0x4BA PUSH2 0x361 JUMP JUMPDEST JUMPDEST PUSH0 DUP4 ADD CALLDATALOAD PUSH8 0xFFFFFFFFFFFFFFFF DUP2 GT ISZERO PUSH2 0x4D8 JUMPI PUSH2 0x4D7 PUSH2 0x365 JUMP JUMPDEST JUMPDEST PUSH2 0x4E4 DUP6 DUP3 DUP7 ADD PUSH2 0x478 JUMP JUMPDEST SWAP3 POP POP PUSH1 0x20 DUP4 ADD CALLDATALOAD PUSH8 0xFFFFFFFFFFFFFFFF DUP2 GT ISZERO PUSH2 0x505 JUMPI PUSH2 0x504 PUSH2 0x365 JUMP JUMPDEST JUMPDEST PUSH2 0x511 DUP6 DUP3 DUP7 ADD PUSH2 0x478 JUMP JUMPDEST SWAP2 POP POP SWAP3 POP SWAP3 SWAP1 POP JUMP JUMPDEST PUSH0 PUSH20 0xFFFFFFFFFFFFFFFFFFFFFFFFFFFFFFFFFFFFFFFF DUP3 AND SWAP1 POP SWAP2 SWAP1 POP JUMP JUMPDEST PUSH0 PUSH2 0x544 DUP3 PUSH2 0x51B JUMP JUMPDEST SWAP1 POP SWAP2 SWAP1 POP JUMP JUMPDEST PUSH2 0x554 DUP2 PUSH2 0x53A JUMP JUMPDEST DUP2 EQ PUSH2 0x55E JUMPI PUSH0 DUP1 REVERT JUMPDEST POP JUMP JUMPDEST PUSH0 DUP2 CALLDATALOAD SWAP1 POP PUSH2 0x56F DUP2 PUSH2 0x54B JUMP JUMPDEST SWAP3 SWAP2 POP POP JUMP JUMPDEST PUSH0 PUSH1 0x20 DUP3 DUP5 SUB SLT ISZERO PUSH2 0x58A JUMPI PUSH2 0x589 PUSH2 0x361 JUMP JUMPDEST JUMPDEST PUSH0 PUSH2 0x597 DUP5 DUP3 DUP6 ADD PUSH2 0x561 JUMP JUMPDEST SWAP2 POP POP SWAP3 SWAP2 POP POP JUMP JUMPDEST PUSH0 DUP2 ISZERO ISZERO SWAP1 POP SWAP2 SWAP1 POP JUMP JUMPDEST PUSH2 0x5B4 DUP2 PUSH2 0x5A0 JUMP JUMPDEST DUP3 MSTORE POP POP JUMP JUMPDEST PUSH0 PUSH1 0x20 DUP3 ADD SWAP1 POP PUSH2 0x5CD PUSH0 DUP4 ADD DUP5 PUSH2 0x5AB JUMP JUMPDEST SWAP3 SWAP2 POP POP JUMP JUMPDEST PUSH2 0x5DC DUP2 PUSH2 0x5A0 JUMP JUMPDEST DUP2 EQ PUSH2 0x5E6 JUMPI PUSH0 DUP1 REVERT JUMPDEST POP JUMP JUMPDEST PUSH0 DUP2 CALLDATALOAD SWAP1 POP PUSH2 0x5F7 DUP2 PUSH2 0x5D3 JUMP JUMPDEST SWAP3 SWAP2 POP POP JUMP JUMPDEST PUSH0 DUP1 PUSH1 0x40 DUP4 DUP6 SUB SLT ISZERO PUSH2 0x613 JUMPI PUSH2 0x612 PUSH2 0x361 JUMP JUMPDEST JUMPDEST PUSH0 PUSH2 0x620 DUP6 DUP3 DUP7 ADD PUSH2 0x561 JUMP JUMPDEST SWAP3 POP POP PUSH1 0x20 PUSH2 0x631 DUP6 DUP3 DUP7 ADD PUSH2 0x5E9 JUMP JUMPDEST SWAP2 POP POP SWAP3 POP SWAP3 SWAP1 POP JUMP JUMPDEST PUSH0 DUP3 DUP3 MSTORE PUSH1 0x20 DUP3 ADD SWAP1 POP SWAP3 SWAP2 POP POP JUMP JUMPDEST PUSH32 0x43616C6C6572206973206E6F7420616E2061646D696E00000000000000000000 PUSH0 DUP3 ADD MSTORE POP JUMP JUMPDEST PUSH0 PUSH2 0x67F PUSH1 0x16 DUP4 PUSH2 0x63B JUMP JUMPDEST SWAP2 POP PUSH2 0x68A DUP3 PUSH2 0x64B JUMP JUMPDEST PUSH1 0x20 DUP3 ADD SWAP1 POP SWAP2 SWAP1 POP JUMP JUMPDEST PUSH0 PUSH1 0x20 DUP3 ADD SWAP1 POP DUP2 DUP2 SUB PUSH0 DUP4 ADD MSTORE PUSH2 0x6AC DUP2 PUSH2 0x673 JUMP JUMPDEST SWAP1 POP SWAP2 SWAP1 POP JUMP JUMPDEST PUSH32 0x4E616D65206D757374206E6F7420626520656D70747900000000000000000000 PUSH0 DUP3 ADD MSTORE POP JUMP JUMPDEST PUSH0 PUSH2 0x6E7 PUSH1 0x16 DUP4 PUSH2 0x63B JUMP JUMPDEST SWAP2 POP PUSH2 0x6F2 DUP3 PUSH2 0x6B3 JUMP JUMPDEST PUSH1 0x20 DUP3 ADD SWAP1 POP SWAP2 SWAP1 POP JUMP JUMPDEST PUSH0 PUSH1 0x20 DUP3 ADD SWAP1 POP DUP2 DUP2 SUB PUSH0 DUP4 ADD MSTORE PUSH2 0x714 DUP2 PUSH2 0x6DB JUMP JUMPDEST SWAP1 POP SWAP2 SWAP1 POP JUMP JUMPDEST PUSH32 0x437265617465642061206E657720526F75746500000000000000000000000000 PUSH0 DUP3 ADD MSTORE POP JUMP JUMPDEST PUSH0 PUSH2 0x74F PUSH1 0x13 DUP4 PUSH2 0x63B JUMP JUMPDEST SWAP2 POP PUSH2 0x75A DUP3 PUSH2 0x71B JUMP JUMPDEST PUSH1 0x20 DUP3 ADD SWAP1 POP SWAP2 SWAP1 POP JUMP JUMPDEST PUSH0 PUSH1 0x20 DUP3 ADD SWAP1 POP DUP2 DUP2 SUB PUSH0 DUP4 ADD MSTORE PUSH2 0x77C DUP2 PUSH2 0x743 JUMP JUMPDEST SWAP1 POP SWAP2 SWAP1 POP JUMP INVALID LOG2 PUSH5 0x6970667358 0x22 SLT KECCAK256 0xD7 0xCA PUSH12 0x877623A75C2C2988B337BEAD SWAP15 PUSH2 0x6EB3 RETURN LOG1 0x4C 0x23 0xB2 0xBD PUSH20 0x2C5ECBC6959D64736F6C634300081A0033000000 "
		},
		"gasEstimates": {
			"creation": {
				"codeDepositCost": "395400",
				"executionCost": "24781",
				"totalCost": "420181"
			},
			"external": {
				"addRoute(string,string)": "infinite",
				"checkAdmin(address)": "2914",
				"isAdmin(address)": "2833",
				"setAdmin(address,bool)": "27241"
			}
		},
		"methodIdentifiers": {
			"addRoute(string,string)": "065a9e9b",
			"checkAdmin(address)": "9026dee8",
			"isAdmin(address)": "24d7806c",
			"setAdmin(address,bool)": "4b0bddd2"
		}
	},
	"abi": [
		{
			"inputs": [],
			"stateMutability": "nonpayable",
			"type": "constructor"
		},
		{
			"anonymous": false,
			"inputs": [
				{
					"indexed": false,
					"internalType": "string",
					"name": "ActionType",
					"type": "string"
				}
			],
			"name": "Action",
			"type": "event"
		},
		{
			"inputs": [
				{
					"internalType": "string",
					"name": "name",
					"type": "string"
				},
				{
					"internalType": "string",
					"name": "description",
					"type": "string"
				}
			],
			"name": "addRoute",
			"outputs": [],
			"stateMutability": "nonpayable",
			"type": "function"
		},
		{
			"inputs": [
				{
					"internalType": "address",
					"name": "_address",
					"type": "address"
				}
			],
			"name": "checkAdmin",
			"outputs": [
				{
					"internalType": "bool",
					"name": "",
					"type": "bool"
				}
			],
			"stateMutability": "view",
			"type": "function"
		},
		{
			"inputs": [
				{
					"internalType": "address",
					"name": "",
					"type": "address"
				}
			],
			"name": "isAdmin",
			"outputs": [
				{
					"internalType": "bool",
					"name": "",
					"type": "bool"
				}
			],
			"stateMutability": "view",
			"type": "function"
		},
		{
			"inputs": [
				{
					"internalType": "address",
					"name": "_address",
					"type": "address"
				},
				{
					"internalType": "bool",
					"name": "_status",
					"type": "bool"
				}
			],
			"name": "setAdmin",
			"outputs": [],
			"stateMutability": "nonpayable",
			"type": "function"
		}
	]
}